{
	"contracts/lottery.sol": {
		"Lottery": {
			"abi": [
				{
					"inputs": [],
					"stateMutability": "nonpayable",
					"type": "constructor"
				},
				{
					"stateMutability": "payable",
					"type": "fallback"
				},
				{
					"inputs": [],
					"name": "getBalance",
					"outputs": [
						{
							"internalType": "uint256",
							"name": "",
							"type": "uint256"
						}
					],
					"stateMutability": "view",
					"type": "function"
				},
				{
					"inputs": [],
					"name": "manager",
					"outputs": [
						{
							"internalType": "address",
							"name": "",
							"type": "address"
						}
					],
					"stateMutability": "view",
					"type": "function"
				},
				{
					"inputs": [],
					"name": "pickWinner",
					"outputs": [],
					"stateMutability": "nonpayable",
					"type": "function"
				},
				{
					"inputs": [
						{
							"internalType": "uint256",
							"name": "",
							"type": "uint256"
						}
					],
					"name": "players",
					"outputs": [
						{
							"internalType": "address payable",
							"name": "",
							"type": "address"
						}
					],
					"stateMutability": "view",
					"type": "function"
				},
				{
					"inputs": [],
					"name": "random",
					"outputs": [
						{
							"internalType": "uint256",
							"name": "",
							"type": "uint256"
						}
					],
					"stateMutability": "view",
					"type": "function"
				},
				{
					"inputs": [
						{
							"internalType": "address payable",
							"name": "recipient",
							"type": "address"
						},
						{
							"internalType": "uint256",
							"name": "amount",
							"type": "uint256"
						}
					],
					"name": "transferEthToWinner",
					"outputs": [],
					"stateMutability": "nonpayable",
					"type": "function"
				},
				{
					"stateMutability": "payable",
					"type": "receive"
				}
			],
			"devdoc": {
				"kind": "dev",
				"methods": {},
				"version": 1
			},
			"evm": {
				"assembly": "    /* \"contracts/lottery.sol\":73:1451  contract Lottery{\r... */\n  mstore(0x40, 0xa0)\n    /* \"contracts/lottery.sol\":178:259  constructor(){\r... */\n  callvalue\n  dup1\n  iszero\n  tag_1\n  jumpi\n  0x00\n  dup1\n  revert\ntag_1:\n  pop\n    /* \"contracts/lottery.sol\":212:222  msg.sender */\n  caller\n    /* \"contracts/lottery.sol\":202:222  manager = msg.sender */\n  0xffffffffffffffffffffffffffffffffffffffff\n  and\n  0x80\n  dup2\n  0xffffffffffffffffffffffffffffffffffffffff\n  and\n  0x60\n  shl\n  dup2\n  mstore\n  pop\n  pop\n    /* \"contracts/lottery.sol\":233:251  deleteAllPlayers() */\n  tag_4\n    /* \"contracts/lottery.sol\":233:249  deleteAllPlayers */\n  shl(0x20, tag_5)\n    /* \"contracts/lottery.sol\":233:251  deleteAllPlayers() */\n  0x20\n  shr\n  jump\t// in\ntag_4:\n    /* \"contracts/lottery.sol\":73:1451  contract Lottery{\r... */\n  jump(tag_6)\n    /* \"contracts/lottery.sol\":1295:1448  function deleteAllPlayers() private {\r... */\ntag_5:\n    /* \"contracts/lottery.sol\":1342:1348  uint j */\n  0x00\n    /* \"contracts/lottery.sol\":1351:1358  players */\n  dup1\n    /* \"contracts/lottery.sol\":1351:1365  players.length */\n  dup1\n  sload\n  swap1\n  pop\n    /* \"contracts/lottery.sol\":1342:1365  uint j = players.length */\n  swap1\n  pop\n    /* \"contracts/lottery.sol\":1380:1386  uint i */\n  0x00\n    /* \"contracts/lottery.sol\":1376:1441  for(uint i = 0; i<j; i++){\r... */\ntag_8:\n    /* \"contracts/lottery.sol\":1394:1395  j */\n  dup2\n    /* \"contracts/lottery.sol\":1392:1393  i */\n  dup2\n    /* \"contracts/lottery.sol\":1392:1395  i<j */\n  lt\n    /* \"contracts/lottery.sol\":1376:1441  for(uint i = 0; i<j; i++){\r... */\n  iszero\n  tag_9\n  jumpi\n    /* \"contracts/lottery.sol\":1416:1423  players */\n  0x00\n    /* \"contracts/lottery.sol\":1416:1429  players.pop() */\n  dup1\n  sload\n  dup1\n  tag_11\n  jumpi\n  tag_12\n  tag_13\n  jump\t// in\ntag_12:\ntag_11:\n  0x01\n  swap1\n  sub\n  dup2\n  dup2\n  swap1\n  0x00\n  mstore\n  keccak256(0x00, 0x20)\n  add\n  exp(0x0100, 0x00)\n  dup2\n  sload\n  swap1\n  0xffffffffffffffffffffffffffffffffffffffff\n  mul\n  not\n  and\n  swap1\n  sstore\n  swap1\n  sstore\n    /* \"contracts/lottery.sol\":1397:1400  i++ */\n  dup1\n  dup1\n  tag_15\n  swap1\n  tag_16\n  jump\t// in\ntag_15:\n  swap2\n  pop\n  pop\n    /* \"contracts/lottery.sol\":1376:1441  for(uint i = 0; i<j; i++){\r... */\n  jump(tag_8)\ntag_9:\n  pop\n    /* \"contracts/lottery.sol\":1331:1448  {\r... */\n  pop\n    /* \"contracts/lottery.sol\":1295:1448  function deleteAllPlayers() private {\r... */\n  jump\t// out\n    /* \"#utility.yul\":7:84   */\ntag_18:\n    /* \"#utility.yul\":44:51   */\n  0x00\n    /* \"#utility.yul\":73:78   */\n  dup2\n    /* \"#utility.yul\":62:78   */\n  swap1\n  pop\n    /* \"#utility.yul\":7:84   */\n  swap2\n  swap1\n  pop\n  jump\t// out\n    /* \"#utility.yul\":90:323   */\ntag_16:\n    /* \"#utility.yul\":129:132   */\n  0x00\n    /* \"#utility.yul\":152:176   */\n  tag_21\n    /* \"#utility.yul\":170:175   */\n  dup3\n    /* \"#utility.yul\":152:176   */\n  tag_18\n  jump\t// in\ntag_21:\n    /* \"#utility.yul\":143:176   */\n  swap2\n  pop\n    /* \"#utility.yul\":198:264   */\n  0xffffffffffffffffffffffffffffffffffffffffffffffffffffffffffffffff\n    /* \"#utility.yul\":191:196   */\n  dup3\n    /* \"#utility.yul\":188:265   */\n  eq\n    /* \"#utility.yul\":185:288   */\n  iszero\n  tag_22\n  jumpi\n    /* \"#utility.yul\":268:286   */\n  tag_23\n  tag_24\n  jump\t// in\ntag_23:\n    /* \"#utility.yul\":185:288   */\ntag_22:\n    /* \"#utility.yul\":315:316   */\n  0x01\n    /* \"#utility.yul\":308:313   */\n  dup3\n    /* \"#utility.yul\":304:317   */\n  add\n    /* \"#utility.yul\":297:317   */\n  swap1\n  pop\n    /* \"#utility.yul\":90:323   */\n  swap2\n  swap1\n  pop\n  jump\t// out\n    /* \"#utility.yul\":329:509   */\ntag_24:\n    /* \"#utility.yul\":377:454   */\n  0x4e487b7100000000000000000000000000000000000000000000000000000000\n    /* \"#utility.yul\":374:375   */\n  0x00\n    /* \"#utility.yul\":367:455   */\n  mstore\n    /* \"#utility.yul\":474:478   */\n  0x11\n    /* \"#utility.yul\":471:472   */\n  0x04\n    /* \"#utility.yul\":464:479   */\n  mstore\n    /* \"#utility.yul\":498:502   */\n  0x24\n    /* \"#utility.yul\":495:496   */\n  0x00\n    /* \"#utility.yul\":488:503   */\n  revert\n    /* \"#utility.yul\":515:695   */\ntag_13:\n    /* \"#utility.yul\":563:640   */\n  0x4e487b7100000000000000000000000000000000000000000000000000000000\n    /* \"#utility.yul\":560:561   */\n  0x00\n    /* \"#utility.yul\":553:641   */\n  mstore\n    /* \"#utility.yul\":660:664   */\n  0x31\n    /* \"#utility.yul\":657:658   */\n  0x04\n    /* \"#utility.yul\":650:665   */\n  mstore\n    /* \"#utility.yul\":684:688   */\n  0x24\n    /* \"#utility.yul\":681:682   */\n  0x00\n    /* \"#utility.yul\":674:689   */\n  revert\n    /* \"contracts/lottery.sol\":73:1451  contract Lottery{\r... */\ntag_6:\n  shr(0x60, mload(0x80))\n  codecopy(0x00, dataOffset(sub_0), dataSize(sub_0))\n  0x00\n  assignImmutable(\"0x2a80e1ef1d7842f27f2e6be0972bb708b9a135c38860dbe73c27c3486c34f4de\")\n  return(0x00, dataSize(sub_0))\nstop\n\nsub_0: assembly {\n        /* \"contracts/lottery.sol\":73:1451  contract Lottery{\r... */\n      mstore(0x40, 0x80)\n      jumpi(tag_1, lt(calldatasize, 0x04))\n      shr(0xe0, calldataload(0x00))\n      dup1\n      0x10c5762e\n      eq\n      tag_3\n      jumpi\n      dup1\n      0x12065fe0\n      eq\n      tag_4\n      jumpi\n      dup1\n      0x481c6a75\n      eq\n      tag_5\n      jumpi\n      dup1\n      0x5d495aea\n      eq\n      tag_6\n      jumpi\n      dup1\n      0x5ec01e4d\n      eq\n      tag_7\n      jumpi\n      dup1\n      0xf71d96cb\n      eq\n      tag_8\n      jumpi\n      jump(tag_2)\n    tag_1:\n      jumpi(tag_2, calldatasize)\n        /* \"contracts/lottery.sol\":325:334  0.1 ether */\n      0x016345785d8a0000\n        /* \"contracts/lottery.sol\":312:321  msg.value */\n      callvalue\n        /* \"contracts/lottery.sol\":312:334  msg.value == 0.1 ether */\n      eq\n        /* \"contracts/lottery.sol\":304:335  require(msg.value == 0.1 ether) */\n      tag_11\n      jumpi\n      0x00\n      dup1\n      revert\n    tag_11:\n        /* \"contracts/lottery.sol\":346:353  players */\n      0x00\n        /* \"contracts/lottery.sol\":367:377  msg.sender */\n      caller\n        /* \"contracts/lottery.sol\":346:379  players.push(payable(msg.sender)) */\n      swap1\n      dup1\n      0x01\n      dup2\n      sload\n      add\n      dup1\n      dup3\n      sstore\n      dup1\n      swap2\n      pop\n      pop\n      0x01\n      swap1\n      sub\n      swap1\n      0x00\n      mstore\n      keccak256(0x00, 0x20)\n      add\n      0x00\n      swap1\n      swap2\n      swap1\n      swap2\n      swap1\n      swap2\n      0x0100\n      exp\n      dup2\n      sload\n      dup2\n      0xffffffffffffffffffffffffffffffffffffffff\n      mul\n      not\n      and\n      swap1\n      dup4\n      0xffffffffffffffffffffffffffffffffffffffff\n      and\n      mul\n      or\n      swap1\n      sstore\n      pop\n        /* \"contracts/lottery.sol\":73:1451  contract Lottery{\r... */\n      stop\n    tag_2:\n        /* \"contracts/lottery.sol\":433:441  revert() */\n      0x00\n      dup1\n      revert\n        /* \"contracts/lottery.sol\":934:1097  function transferEthToWinner(address payable recipient, uint amount) public{\r... */\n    tag_3:\n      callvalue\n      dup1\n      iszero\n      tag_15\n      jumpi\n      0x00\n      dup1\n      revert\n    tag_15:\n      pop\n      tag_16\n      0x04\n      dup1\n      calldatasize\n      sub\n      dup2\n      add\n      swap1\n      tag_17\n      swap2\n      swap1\n      tag_18\n      jump\t// in\n    tag_17:\n      tag_19\n      jump\t// in\n    tag_16:\n      stop\n        /* \"contracts/lottery.sol\":457:592  function getBalance() public view returns(uint){\r... */\n    tag_4:\n      callvalue\n      dup1\n      iszero\n      tag_20\n      jumpi\n      0x00\n      dup1\n      revert\n    tag_20:\n      pop\n      tag_21\n      tag_22\n      jump\t// in\n    tag_21:\n      mload(0x40)\n      tag_23\n      swap2\n      swap1\n      tag_24\n      jump\t// in\n    tag_23:\n      mload(0x40)\n      dup1\n      swap2\n      sub\n      swap1\n      return\n        /* \"contracts/lottery.sol\":98:130  address public immutable manager */\n    tag_5:\n      callvalue\n      dup1\n      iszero\n      tag_25\n      jumpi\n      0x00\n      dup1\n      revert\n    tag_25:\n      pop\n      tag_26\n      tag_27\n      jump\t// in\n    tag_26:\n      mload(0x40)\n      tag_28\n      swap2\n      swap1\n      tag_29\n      jump\t// in\n    tag_28:\n      mload(0x40)\n      dup1\n      swap2\n      sub\n      swap1\n      return\n        /* \"contracts/lottery.sol\":600:926  function pickWinner() public{\r... */\n    tag_6:\n      callvalue\n      dup1\n      iszero\n      tag_30\n      jumpi\n      0x00\n      dup1\n      revert\n    tag_30:\n      pop\n      tag_31\n      tag_32\n      jump\t// in\n    tag_31:\n      stop\n        /* \"contracts/lottery.sol\":1134:1287  function random() public view returns(uint){\r... */\n    tag_7:\n      callvalue\n      dup1\n      iszero\n      tag_33\n      jumpi\n      0x00\n      dup1\n      revert\n    tag_33:\n      pop\n      tag_34\n      tag_35\n      jump\t// in\n    tag_34:\n      mload(0x40)\n      tag_36\n      swap2\n      swap1\n      tag_24\n      jump\t// in\n    tag_36:\n      mload(0x40)\n      dup1\n      swap2\n      sub\n      swap1\n      return\n        /* \"contracts/lottery.sol\":137:169  address payable[] public players */\n    tag_8:\n      callvalue\n      dup1\n      iszero\n      tag_37\n      jumpi\n      0x00\n      dup1\n      revert\n    tag_37:\n      pop\n      tag_38\n      0x04\n      dup1\n      calldatasize\n      sub\n      dup2\n      add\n      swap1\n      tag_39\n      swap2\n      swap1\n      tag_40\n      jump\t// in\n    tag_39:\n      tag_41\n      jump\t// in\n    tag_38:\n      mload(0x40)\n      tag_42\n      swap2\n      swap1\n      tag_43\n      jump\t// in\n    tag_42:\n      mload(0x40)\n      dup1\n      swap2\n      sub\n      swap1\n      return\n        /* \"contracts/lottery.sol\":934:1097  function transferEthToWinner(address payable recipient, uint amount) public{\r... */\n    tag_19:\n        /* \"contracts/lottery.sol\":1039:1049  msg.sender */\n      caller\n        /* \"contracts/lottery.sol\":1028:1049  manager == msg.sender */\n      0xffffffffffffffffffffffffffffffffffffffff\n      and\n        /* \"contracts/lottery.sol\":1028:1035  manager */\n      immutable(\"0x2a80e1ef1d7842f27f2e6be0972bb708b9a135c38860dbe73c27c3486c34f4de\")\n        /* \"contracts/lottery.sol\":1028:1049  manager == msg.sender */\n      0xffffffffffffffffffffffffffffffffffffffff\n      and\n      eq\n        /* \"contracts/lottery.sol\":1020:1050  require(manager == msg.sender) */\n      tag_45\n      jumpi\n      0x00\n      dup1\n      revert\n    tag_45:\n        /* \"contracts/lottery.sol\":1063:1072  recipient */\n      dup2\n        /* \"contracts/lottery.sol\":1063:1081  recipient.transfer */\n      0xffffffffffffffffffffffffffffffffffffffff\n      and\n        /* \"contracts/lottery.sol\":1063:1089  recipient.transfer(amount) */\n      0x08fc\n        /* \"contracts/lottery.sol\":1082:1088  amount */\n      dup3\n        /* \"contracts/lottery.sol\":1063:1089  recipient.transfer(amount) */\n      swap1\n      dup2\n      iszero\n      mul\n      swap1\n      mload(0x40)\n      0x00\n      mload(0x40)\n      dup1\n      dup4\n      sub\n      dup2\n      dup6\n      dup9\n      dup9\n      call\n      swap4\n      pop\n      pop\n      pop\n      pop\n      iszero\n      dup1\n      iszero\n      tag_47\n      jumpi\n      returndatasize\n      0x00\n      dup1\n      returndatacopy\n      revert(0x00, returndatasize)\n    tag_47:\n      pop\n        /* \"contracts/lottery.sol\":934:1097  function transferEthToWinner(address payable recipient, uint amount) public{\r... */\n      pop\n      pop\n      jump\t// out\n        /* \"contracts/lottery.sol\":457:592  function getBalance() public view returns(uint){\r... */\n    tag_22:\n        /* \"contracts/lottery.sol\":499:503  uint */\n      0x00\n        /* \"contracts/lottery.sol\":537:544  manager */\n      immutable(\"0x2a80e1ef1d7842f27f2e6be0972bb708b9a135c38860dbe73c27c3486c34f4de\")\n        /* \"contracts/lottery.sol\":523:544  msg.sender == manager */\n      0xffffffffffffffffffffffffffffffffffffffff\n      and\n        /* \"contracts/lottery.sol\":523:533  msg.sender */\n      caller\n        /* \"contracts/lottery.sol\":523:544  msg.sender == manager */\n      0xffffffffffffffffffffffffffffffffffffffff\n      and\n      eq\n        /* \"contracts/lottery.sol\":515:545  require(msg.sender == manager) */\n      tag_49\n      jumpi\n      0x00\n      dup1\n      revert\n    tag_49:\n        /* \"contracts/lottery.sol\":563:584  address(this).balance */\n      selfbalance\n        /* \"contracts/lottery.sol\":556:584  return address(this).balance */\n      swap1\n      pop\n        /* \"contracts/lottery.sol\":457:592  function getBalance() public view returns(uint){\r... */\n      swap1\n      jump\t// out\n        /* \"contracts/lottery.sol\":98:130  address public immutable manager */\n    tag_27:\n      immutable(\"0x2a80e1ef1d7842f27f2e6be0972bb708b9a135c38860dbe73c27c3486c34f4de\")\n      dup2\n      jump\t// out\n        /* \"contracts/lottery.sol\":600:926  function pickWinner() public{\r... */\n    tag_32:\n        /* \"contracts/lottery.sol\":658:668  msg.sender */\n      caller\n        /* \"contracts/lottery.sol\":647:668  manager == msg.sender */\n      0xffffffffffffffffffffffffffffffffffffffff\n      and\n        /* \"contracts/lottery.sol\":647:654  manager */\n      immutable(\"0x2a80e1ef1d7842f27f2e6be0972bb708b9a135c38860dbe73c27c3486c34f4de\")\n        /* \"contracts/lottery.sol\":647:668  manager == msg.sender */\n      0xffffffffffffffffffffffffffffffffffffffff\n      and\n      eq\n        /* \"contracts/lottery.sol\":639:669  require(manager == msg.sender) */\n      tag_51\n      jumpi\n      0x00\n      dup1\n      revert\n    tag_51:\n        /* \"contracts/lottery.sol\":701:702  3 */\n      0x03\n        /* \"contracts/lottery.sol\":683:690  players */\n      0x00\n        /* \"contracts/lottery.sol\":683:697  players.length */\n      dup1\n      sload\n      swap1\n      pop\n        /* \"contracts/lottery.sol\":683:702  players.length >= 3 */\n      lt\n        /* \"contracts/lottery.sol\":680:919  if(players.length >= 3){\r... */\n      tag_52\n      jumpi\n        /* \"contracts/lottery.sol\":718:727  uint rand */\n      0x00\n        /* \"contracts/lottery.sol\":741:748  players */\n      dup1\n        /* \"contracts/lottery.sol\":741:755  players.length */\n      dup1\n      sload\n      swap1\n      pop\n        /* \"contracts/lottery.sol\":730:738  random() */\n      tag_53\n        /* \"contracts/lottery.sol\":730:736  random */\n      tag_35\n        /* \"contracts/lottery.sol\":730:738  random() */\n      jump\t// in\n    tag_53:\n        /* \"contracts/lottery.sol\":730:755  random() % players.length */\n      tag_54\n      swap2\n      swap1\n      tag_55\n      jump\t// in\n    tag_54:\n        /* \"contracts/lottery.sol\":718:755  uint rand = random() % players.length */\n      swap1\n      pop\n        /* \"contracts/lottery.sol\":770:790  address payable addr */\n      0x00\n        /* \"contracts/lottery.sol\":793:800  players */\n      dup1\n        /* \"contracts/lottery.sol\":801:805  rand */\n      dup3\n        /* \"contracts/lottery.sol\":793:806  players[rand] */\n      dup2\n      sload\n      dup2\n      lt\n      tag_56\n      jumpi\n      tag_57\n      tag_58\n      jump\t// in\n    tag_57:\n    tag_56:\n      swap1\n      0x00\n      mstore\n      keccak256(0x00, 0x20)\n      add\n      0x00\n      swap1\n      sload\n      swap1\n      0x0100\n      exp\n      swap1\n      div\n      0xffffffffffffffffffffffffffffffffffffffff\n      and\n        /* \"contracts/lottery.sol\":770:806  address payable addr = players[rand] */\n      swap1\n      pop\n        /* \"contracts/lottery.sol\":835:874  transferEthToWinner(addr, getBalance()) */\n      tag_60\n        /* \"contracts/lottery.sol\":855:859  addr */\n      dup2\n        /* \"contracts/lottery.sol\":861:873  getBalance() */\n      tag_61\n        /* \"contracts/lottery.sol\":861:871  getBalance */\n      tag_22\n        /* \"contracts/lottery.sol\":861:873  getBalance() */\n      jump\t// in\n    tag_61:\n        /* \"contracts/lottery.sol\":835:854  transferEthToWinner */\n      tag_19\n        /* \"contracts/lottery.sol\":835:874  transferEthToWinner(addr, getBalance()) */\n      jump\t// in\n    tag_60:\n        /* \"contracts/lottery.sol\":889:907  deleteAllPlayers() */\n      tag_62\n        /* \"contracts/lottery.sol\":889:905  deleteAllPlayers */\n      tag_63\n        /* \"contracts/lottery.sol\":889:907  deleteAllPlayers() */\n      jump\t// in\n    tag_62:\n        /* \"contracts/lottery.sol\":703:919  {\r... */\n      pop\n      pop\n        /* \"contracts/lottery.sol\":680:919  if(players.length >= 3){\r... */\n    tag_52:\n        /* \"contracts/lottery.sol\":600:926  function pickWinner() public{\r... */\n      jump\t// out\n        /* \"contracts/lottery.sol\":1134:1287  function random() public view returns(uint){\r... */\n    tag_35:\n        /* \"contracts/lottery.sol\":1172:1176  uint */\n      0x00\n        /* \"contracts/lottery.sol\":1227:1243  block.difficulty */\n      difficulty\n        /* \"contracts/lottery.sol\":1245:1260  block.timestamp */\n      timestamp\n        /* \"contracts/lottery.sol\":1262:1269  players */\n      0x00\n        /* \"contracts/lottery.sol\":1262:1276  players.length */\n      dup1\n      sload\n      swap1\n      pop\n        /* \"contracts/lottery.sol\":1210:1277  abi.encodePacked(block.difficulty, block.timestamp, players.length) */\n      add(0x20, mload(0x40))\n      tag_65\n      swap4\n      swap3\n      swap2\n      swap1\n      tag_66\n      jump\t// in\n    tag_65:\n      mload(0x40)\n      0x20\n      dup2\n      dup4\n      sub\n      sub\n      dup2\n      mstore\n      swap1\n      0x40\n      mstore\n        /* \"contracts/lottery.sol\":1200:1278  keccak256(abi.encodePacked(block.difficulty, block.timestamp, players.length)) */\n      dup1\n      mload\n      swap1\n      0x20\n      add\n      keccak256\n        /* \"contracts/lottery.sol\":1195:1279  uint(keccak256(abi.encodePacked(block.difficulty, block.timestamp, players.length))) */\n      0x00\n      shr\n        /* \"contracts/lottery.sol\":1188:1279  return uint(keccak256(abi.encodePacked(block.difficulty, block.timestamp, players.length))) */\n      swap1\n      pop\n        /* \"contracts/lottery.sol\":1134:1287  function random() public view returns(uint){\r... */\n      swap1\n      jump\t// out\n        /* \"contracts/lottery.sol\":137:169  address payable[] public players */\n    tag_41:\n      0x00\n      dup2\n      dup2\n      sload\n      dup2\n      lt\n      tag_67\n      jumpi\n      0x00\n      dup1\n      revert\n    tag_67:\n      swap1\n      0x00\n      mstore\n      keccak256(0x00, 0x20)\n      add\n      0x00\n      swap2\n      pop\n      sload\n      swap1\n      0x0100\n      exp\n      swap1\n      div\n      0xffffffffffffffffffffffffffffffffffffffff\n      and\n      dup2\n      jump\t// out\n        /* \"contracts/lottery.sol\":1295:1448  function deleteAllPlayers() private {\r... */\n    tag_63:\n        /* \"contracts/lottery.sol\":1342:1348  uint j */\n      0x00\n        /* \"contracts/lottery.sol\":1351:1358  players */\n      dup1\n        /* \"contracts/lottery.sol\":1351:1365  players.length */\n      dup1\n      sload\n      swap1\n      pop\n        /* \"contracts/lottery.sol\":1342:1365  uint j = players.length */\n      swap1\n      pop\n        /* \"contracts/lottery.sol\":1380:1386  uint i */\n      0x00\n        /* \"contracts/lottery.sol\":1376:1441  for(uint i = 0; i<j; i++){\r... */\n    tag_70:\n        /* \"contracts/lottery.sol\":1394:1395  j */\n      dup2\n        /* \"contracts/lottery.sol\":1392:1393  i */\n      dup2\n        /* \"contracts/lottery.sol\":1392:1395  i<j */\n      lt\n        /* \"contracts/lottery.sol\":1376:1441  for(uint i = 0; i<j; i++){\r... */\n      iszero\n      tag_71\n      jumpi\n        /* \"contracts/lottery.sol\":1416:1423  players */\n      0x00\n        /* \"contracts/lottery.sol\":1416:1429  players.pop() */\n      dup1\n      sload\n      dup1\n      tag_73\n      jumpi\n      tag_74\n      tag_75\n      jump\t// in\n    tag_74:\n    tag_73:\n      0x01\n      swap1\n      sub\n      dup2\n      dup2\n      swap1\n      0x00\n      mstore\n      keccak256(0x00, 0x20)\n      add\n      exp(0x0100, 0x00)\n      dup2\n      sload\n      swap1\n      0xffffffffffffffffffffffffffffffffffffffff\n      mul\n      not\n      and\n      swap1\n      sstore\n      swap1\n      sstore\n        /* \"contracts/lottery.sol\":1397:1400  i++ */\n      dup1\n      dup1\n      tag_77\n      swap1\n      tag_78\n      jump\t// in\n    tag_77:\n      swap2\n      pop\n      pop\n        /* \"contracts/lottery.sol\":1376:1441  for(uint i = 0; i<j; i++){\r... */\n      jump(tag_70)\n    tag_71:\n      pop\n        /* \"contracts/lottery.sol\":1331:1448  {\r... */\n      pop\n        /* \"contracts/lottery.sol\":1295:1448  function deleteAllPlayers() private {\r... */\n      jump\t// out\n        /* \"#utility.yul\":7:162   */\n    tag_80:\n        /* \"#utility.yul\":61:66   */\n      0x00\n        /* \"#utility.yul\":99:105   */\n      dup2\n        /* \"#utility.yul\":86:106   */\n      calldataload\n        /* \"#utility.yul\":77:106   */\n      swap1\n      pop\n        /* \"#utility.yul\":115:156   */\n      tag_82\n        /* \"#utility.yul\":150:155   */\n      dup2\n        /* \"#utility.yul\":115:156   */\n      tag_83\n      jump\t// in\n    tag_82:\n        /* \"#utility.yul\":7:162   */\n      swap3\n      swap2\n      pop\n      pop\n      jump\t// out\n        /* \"#utility.yul\":168:307   */\n    tag_84:\n        /* \"#utility.yul\":214:219   */\n      0x00\n        /* \"#utility.yul\":252:258   */\n      dup2\n        /* \"#utility.yul\":239:259   */\n      calldataload\n        /* \"#utility.yul\":230:259   */\n      swap1\n      pop\n        /* \"#utility.yul\":268:301   */\n      tag_86\n        /* \"#utility.yul\":295:300   */\n      dup2\n        /* \"#utility.yul\":268:301   */\n      tag_87\n      jump\t// in\n    tag_86:\n        /* \"#utility.yul\":168:307   */\n      swap3\n      swap2\n      pop\n      pop\n      jump\t// out\n        /* \"#utility.yul\":313:803   */\n    tag_18:\n        /* \"#utility.yul\":389:395   */\n      0x00\n        /* \"#utility.yul\":397:403   */\n      dup1\n        /* \"#utility.yul\":446:448   */\n      0x40\n        /* \"#utility.yul\":434:443   */\n      dup4\n        /* \"#utility.yul\":425:432   */\n      dup6\n        /* \"#utility.yul\":421:444   */\n      sub\n        /* \"#utility.yul\":417:449   */\n      slt\n        /* \"#utility.yul\":414:533   */\n      iszero\n      tag_89\n      jumpi\n        /* \"#utility.yul\":452:531   */\n      tag_90\n      tag_91\n      jump\t// in\n    tag_90:\n        /* \"#utility.yul\":414:533   */\n    tag_89:\n        /* \"#utility.yul\":572:573   */\n      0x00\n        /* \"#utility.yul\":597:658   */\n      tag_92\n        /* \"#utility.yul\":650:657   */\n      dup6\n        /* \"#utility.yul\":641:647   */\n      dup3\n        /* \"#utility.yul\":630:639   */\n      dup7\n        /* \"#utility.yul\":626:648   */\n      add\n        /* \"#utility.yul\":597:658   */\n      tag_80\n      jump\t// in\n    tag_92:\n        /* \"#utility.yul\":587:658   */\n      swap3\n      pop\n        /* \"#utility.yul\":543:668   */\n      pop\n        /* \"#utility.yul\":707:709   */\n      0x20\n        /* \"#utility.yul\":733:786   */\n      tag_93\n        /* \"#utility.yul\":778:785   */\n      dup6\n        /* \"#utility.yul\":769:775   */\n      dup3\n        /* \"#utility.yul\":758:767   */\n      dup7\n        /* \"#utility.yul\":754:776   */\n      add\n        /* \"#utility.yul\":733:786   */\n      tag_84\n      jump\t// in\n    tag_93:\n        /* \"#utility.yul\":723:786   */\n      swap2\n      pop\n        /* \"#utility.yul\":678:796   */\n      pop\n        /* \"#utility.yul\":313:803   */\n      swap3\n      pop\n      swap3\n      swap1\n      pop\n      jump\t// out\n        /* \"#utility.yul\":809:1138   */\n    tag_40:\n        /* \"#utility.yul\":868:874   */\n      0x00\n        /* \"#utility.yul\":917:919   */\n      0x20\n        /* \"#utility.yul\":905:914   */\n      dup3\n        /* \"#utility.yul\":896:903   */\n      dup5\n        /* \"#utility.yul\":892:915   */\n      sub\n        /* \"#utility.yul\":888:920   */\n      slt\n        /* \"#utility.yul\":885:1004   */\n      iszero\n      tag_95\n      jumpi\n        /* \"#utility.yul\":923:1002   */\n      tag_96\n      tag_91\n      jump\t// in\n    tag_96:\n        /* \"#utility.yul\":885:1004   */\n    tag_95:\n        /* \"#utility.yul\":1043:1044   */\n      0x00\n        /* \"#utility.yul\":1068:1121   */\n      tag_97\n        /* \"#utility.yul\":1113:1120   */\n      dup5\n        /* \"#utility.yul\":1104:1110   */\n      dup3\n        /* \"#utility.yul\":1093:1102   */\n      dup6\n        /* \"#utility.yul\":1089:1111   */\n      add\n        /* \"#utility.yul\":1068:1121   */\n      tag_84\n      jump\t// in\n    tag_97:\n        /* \"#utility.yul\":1058:1121   */\n      swap2\n      pop\n        /* \"#utility.yul\":1014:1131   */\n      pop\n        /* \"#utility.yul\":809:1138   */\n      swap3\n      swap2\n      pop\n      pop\n      jump\t// out\n        /* \"#utility.yul\":1144:1286   */\n    tag_98:\n        /* \"#utility.yul\":1247:1279   */\n      tag_100\n        /* \"#utility.yul\":1273:1278   */\n      dup2\n        /* \"#utility.yul\":1247:1279   */\n      tag_101\n      jump\t// in\n    tag_100:\n        /* \"#utility.yul\":1242:1245   */\n      dup3\n        /* \"#utility.yul\":1235:1280   */\n      mstore\n        /* \"#utility.yul\":1144:1286   */\n      pop\n      pop\n      jump\t// out\n        /* \"#utility.yul\":1292:1410   */\n    tag_102:\n        /* \"#utility.yul\":1379:1403   */\n      tag_104\n        /* \"#utility.yul\":1397:1402   */\n      dup2\n        /* \"#utility.yul\":1379:1403   */\n      tag_105\n      jump\t// in\n    tag_104:\n        /* \"#utility.yul\":1374:1377   */\n      dup3\n        /* \"#utility.yul\":1367:1404   */\n      mstore\n        /* \"#utility.yul\":1292:1410   */\n      pop\n      pop\n      jump\t// out\n        /* \"#utility.yul\":1416:1534   */\n    tag_106:\n        /* \"#utility.yul\":1503:1527   */\n      tag_108\n        /* \"#utility.yul\":1521:1526   */\n      dup2\n        /* \"#utility.yul\":1503:1527   */\n      tag_109\n      jump\t// in\n    tag_108:\n        /* \"#utility.yul\":1498:1501   */\n      dup3\n        /* \"#utility.yul\":1491:1528   */\n      mstore\n        /* \"#utility.yul\":1416:1534   */\n      pop\n      pop\n      jump\t// out\n        /* \"#utility.yul\":1540:1697   */\n    tag_110:\n        /* \"#utility.yul\":1645:1690   */\n      tag_112\n        /* \"#utility.yul\":1665:1689   */\n      tag_113\n        /* \"#utility.yul\":1683:1688   */\n      dup3\n        /* \"#utility.yul\":1665:1689   */\n      tag_109\n      jump\t// in\n    tag_113:\n        /* \"#utility.yul\":1645:1690   */\n      tag_114\n      jump\t// in\n    tag_112:\n        /* \"#utility.yul\":1640:1643   */\n      dup3\n        /* \"#utility.yul\":1633:1691   */\n      mstore\n        /* \"#utility.yul\":1540:1697   */\n      pop\n      pop\n      jump\t// out\n        /* \"#utility.yul\":1703:2241   */\n    tag_66:\n        /* \"#utility.yul\":1871:1874   */\n      0x00\n        /* \"#utility.yul\":1886:1961   */\n      tag_116\n        /* \"#utility.yul\":1957:1960   */\n      dup3\n        /* \"#utility.yul\":1948:1954   */\n      dup7\n        /* \"#utility.yul\":1886:1961   */\n      tag_110\n      jump\t// in\n    tag_116:\n        /* \"#utility.yul\":1986:1988   */\n      0x20\n        /* \"#utility.yul\":1981:1984   */\n      dup3\n        /* \"#utility.yul\":1977:1989   */\n      add\n        /* \"#utility.yul\":1970:1989   */\n      swap2\n      pop\n        /* \"#utility.yul\":1999:2074   */\n      tag_117\n        /* \"#utility.yul\":2070:2073   */\n      dup3\n        /* \"#utility.yul\":2061:2067   */\n      dup6\n        /* \"#utility.yul\":1999:2074   */\n      tag_110\n      jump\t// in\n    tag_117:\n        /* \"#utility.yul\":2099:2101   */\n      0x20\n        /* \"#utility.yul\":2094:2097   */\n      dup3\n        /* \"#utility.yul\":2090:2102   */\n      add\n        /* \"#utility.yul\":2083:2102   */\n      swap2\n      pop\n        /* \"#utility.yul\":2112:2187   */\n      tag_118\n        /* \"#utility.yul\":2183:2186   */\n      dup3\n        /* \"#utility.yul\":2174:2180   */\n      dup5\n        /* \"#utility.yul\":2112:2187   */\n      tag_110\n      jump\t// in\n    tag_118:\n        /* \"#utility.yul\":2212:2214   */\n      0x20\n        /* \"#utility.yul\":2207:2210   */\n      dup3\n        /* \"#utility.yul\":2203:2215   */\n      add\n        /* \"#utility.yul\":2196:2215   */\n      swap2\n      pop\n        /* \"#utility.yul\":2232:2235   */\n      dup2\n        /* \"#utility.yul\":2225:2235   */\n      swap1\n      pop\n        /* \"#utility.yul\":1703:2241   */\n      swap5\n      swap4\n      pop\n      pop\n      pop\n      pop\n      jump\t// out\n        /* \"#utility.yul\":2247:2469   */\n    tag_29:\n        /* \"#utility.yul\":2340:2344   */\n      0x00\n        /* \"#utility.yul\":2378:2380   */\n      0x20\n        /* \"#utility.yul\":2367:2376   */\n      dup3\n        /* \"#utility.yul\":2363:2381   */\n      add\n        /* \"#utility.yul\":2355:2381   */\n      swap1\n      pop\n        /* \"#utility.yul\":2391:2462   */\n      tag_120\n        /* \"#utility.yul\":2459:2460   */\n      0x00\n        /* \"#utility.yul\":2448:2457   */\n      dup4\n        /* \"#utility.yul\":2444:2461   */\n      add\n        /* \"#utility.yul\":2435:2441   */\n      dup5\n        /* \"#utility.yul\":2391:2462   */\n      tag_102\n      jump\t// in\n    tag_120:\n        /* \"#utility.yul\":2247:2469   */\n      swap3\n      swap2\n      pop\n      pop\n      jump\t// out\n        /* \"#utility.yul\":2475:2729   */\n    tag_43:\n        /* \"#utility.yul\":2584:2588   */\n      0x00\n        /* \"#utility.yul\":2622:2624   */\n      0x20\n        /* \"#utility.yul\":2611:2620   */\n      dup3\n        /* \"#utility.yul\":2607:2625   */\n      add\n        /* \"#utility.yul\":2599:2625   */\n      swap1\n      pop\n        /* \"#utility.yul\":2635:2722   */\n      tag_122\n        /* \"#utility.yul\":2719:2720   */\n      0x00\n        /* \"#utility.yul\":2708:2717   */\n      dup4\n        /* \"#utility.yul\":2704:2721   */\n      add\n        /* \"#utility.yul\":2695:2701   */\n      dup5\n        /* \"#utility.yul\":2635:2722   */\n      tag_98\n      jump\t// in\n    tag_122:\n        /* \"#utility.yul\":2475:2729   */\n      swap3\n      swap2\n      pop\n      pop\n      jump\t// out\n        /* \"#utility.yul\":2735:2957   */\n    tag_24:\n        /* \"#utility.yul\":2828:2832   */\n      0x00\n        /* \"#utility.yul\":2866:2868   */\n      0x20\n        /* \"#utility.yul\":2855:2864   */\n      dup3\n        /* \"#utility.yul\":2851:2869   */\n      add\n        /* \"#utility.yul\":2843:2869   */\n      swap1\n      pop\n        /* \"#utility.yul\":2879:2950   */\n      tag_124\n        /* \"#utility.yul\":2947:2948   */\n      0x00\n        /* \"#utility.yul\":2936:2945   */\n      dup4\n        /* \"#utility.yul\":2932:2949   */\n      add\n        /* \"#utility.yul\":2923:2929   */\n      dup5\n        /* \"#utility.yul\":2879:2950   */\n      tag_106\n      jump\t// in\n    tag_124:\n        /* \"#utility.yul\":2735:2957   */\n      swap3\n      swap2\n      pop\n      pop\n      jump\t// out\n        /* \"#utility.yul\":3044:3140   */\n    tag_105:\n        /* \"#utility.yul\":3081:3088   */\n      0x00\n        /* \"#utility.yul\":3110:3134   */\n      tag_128\n        /* \"#utility.yul\":3128:3133   */\n      dup3\n        /* \"#utility.yul\":3110:3134   */\n      tag_129\n      jump\t// in\n    tag_128:\n        /* \"#utility.yul\":3099:3134   */\n      swap1\n      pop\n        /* \"#utility.yul\":3044:3140   */\n      swap2\n      swap1\n      pop\n      jump\t// out\n        /* \"#utility.yul\":3146:3250   */\n    tag_101:\n        /* \"#utility.yul\":3191:3198   */\n      0x00\n        /* \"#utility.yul\":3220:3244   */\n      tag_131\n        /* \"#utility.yul\":3238:3243   */\n      dup3\n        /* \"#utility.yul\":3220:3244   */\n      tag_129\n      jump\t// in\n    tag_131:\n        /* \"#utility.yul\":3209:3244   */\n      swap1\n      pop\n        /* \"#utility.yul\":3146:3250   */\n      swap2\n      swap1\n      pop\n      jump\t// out\n        /* \"#utility.yul\":3256:3382   */\n    tag_129:\n        /* \"#utility.yul\":3293:3300   */\n      0x00\n        /* \"#utility.yul\":3333:3375   */\n      0xffffffffffffffffffffffffffffffffffffffff\n        /* \"#utility.yul\":3326:3331   */\n      dup3\n        /* \"#utility.yul\":3322:3376   */\n      and\n        /* \"#utility.yul\":3311:3376   */\n      swap1\n      pop\n        /* \"#utility.yul\":3256:3382   */\n      swap2\n      swap1\n      pop\n      jump\t// out\n        /* \"#utility.yul\":3388:3465   */\n    tag_109:\n        /* \"#utility.yul\":3425:3432   */\n      0x00\n        /* \"#utility.yul\":3454:3459   */\n      dup2\n        /* \"#utility.yul\":3443:3459   */\n      swap1\n      pop\n        /* \"#utility.yul\":3388:3465   */\n      swap2\n      swap1\n      pop\n      jump\t// out\n        /* \"#utility.yul\":3471:3704   */\n    tag_78:\n        /* \"#utility.yul\":3510:3513   */\n      0x00\n        /* \"#utility.yul\":3533:3557   */\n      tag_135\n        /* \"#utility.yul\":3551:3556   */\n      dup3\n        /* \"#utility.yul\":3533:3557   */\n      tag_109\n      jump\t// in\n    tag_135:\n        /* \"#utility.yul\":3524:3557   */\n      swap2\n      pop\n        /* \"#utility.yul\":3579:3645   */\n      0xffffffffffffffffffffffffffffffffffffffffffffffffffffffffffffffff\n        /* \"#utility.yul\":3572:3577   */\n      dup3\n        /* \"#utility.yul\":3569:3646   */\n      eq\n        /* \"#utility.yul\":3566:3669   */\n      iszero\n      tag_136\n      jumpi\n        /* \"#utility.yul\":3649:3667   */\n      tag_137\n      tag_138\n      jump\t// in\n    tag_137:\n        /* \"#utility.yul\":3566:3669   */\n    tag_136:\n        /* \"#utility.yul\":3696:3697   */\n      0x01\n        /* \"#utility.yul\":3689:3694   */\n      dup3\n        /* \"#utility.yul\":3685:3698   */\n      add\n        /* \"#utility.yul\":3678:3698   */\n      swap1\n      pop\n        /* \"#utility.yul\":3471:3704   */\n      swap2\n      swap1\n      pop\n      jump\t// out\n        /* \"#utility.yul\":3710:3789   */\n    tag_114:\n        /* \"#utility.yul\":3749:3756   */\n      0x00\n        /* \"#utility.yul\":3778:3783   */\n      dup2\n        /* \"#utility.yul\":3767:3783   */\n      swap1\n      pop\n        /* \"#utility.yul\":3710:3789   */\n      swap2\n      swap1\n      pop\n      jump\t// out\n        /* \"#utility.yul\":3795:3971   */\n    tag_55:\n        /* \"#utility.yul\":3827:3828   */\n      0x00\n        /* \"#utility.yul\":3844:3864   */\n      tag_141\n        /* \"#utility.yul\":3862:3863   */\n      dup3\n        /* \"#utility.yul\":3844:3864   */\n      tag_109\n      jump\t// in\n    tag_141:\n        /* \"#utility.yul\":3839:3864   */\n      swap2\n      pop\n        /* \"#utility.yul\":3878:3898   */\n      tag_142\n        /* \"#utility.yul\":3896:3897   */\n      dup4\n        /* \"#utility.yul\":3878:3898   */\n      tag_109\n      jump\t// in\n    tag_142:\n        /* \"#utility.yul\":3873:3898   */\n      swap3\n      pop\n        /* \"#utility.yul\":3917:3918   */\n      dup3\n        /* \"#utility.yul\":3907:3942   */\n      tag_143\n      jumpi\n        /* \"#utility.yul\":3922:3940   */\n      tag_144\n      tag_145\n      jump\t// in\n    tag_144:\n        /* \"#utility.yul\":3907:3942   */\n    tag_143:\n        /* \"#utility.yul\":3963:3964   */\n      dup3\n        /* \"#utility.yul\":3960:3961   */\n      dup3\n        /* \"#utility.yul\":3956:3965   */\n      mod\n        /* \"#utility.yul\":3951:3965   */\n      swap1\n      pop\n        /* \"#utility.yul\":3795:3971   */\n      swap3\n      swap2\n      pop\n      pop\n      jump\t// out\n        /* \"#utility.yul\":3977:4157   */\n    tag_138:\n        /* \"#utility.yul\":4025:4102   */\n      0x4e487b7100000000000000000000000000000000000000000000000000000000\n        /* \"#utility.yul\":4022:4023   */\n      0x00\n        /* \"#utility.yul\":4015:4103   */\n      mstore\n        /* \"#utility.yul\":4122:4126   */\n      0x11\n        /* \"#utility.yul\":4119:4120   */\n      0x04\n        /* \"#utility.yul\":4112:4127   */\n      mstore\n        /* \"#utility.yul\":4146:4150   */\n      0x24\n        /* \"#utility.yul\":4143:4144   */\n      0x00\n        /* \"#utility.yul\":4136:4151   */\n      revert\n        /* \"#utility.yul\":4163:4343   */\n    tag_145:\n        /* \"#utility.yul\":4211:4288   */\n      0x4e487b7100000000000000000000000000000000000000000000000000000000\n        /* \"#utility.yul\":4208:4209   */\n      0x00\n        /* \"#utility.yul\":4201:4289   */\n      mstore\n        /* \"#utility.yul\":4308:4312   */\n      0x12\n        /* \"#utility.yul\":4305:4306   */\n      0x04\n        /* \"#utility.yul\":4298:4313   */\n      mstore\n        /* \"#utility.yul\":4332:4336   */\n      0x24\n        /* \"#utility.yul\":4329:4330   */\n      0x00\n        /* \"#utility.yul\":4322:4337   */\n      revert\n        /* \"#utility.yul\":4349:4529   */\n    tag_75:\n        /* \"#utility.yul\":4397:4474   */\n      0x4e487b7100000000000000000000000000000000000000000000000000000000\n        /* \"#utility.yul\":4394:4395   */\n      0x00\n        /* \"#utility.yul\":4387:4475   */\n      mstore\n        /* \"#utility.yul\":4494:4498   */\n      0x31\n        /* \"#utility.yul\":4491:4492   */\n      0x04\n        /* \"#utility.yul\":4484:4499   */\n      mstore\n        /* \"#utility.yul\":4518:4522   */\n      0x24\n        /* \"#utility.yul\":4515:4516   */\n      0x00\n        /* \"#utility.yul\":4508:4523   */\n      revert\n        /* \"#utility.yul\":4535:4715   */\n    tag_58:\n        /* \"#utility.yul\":4583:4660   */\n      0x4e487b7100000000000000000000000000000000000000000000000000000000\n        /* \"#utility.yul\":4580:4581   */\n      0x00\n        /* \"#utility.yul\":4573:4661   */\n      mstore\n        /* \"#utility.yul\":4680:4684   */\n      0x32\n        /* \"#utility.yul\":4677:4678   */\n      0x04\n        /* \"#utility.yul\":4670:4685   */\n      mstore\n        /* \"#utility.yul\":4704:4708   */\n      0x24\n        /* \"#utility.yul\":4701:4702   */\n      0x00\n        /* \"#utility.yul\":4694:4709   */\n      revert\n        /* \"#utility.yul\":4844:4961   */\n    tag_91:\n        /* \"#utility.yul\":4953:4954   */\n      0x00\n        /* \"#utility.yul\":4950:4951   */\n      dup1\n        /* \"#utility.yul\":4943:4955   */\n      revert\n        /* \"#utility.yul\":4967:5105   */\n    tag_83:\n        /* \"#utility.yul\":5048:5080   */\n      tag_154\n        /* \"#utility.yul\":5074:5079   */\n      dup2\n        /* \"#utility.yul\":5048:5080   */\n      tag_101\n      jump\t// in\n    tag_154:\n        /* \"#utility.yul\":5041:5046   */\n      dup2\n        /* \"#utility.yul\":5038:5081   */\n      eq\n        /* \"#utility.yul\":5028:5099   */\n      tag_155\n      jumpi\n        /* \"#utility.yul\":5095:5096   */\n      0x00\n        /* \"#utility.yul\":5092:5093   */\n      dup1\n        /* \"#utility.yul\":5085:5097   */\n      revert\n        /* \"#utility.yul\":5028:5099   */\n    tag_155:\n        /* \"#utility.yul\":4967:5105   */\n      pop\n      jump\t// out\n        /* \"#utility.yul\":5111:5233   */\n    tag_87:\n        /* \"#utility.yul\":5184:5208   */\n      tag_157\n        /* \"#utility.yul\":5202:5207   */\n      dup2\n        /* \"#utility.yul\":5184:5208   */\n      tag_109\n      jump\t// in\n    tag_157:\n        /* \"#utility.yul\":5177:5182   */\n      dup2\n        /* \"#utility.yul\":5174:5209   */\n      eq\n        /* \"#utility.yul\":5164:5227   */\n      tag_158\n      jumpi\n        /* \"#utility.yul\":5223:5224   */\n      0x00\n        /* \"#utility.yul\":5220:5221   */\n      dup1\n        /* \"#utility.yul\":5213:5225   */\n      revert\n        /* \"#utility.yul\":5164:5227   */\n    tag_158:\n        /* \"#utility.yul\":5111:5233   */\n      pop\n      jump\t// out\n\n    auxdata: 0xa2646970667358221220a502c39f6df8004f20c9de0ad29e6bfa4ec9d6ad4f07d2b56cece064e40c650164736f6c63430008070033\n}\n",
				"bytecode": {
					"linkReferences": {},
					"object": "60a060405234801561001057600080fd5b503373ffffffffffffffffffffffffffffffffffffffff1660808173ffffffffffffffffffffffffffffffffffffffff1660601b8152505061005661005b60201b60201c565b61017e565b60008080549050905060005b818110156100c95760008054806100815761008061014f565b5b6001900381819060005260206000200160006101000a81549073ffffffffffffffffffffffffffffffffffffffff0219169055905580806100c1906100d7565b915050610067565b5050565b6000819050919050565b60006100e2826100cd565b91507fffffffffffffffffffffffffffffffffffffffffffffffffffffffffffffffff82141561011557610114610120565b5b600182019050919050565b7f4e487b7100000000000000000000000000000000000000000000000000000000600052601160045260246000fd5b7f4e487b7100000000000000000000000000000000000000000000000000000000600052603160045260246000fd5b60805160601c61082c6101b1600039600081816101f301528181610281015281816102df015261031a015261082c6000f3fe6080604052600436106100595760003560e01c806310c5762e146100dc57806312065fe014610105578063481c6a75146101305780635d495aea1461015b5780635ec01e4d14610172578063f71d96cb1461019d576100d7565b366100d75767016345785d8a0000341461007257600080fd5b6000339080600181540180825580915050600190039060005260206000200160009091909190916101000a81548173ffffffffffffffffffffffffffffffffffffffff021916908373ffffffffffffffffffffffffffffffffffffffff160217905550005b600080fd5b3480156100e857600080fd5b5061010360048036038101906100fe91906104f6565b6101da565b005b34801561011157600080fd5b5061011a61027d565b604051610127919061061a565b60405180910390f35b34801561013c57600080fd5b506101456102dd565b60405161015291906105e4565b60405180910390f35b34801561016757600080fd5b50610170610301565b005b34801561017e57600080fd5b506101876103e1565b604051610194919061061a565b60405180910390f35b3480156101a957600080fd5b506101c460048036038101906101bf9190610536565b61041b565b6040516101d191906105ff565b60405180910390f35b3373ffffffffffffffffffffffffffffffffffffffff167f000000000000000000000000000000000000000000000000000000000000000073ffffffffffffffffffffffffffffffffffffffff161461023257600080fd5b8173ffffffffffffffffffffffffffffffffffffffff166108fc829081150290604051600060405180830381858888f19350505050158015610278573d6000803e3d6000fd5b505050565b60007f000000000000000000000000000000000000000000000000000000000000000073ffffffffffffffffffffffffffffffffffffffff163373ffffffffffffffffffffffffffffffffffffffff16146102d757600080fd5b47905090565b7f000000000000000000000000000000000000000000000000000000000000000081565b3373ffffffffffffffffffffffffffffffffffffffff167f000000000000000000000000000000000000000000000000000000000000000073ffffffffffffffffffffffffffffffffffffffff161461035957600080fd5b6003600080549050106103df57600080805490506103756103e1565b61037f91906106d6565b9050600080828154811061039657610395610794565b5b9060005260206000200160009054906101000a900473ffffffffffffffffffffffffffffffffffffffff1690506103d4816103cf61027d565b6101da565b6103dc61045a565b50505b565b600044426000805490506040516020016103fd939291906105a7565b6040516020818303038152906040528051906020012060001c905090565b6000818154811061042b57600080fd5b906000526020600020016000915054906101000a900473ffffffffffffffffffffffffffffffffffffffff1681565b60008080549050905060005b818110156104c85760008054806104805761047f610765565b5b6001900381819060005260206000200160006101000a81549073ffffffffffffffffffffffffffffffffffffffff0219169055905580806104c090610683565b915050610466565b5050565b6000813590506104db816107c8565b92915050565b6000813590506104f0816107df565b92915050565b6000806040838503121561050d5761050c6107c3565b5b600061051b858286016104cc565b925050602061052c858286016104e1565b9150509250929050565b60006020828403121561054c5761054b6107c3565b5b600061055a848285016104e1565b91505092915050565b61056c81610647565b82525050565b61057b81610635565b82525050565b61058a81610679565b82525050565b6105a161059c82610679565b6106cc565b82525050565b60006105b38286610590565b6020820191506105c38285610590565b6020820191506105d38284610590565b602082019150819050949350505050565b60006020820190506105f96000830184610572565b92915050565b60006020820190506106146000830184610563565b92915050565b600060208201905061062f6000830184610581565b92915050565b600061064082610659565b9050919050565b600061065282610659565b9050919050565b600073ffffffffffffffffffffffffffffffffffffffff82169050919050565b6000819050919050565b600061068e82610679565b91507fffffffffffffffffffffffffffffffffffffffffffffffffffffffffffffffff8214156106c1576106c0610707565b5b600182019050919050565b6000819050919050565b60006106e182610679565b91506106ec83610679565b9250826106fc576106fb610736565b5b828206905092915050565b7f4e487b7100000000000000000000000000000000000000000000000000000000600052601160045260246000fd5b7f4e487b7100000000000000000000000000000000000000000000000000000000600052601260045260246000fd5b7f4e487b7100000000000000000000000000000000000000000000000000000000600052603160045260246000fd5b7f4e487b7100000000000000000000000000000000000000000000000000000000600052603260045260246000fd5b600080fd5b6107d181610647565b81146107dc57600080fd5b50565b6107e881610679565b81146107f357600080fd5b5056fea2646970667358221220a502c39f6df8004f20c9de0ad29e6bfa4ec9d6ad4f07d2b56cece064e40c650164736f6c63430008070033",
					"opcodes": "PUSH1 0xA0 PUSH1 0x40 MSTORE CALLVALUE DUP1 ISZERO PUSH2 0x10 JUMPI PUSH1 0x0 DUP1 REVERT JUMPDEST POP CALLER PUSH20 0xFFFFFFFFFFFFFFFFFFFFFFFFFFFFFFFFFFFFFFFF AND PUSH1 0x80 DUP2 PUSH20 0xFFFFFFFFFFFFFFFFFFFFFFFFFFFFFFFFFFFFFFFF AND PUSH1 0x60 SHL DUP2 MSTORE POP POP PUSH2 0x56 PUSH2 0x5B PUSH1 0x20 SHL PUSH1 0x20 SHR JUMP JUMPDEST PUSH2 0x17E JUMP JUMPDEST PUSH1 0x0 DUP1 DUP1 SLOAD SWAP1 POP SWAP1 POP PUSH1 0x0 JUMPDEST DUP2 DUP2 LT ISZERO PUSH2 0xC9 JUMPI PUSH1 0x0 DUP1 SLOAD DUP1 PUSH2 0x81 JUMPI PUSH2 0x80 PUSH2 0x14F JUMP JUMPDEST JUMPDEST PUSH1 0x1 SWAP1 SUB DUP2 DUP2 SWAP1 PUSH1 0x0 MSTORE PUSH1 0x20 PUSH1 0x0 KECCAK256 ADD PUSH1 0x0 PUSH2 0x100 EXP DUP2 SLOAD SWAP1 PUSH20 0xFFFFFFFFFFFFFFFFFFFFFFFFFFFFFFFFFFFFFFFF MUL NOT AND SWAP1 SSTORE SWAP1 SSTORE DUP1 DUP1 PUSH2 0xC1 SWAP1 PUSH2 0xD7 JUMP JUMPDEST SWAP2 POP POP PUSH2 0x67 JUMP JUMPDEST POP POP JUMP JUMPDEST PUSH1 0x0 DUP2 SWAP1 POP SWAP2 SWAP1 POP JUMP JUMPDEST PUSH1 0x0 PUSH2 0xE2 DUP3 PUSH2 0xCD JUMP JUMPDEST SWAP2 POP PUSH32 0xFFFFFFFFFFFFFFFFFFFFFFFFFFFFFFFFFFFFFFFFFFFFFFFFFFFFFFFFFFFFFFFF DUP3 EQ ISZERO PUSH2 0x115 JUMPI PUSH2 0x114 PUSH2 0x120 JUMP JUMPDEST JUMPDEST PUSH1 0x1 DUP3 ADD SWAP1 POP SWAP2 SWAP1 POP JUMP JUMPDEST PUSH32 0x4E487B7100000000000000000000000000000000000000000000000000000000 PUSH1 0x0 MSTORE PUSH1 0x11 PUSH1 0x4 MSTORE PUSH1 0x24 PUSH1 0x0 REVERT JUMPDEST PUSH32 0x4E487B7100000000000000000000000000000000000000000000000000000000 PUSH1 0x0 MSTORE PUSH1 0x31 PUSH1 0x4 MSTORE PUSH1 0x24 PUSH1 0x0 REVERT JUMPDEST PUSH1 0x80 MLOAD PUSH1 0x60 SHR PUSH2 0x82C PUSH2 0x1B1 PUSH1 0x0 CODECOPY PUSH1 0x0 DUP2 DUP2 PUSH2 0x1F3 ADD MSTORE DUP2 DUP2 PUSH2 0x281 ADD MSTORE DUP2 DUP2 PUSH2 0x2DF ADD MSTORE PUSH2 0x31A ADD MSTORE PUSH2 0x82C PUSH1 0x0 RETURN INVALID PUSH1 0x80 PUSH1 0x40 MSTORE PUSH1 0x4 CALLDATASIZE LT PUSH2 0x59 JUMPI PUSH1 0x0 CALLDATALOAD PUSH1 0xE0 SHR DUP1 PUSH4 0x10C5762E EQ PUSH2 0xDC JUMPI DUP1 PUSH4 0x12065FE0 EQ PUSH2 0x105 JUMPI DUP1 PUSH4 0x481C6A75 EQ PUSH2 0x130 JUMPI DUP1 PUSH4 0x5D495AEA EQ PUSH2 0x15B JUMPI DUP1 PUSH4 0x5EC01E4D EQ PUSH2 0x172 JUMPI DUP1 PUSH4 0xF71D96CB EQ PUSH2 0x19D JUMPI PUSH2 0xD7 JUMP JUMPDEST CALLDATASIZE PUSH2 0xD7 JUMPI PUSH8 0x16345785D8A0000 CALLVALUE EQ PUSH2 0x72 JUMPI PUSH1 0x0 DUP1 REVERT JUMPDEST PUSH1 0x0 CALLER SWAP1 DUP1 PUSH1 0x1 DUP2 SLOAD ADD DUP1 DUP3 SSTORE DUP1 SWAP2 POP POP PUSH1 0x1 SWAP1 SUB SWAP1 PUSH1 0x0 MSTORE PUSH1 0x20 PUSH1 0x0 KECCAK256 ADD PUSH1 0x0 SWAP1 SWAP2 SWAP1 SWAP2 SWAP1 SWAP2 PUSH2 0x100 EXP DUP2 SLOAD DUP2 PUSH20 0xFFFFFFFFFFFFFFFFFFFFFFFFFFFFFFFFFFFFFFFF MUL NOT AND SWAP1 DUP4 PUSH20 0xFFFFFFFFFFFFFFFFFFFFFFFFFFFFFFFFFFFFFFFF AND MUL OR SWAP1 SSTORE POP STOP JUMPDEST PUSH1 0x0 DUP1 REVERT JUMPDEST CALLVALUE DUP1 ISZERO PUSH2 0xE8 JUMPI PUSH1 0x0 DUP1 REVERT JUMPDEST POP PUSH2 0x103 PUSH1 0x4 DUP1 CALLDATASIZE SUB DUP2 ADD SWAP1 PUSH2 0xFE SWAP2 SWAP1 PUSH2 0x4F6 JUMP JUMPDEST PUSH2 0x1DA JUMP JUMPDEST STOP JUMPDEST CALLVALUE DUP1 ISZERO PUSH2 0x111 JUMPI PUSH1 0x0 DUP1 REVERT JUMPDEST POP PUSH2 0x11A PUSH2 0x27D JUMP JUMPDEST PUSH1 0x40 MLOAD PUSH2 0x127 SWAP2 SWAP1 PUSH2 0x61A JUMP JUMPDEST PUSH1 0x40 MLOAD DUP1 SWAP2 SUB SWAP1 RETURN JUMPDEST CALLVALUE DUP1 ISZERO PUSH2 0x13C JUMPI PUSH1 0x0 DUP1 REVERT JUMPDEST POP PUSH2 0x145 PUSH2 0x2DD JUMP JUMPDEST PUSH1 0x40 MLOAD PUSH2 0x152 SWAP2 SWAP1 PUSH2 0x5E4 JUMP JUMPDEST PUSH1 0x40 MLOAD DUP1 SWAP2 SUB SWAP1 RETURN JUMPDEST CALLVALUE DUP1 ISZERO PUSH2 0x167 JUMPI PUSH1 0x0 DUP1 REVERT JUMPDEST POP PUSH2 0x170 PUSH2 0x301 JUMP JUMPDEST STOP JUMPDEST CALLVALUE DUP1 ISZERO PUSH2 0x17E JUMPI PUSH1 0x0 DUP1 REVERT JUMPDEST POP PUSH2 0x187 PUSH2 0x3E1 JUMP JUMPDEST PUSH1 0x40 MLOAD PUSH2 0x194 SWAP2 SWAP1 PUSH2 0x61A JUMP JUMPDEST PUSH1 0x40 MLOAD DUP1 SWAP2 SUB SWAP1 RETURN JUMPDEST CALLVALUE DUP1 ISZERO PUSH2 0x1A9 JUMPI PUSH1 0x0 DUP1 REVERT JUMPDEST POP PUSH2 0x1C4 PUSH1 0x4 DUP1 CALLDATASIZE SUB DUP2 ADD SWAP1 PUSH2 0x1BF SWAP2 SWAP1 PUSH2 0x536 JUMP JUMPDEST PUSH2 0x41B JUMP JUMPDEST PUSH1 0x40 MLOAD PUSH2 0x1D1 SWAP2 SWAP1 PUSH2 0x5FF JUMP JUMPDEST PUSH1 0x40 MLOAD DUP1 SWAP2 SUB SWAP1 RETURN JUMPDEST CALLER PUSH20 0xFFFFFFFFFFFFFFFFFFFFFFFFFFFFFFFFFFFFFFFF AND PUSH32 0x0 PUSH20 0xFFFFFFFFFFFFFFFFFFFFFFFFFFFFFFFFFFFFFFFF AND EQ PUSH2 0x232 JUMPI PUSH1 0x0 DUP1 REVERT JUMPDEST DUP2 PUSH20 0xFFFFFFFFFFFFFFFFFFFFFFFFFFFFFFFFFFFFFFFF AND PUSH2 0x8FC DUP3 SWAP1 DUP2 ISZERO MUL SWAP1 PUSH1 0x40 MLOAD PUSH1 0x0 PUSH1 0x40 MLOAD DUP1 DUP4 SUB DUP2 DUP6 DUP9 DUP9 CALL SWAP4 POP POP POP POP ISZERO DUP1 ISZERO PUSH2 0x278 JUMPI RETURNDATASIZE PUSH1 0x0 DUP1 RETURNDATACOPY RETURNDATASIZE PUSH1 0x0 REVERT JUMPDEST POP POP POP JUMP JUMPDEST PUSH1 0x0 PUSH32 0x0 PUSH20 0xFFFFFFFFFFFFFFFFFFFFFFFFFFFFFFFFFFFFFFFF AND CALLER PUSH20 0xFFFFFFFFFFFFFFFFFFFFFFFFFFFFFFFFFFFFFFFF AND EQ PUSH2 0x2D7 JUMPI PUSH1 0x0 DUP1 REVERT JUMPDEST SELFBALANCE SWAP1 POP SWAP1 JUMP JUMPDEST PUSH32 0x0 DUP2 JUMP JUMPDEST CALLER PUSH20 0xFFFFFFFFFFFFFFFFFFFFFFFFFFFFFFFFFFFFFFFF AND PUSH32 0x0 PUSH20 0xFFFFFFFFFFFFFFFFFFFFFFFFFFFFFFFFFFFFFFFF AND EQ PUSH2 0x359 JUMPI PUSH1 0x0 DUP1 REVERT JUMPDEST PUSH1 0x3 PUSH1 0x0 DUP1 SLOAD SWAP1 POP LT PUSH2 0x3DF JUMPI PUSH1 0x0 DUP1 DUP1 SLOAD SWAP1 POP PUSH2 0x375 PUSH2 0x3E1 JUMP JUMPDEST PUSH2 0x37F SWAP2 SWAP1 PUSH2 0x6D6 JUMP JUMPDEST SWAP1 POP PUSH1 0x0 DUP1 DUP3 DUP2 SLOAD DUP2 LT PUSH2 0x396 JUMPI PUSH2 0x395 PUSH2 0x794 JUMP JUMPDEST JUMPDEST SWAP1 PUSH1 0x0 MSTORE PUSH1 0x20 PUSH1 0x0 KECCAK256 ADD PUSH1 0x0 SWAP1 SLOAD SWAP1 PUSH2 0x100 EXP SWAP1 DIV PUSH20 0xFFFFFFFFFFFFFFFFFFFFFFFFFFFFFFFFFFFFFFFF AND SWAP1 POP PUSH2 0x3D4 DUP2 PUSH2 0x3CF PUSH2 0x27D JUMP JUMPDEST PUSH2 0x1DA JUMP JUMPDEST PUSH2 0x3DC PUSH2 0x45A JUMP JUMPDEST POP POP JUMPDEST JUMP JUMPDEST PUSH1 0x0 DIFFICULTY TIMESTAMP PUSH1 0x0 DUP1 SLOAD SWAP1 POP PUSH1 0x40 MLOAD PUSH1 0x20 ADD PUSH2 0x3FD SWAP4 SWAP3 SWAP2 SWAP1 PUSH2 0x5A7 JUMP JUMPDEST PUSH1 0x40 MLOAD PUSH1 0x20 DUP2 DUP4 SUB SUB DUP2 MSTORE SWAP1 PUSH1 0x40 MSTORE DUP1 MLOAD SWAP1 PUSH1 0x20 ADD KECCAK256 PUSH1 0x0 SHR SWAP1 POP SWAP1 JUMP JUMPDEST PUSH1 0x0 DUP2 DUP2 SLOAD DUP2 LT PUSH2 0x42B JUMPI PUSH1 0x0 DUP1 REVERT JUMPDEST SWAP1 PUSH1 0x0 MSTORE PUSH1 0x20 PUSH1 0x0 KECCAK256 ADD PUSH1 0x0 SWAP2 POP SLOAD SWAP1 PUSH2 0x100 EXP SWAP1 DIV PUSH20 0xFFFFFFFFFFFFFFFFFFFFFFFFFFFFFFFFFFFFFFFF AND DUP2 JUMP JUMPDEST PUSH1 0x0 DUP1 DUP1 SLOAD SWAP1 POP SWAP1 POP PUSH1 0x0 JUMPDEST DUP2 DUP2 LT ISZERO PUSH2 0x4C8 JUMPI PUSH1 0x0 DUP1 SLOAD DUP1 PUSH2 0x480 JUMPI PUSH2 0x47F PUSH2 0x765 JUMP JUMPDEST JUMPDEST PUSH1 0x1 SWAP1 SUB DUP2 DUP2 SWAP1 PUSH1 0x0 MSTORE PUSH1 0x20 PUSH1 0x0 KECCAK256 ADD PUSH1 0x0 PUSH2 0x100 EXP DUP2 SLOAD SWAP1 PUSH20 0xFFFFFFFFFFFFFFFFFFFFFFFFFFFFFFFFFFFFFFFF MUL NOT AND SWAP1 SSTORE SWAP1 SSTORE DUP1 DUP1 PUSH2 0x4C0 SWAP1 PUSH2 0x683 JUMP JUMPDEST SWAP2 POP POP PUSH2 0x466 JUMP JUMPDEST POP POP JUMP JUMPDEST PUSH1 0x0 DUP2 CALLDATALOAD SWAP1 POP PUSH2 0x4DB DUP2 PUSH2 0x7C8 JUMP JUMPDEST SWAP3 SWAP2 POP POP JUMP JUMPDEST PUSH1 0x0 DUP2 CALLDATALOAD SWAP1 POP PUSH2 0x4F0 DUP2 PUSH2 0x7DF JUMP JUMPDEST SWAP3 SWAP2 POP POP JUMP JUMPDEST PUSH1 0x0 DUP1 PUSH1 0x40 DUP4 DUP6 SUB SLT ISZERO PUSH2 0x50D JUMPI PUSH2 0x50C PUSH2 0x7C3 JUMP JUMPDEST JUMPDEST PUSH1 0x0 PUSH2 0x51B DUP6 DUP3 DUP7 ADD PUSH2 0x4CC JUMP JUMPDEST SWAP3 POP POP PUSH1 0x20 PUSH2 0x52C DUP6 DUP3 DUP7 ADD PUSH2 0x4E1 JUMP JUMPDEST SWAP2 POP POP SWAP3 POP SWAP3 SWAP1 POP JUMP JUMPDEST PUSH1 0x0 PUSH1 0x20 DUP3 DUP5 SUB SLT ISZERO PUSH2 0x54C JUMPI PUSH2 0x54B PUSH2 0x7C3 JUMP JUMPDEST JUMPDEST PUSH1 0x0 PUSH2 0x55A DUP5 DUP3 DUP6 ADD PUSH2 0x4E1 JUMP JUMPDEST SWAP2 POP POP SWAP3 SWAP2 POP POP JUMP JUMPDEST PUSH2 0x56C DUP2 PUSH2 0x647 JUMP JUMPDEST DUP3 MSTORE POP POP JUMP JUMPDEST PUSH2 0x57B DUP2 PUSH2 0x635 JUMP JUMPDEST DUP3 MSTORE POP POP JUMP JUMPDEST PUSH2 0x58A DUP2 PUSH2 0x679 JUMP JUMPDEST DUP3 MSTORE POP POP JUMP JUMPDEST PUSH2 0x5A1 PUSH2 0x59C DUP3 PUSH2 0x679 JUMP JUMPDEST PUSH2 0x6CC JUMP JUMPDEST DUP3 MSTORE POP POP JUMP JUMPDEST PUSH1 0x0 PUSH2 0x5B3 DUP3 DUP7 PUSH2 0x590 JUMP JUMPDEST PUSH1 0x20 DUP3 ADD SWAP2 POP PUSH2 0x5C3 DUP3 DUP6 PUSH2 0x590 JUMP JUMPDEST PUSH1 0x20 DUP3 ADD SWAP2 POP PUSH2 0x5D3 DUP3 DUP5 PUSH2 0x590 JUMP JUMPDEST PUSH1 0x20 DUP3 ADD SWAP2 POP DUP2 SWAP1 POP SWAP5 SWAP4 POP POP POP POP JUMP JUMPDEST PUSH1 0x0 PUSH1 0x20 DUP3 ADD SWAP1 POP PUSH2 0x5F9 PUSH1 0x0 DUP4 ADD DUP5 PUSH2 0x572 JUMP JUMPDEST SWAP3 SWAP2 POP POP JUMP JUMPDEST PUSH1 0x0 PUSH1 0x20 DUP3 ADD SWAP1 POP PUSH2 0x614 PUSH1 0x0 DUP4 ADD DUP5 PUSH2 0x563 JUMP JUMPDEST SWAP3 SWAP2 POP POP JUMP JUMPDEST PUSH1 0x0 PUSH1 0x20 DUP3 ADD SWAP1 POP PUSH2 0x62F PUSH1 0x0 DUP4 ADD DUP5 PUSH2 0x581 JUMP JUMPDEST SWAP3 SWAP2 POP POP JUMP JUMPDEST PUSH1 0x0 PUSH2 0x640 DUP3 PUSH2 0x659 JUMP JUMPDEST SWAP1 POP SWAP2 SWAP1 POP JUMP JUMPDEST PUSH1 0x0 PUSH2 0x652 DUP3 PUSH2 0x659 JUMP JUMPDEST SWAP1 POP SWAP2 SWAP1 POP JUMP JUMPDEST PUSH1 0x0 PUSH20 0xFFFFFFFFFFFFFFFFFFFFFFFFFFFFFFFFFFFFFFFF DUP3 AND SWAP1 POP SWAP2 SWAP1 POP JUMP JUMPDEST PUSH1 0x0 DUP2 SWAP1 POP SWAP2 SWAP1 POP JUMP JUMPDEST PUSH1 0x0 PUSH2 0x68E DUP3 PUSH2 0x679 JUMP JUMPDEST SWAP2 POP PUSH32 0xFFFFFFFFFFFFFFFFFFFFFFFFFFFFFFFFFFFFFFFFFFFFFFFFFFFFFFFFFFFFFFFF DUP3 EQ ISZERO PUSH2 0x6C1 JUMPI PUSH2 0x6C0 PUSH2 0x707 JUMP JUMPDEST JUMPDEST PUSH1 0x1 DUP3 ADD SWAP1 POP SWAP2 SWAP1 POP JUMP JUMPDEST PUSH1 0x0 DUP2 SWAP1 POP SWAP2 SWAP1 POP JUMP JUMPDEST PUSH1 0x0 PUSH2 0x6E1 DUP3 PUSH2 0x679 JUMP JUMPDEST SWAP2 POP PUSH2 0x6EC DUP4 PUSH2 0x679 JUMP JUMPDEST SWAP3 POP DUP3 PUSH2 0x6FC JUMPI PUSH2 0x6FB PUSH2 0x736 JUMP JUMPDEST JUMPDEST DUP3 DUP3 MOD SWAP1 POP SWAP3 SWAP2 POP POP JUMP JUMPDEST PUSH32 0x4E487B7100000000000000000000000000000000000000000000000000000000 PUSH1 0x0 MSTORE PUSH1 0x11 PUSH1 0x4 MSTORE PUSH1 0x24 PUSH1 0x0 REVERT JUMPDEST PUSH32 0x4E487B7100000000000000000000000000000000000000000000000000000000 PUSH1 0x0 MSTORE PUSH1 0x12 PUSH1 0x4 MSTORE PUSH1 0x24 PUSH1 0x0 REVERT JUMPDEST PUSH32 0x4E487B7100000000000000000000000000000000000000000000000000000000 PUSH1 0x0 MSTORE PUSH1 0x31 PUSH1 0x4 MSTORE PUSH1 0x24 PUSH1 0x0 REVERT JUMPDEST PUSH32 0x4E487B7100000000000000000000000000000000000000000000000000000000 PUSH1 0x0 MSTORE PUSH1 0x32 PUSH1 0x4 MSTORE PUSH1 0x24 PUSH1 0x0 REVERT JUMPDEST PUSH1 0x0 DUP1 REVERT JUMPDEST PUSH2 0x7D1 DUP2 PUSH2 0x647 JUMP JUMPDEST DUP2 EQ PUSH2 0x7DC JUMPI PUSH1 0x0 DUP1 REVERT JUMPDEST POP JUMP JUMPDEST PUSH2 0x7E8 DUP2 PUSH2 0x679 JUMP JUMPDEST DUP2 EQ PUSH2 0x7F3 JUMPI PUSH1 0x0 DUP1 REVERT JUMPDEST POP JUMP INVALID LOG2 PUSH5 0x6970667358 0x22 SLT KECCAK256 0xA5 MUL 0xC3 SWAP16 PUSH14 0xF8004F20C9DE0AD29E6BFA4EC9D6 0xAD 0x4F SMOD 0xD2 0xB5 PUSH13 0xECE064E40C650164736F6C6343 STOP ADDMOD SMOD STOP CALLER "
				},
				"gasEstimates": {
					"creation": {
						"codeDepositCost": "418400",
						"executionCost": "infinite",
						"totalCost": "infinite"
					},
					"external": {
						"": "201",
						"getBalance()": "infinite",
						"manager()": "infinite",
						"pickWinner()": "infinite",
						"players(uint256)": "5044",
						"random()": "infinite",
						"transferEthToWinner(address,uint256)": "infinite"
					},
					"internal": {
						"deleteAllPlayers()": "infinite"
					}
				},
				"methodIdentifiers": {
					"getBalance()": "12065fe0",
					"manager()": "481c6a75",
					"pickWinner()": "5d495aea",
					"players(uint256)": "f71d96cb",
					"random()": "5ec01e4d",
					"transferEthToWinner(address,uint256)": "10c5762e"
				}
			},
			"storageLayout": {
				"storage": [
					{
						"astId": 6,
						"contract": "contracts/lottery.sol:Lottery",
						"label": "players",
						"offset": 0,
						"slot": "0",
						"type": "t_array(t_address_payable)dyn_storage"
					}
				],
				"types": {
					"t_address_payable": {
						"encoding": "inplace",
						"label": "address payable",
						"numberOfBytes": "20"
					},
					"t_array(t_address_payable)dyn_storage": {
						"base": "t_address_payable",
						"encoding": "dynamic_array",
						"label": "address payable[]",
						"numberOfBytes": "32"
					}
				}
			},
			"userdoc": {
				"kind": "user",
				"methods": {},
				"version": 1
			}
		}
	}
}