{
	"contracts/lottery.sol": {
		"Lottery": {
			"abi": [
				{
					"inputs": [],
					"stateMutability": "nonpayable",
					"type": "constructor"
				},
				{
					"stateMutability": "payable",
					"type": "fallback"
				},
				{
					"inputs": [],
					"name": "getBalance",
					"outputs": [
						{
							"internalType": "uint256",
							"name": "",
							"type": "uint256"
						}
					],
					"stateMutability": "view",
					"type": "function"
				},
				{
					"inputs": [],
					"name": "manager",
					"outputs": [
						{
							"internalType": "address",
							"name": "",
							"type": "address"
						}
					],
					"stateMutability": "view",
					"type": "function"
				},
				{
					"inputs": [],
					"name": "pickWinner",
					"outputs": [],
					"stateMutability": "nonpayable",
					"type": "function"
				},
				{
					"inputs": [
						{
							"internalType": "uint256",
							"name": "",
							"type": "uint256"
						}
					],
					"name": "players",
					"outputs": [
						{
							"internalType": "address payable",
							"name": "",
							"type": "address"
						}
					],
					"stateMutability": "view",
					"type": "function"
				},
				{
					"inputs": [],
					"name": "random",
					"outputs": [
						{
							"internalType": "uint256",
							"name": "",
							"type": "uint256"
						}
					],
					"stateMutability": "view",
					"type": "function"
				},
				{
					"stateMutability": "payable",
					"type": "receive"
				}
			],
			"devdoc": {
				"kind": "dev",
				"methods": {},
				"version": 1
			},
			"evm": {
				"assembly": "    /* \"contracts/lottery.sol\":73:1440  contract Lottery{\r... */\n  mstore(0x40, 0xa0)\n    /* \"contracts/lottery.sol\":178:259  constructor(){\r... */\n  callvalue\n  dup1\n  iszero\n  tag_1\n  jumpi\n  0x00\n  dup1\n  revert\ntag_1:\n  pop\n    /* \"contracts/lottery.sol\":212:222  msg.sender */\n  caller\n    /* \"contracts/lottery.sol\":202:222  manager = msg.sender */\n  0xffffffffffffffffffffffffffffffffffffffff\n  and\n  0x80\n  dup2\n  0xffffffffffffffffffffffffffffffffffffffff\n  and\n  0x60\n  shl\n  dup2\n  mstore\n  pop\n  pop\n    /* \"contracts/lottery.sol\":233:251  deleteAllPlayers() */\n  tag_4\n    /* \"contracts/lottery.sol\":233:249  deleteAllPlayers */\n  shl(0x20, tag_5)\n    /* \"contracts/lottery.sol\":233:251  deleteAllPlayers() */\n  0x20\n  shr\n  jump\t// in\ntag_4:\n    /* \"contracts/lottery.sol\":73:1440  contract Lottery{\r... */\n  jump(tag_6)\n    /* \"contracts/lottery.sol\":1284:1437  function deleteAllPlayers() private {\r... */\ntag_5:\n    /* \"contracts/lottery.sol\":1331:1337  uint j */\n  0x00\n    /* \"contracts/lottery.sol\":1340:1347  players */\n  dup1\n    /* \"contracts/lottery.sol\":1340:1354  players.length */\n  dup1\n  sload\n  swap1\n  pop\n    /* \"contracts/lottery.sol\":1331:1354  uint j = players.length */\n  swap1\n  pop\n    /* \"contracts/lottery.sol\":1369:1375  uint i */\n  0x00\n    /* \"contracts/lottery.sol\":1365:1430  for(uint i = 0; i<j; i++){\r... */\ntag_8:\n    /* \"contracts/lottery.sol\":1383:1384  j */\n  dup2\n    /* \"contracts/lottery.sol\":1381:1382  i */\n  dup2\n    /* \"contracts/lottery.sol\":1381:1384  i<j */\n  lt\n    /* \"contracts/lottery.sol\":1365:1430  for(uint i = 0; i<j; i++){\r... */\n  iszero\n  tag_9\n  jumpi\n    /* \"contracts/lottery.sol\":1405:1412  players */\n  0x00\n    /* \"contracts/lottery.sol\":1405:1418  players.pop() */\n  dup1\n  sload\n  dup1\n  tag_11\n  jumpi\n  tag_12\n  tag_13\n  jump\t// in\ntag_12:\ntag_11:\n  0x01\n  swap1\n  sub\n  dup2\n  dup2\n  swap1\n  0x00\n  mstore\n  keccak256(0x00, 0x20)\n  add\n  exp(0x0100, 0x00)\n  dup2\n  sload\n  swap1\n  0xffffffffffffffffffffffffffffffffffffffff\n  mul\n  not\n  and\n  swap1\n  sstore\n  swap1\n  sstore\n    /* \"contracts/lottery.sol\":1386:1389  i++ */\n  dup1\n  dup1\n  tag_15\n  swap1\n  tag_16\n  jump\t// in\ntag_15:\n  swap2\n  pop\n  pop\n    /* \"contracts/lottery.sol\":1365:1430  for(uint i = 0; i<j; i++){\r... */\n  jump(tag_8)\ntag_9:\n  pop\n    /* \"contracts/lottery.sol\":1320:1437  {\r... */\n  pop\n    /* \"contracts/lottery.sol\":1284:1437  function deleteAllPlayers() private {\r... */\n  jump\t// out\n    /* \"#utility.yul\":7:84   */\ntag_18:\n    /* \"#utility.yul\":44:51   */\n  0x00\n    /* \"#utility.yul\":73:78   */\n  dup2\n    /* \"#utility.yul\":62:78   */\n  swap1\n  pop\n    /* \"#utility.yul\":7:84   */\n  swap2\n  swap1\n  pop\n  jump\t// out\n    /* \"#utility.yul\":90:323   */\ntag_16:\n    /* \"#utility.yul\":129:132   */\n  0x00\n    /* \"#utility.yul\":152:176   */\n  tag_21\n    /* \"#utility.yul\":170:175   */\n  dup3\n    /* \"#utility.yul\":152:176   */\n  tag_18\n  jump\t// in\ntag_21:\n    /* \"#utility.yul\":143:176   */\n  swap2\n  pop\n    /* \"#utility.yul\":198:264   */\n  0xffffffffffffffffffffffffffffffffffffffffffffffffffffffffffffffff\n    /* \"#utility.yul\":191:196   */\n  dup3\n    /* \"#utility.yul\":188:265   */\n  eq\n    /* \"#utility.yul\":185:288   */\n  iszero\n  tag_22\n  jumpi\n    /* \"#utility.yul\":268:286   */\n  tag_23\n  tag_24\n  jump\t// in\ntag_23:\n    /* \"#utility.yul\":185:288   */\ntag_22:\n    /* \"#utility.yul\":315:316   */\n  0x01\n    /* \"#utility.yul\":308:313   */\n  dup3\n    /* \"#utility.yul\":304:317   */\n  add\n    /* \"#utility.yul\":297:317   */\n  swap1\n  pop\n    /* \"#utility.yul\":90:323   */\n  swap2\n  swap1\n  pop\n  jump\t// out\n    /* \"#utility.yul\":329:509   */\ntag_24:\n    /* \"#utility.yul\":377:454   */\n  0x4e487b7100000000000000000000000000000000000000000000000000000000\n    /* \"#utility.yul\":374:375   */\n  0x00\n    /* \"#utility.yul\":367:455   */\n  mstore\n    /* \"#utility.yul\":474:478   */\n  0x11\n    /* \"#utility.yul\":471:472   */\n  0x04\n    /* \"#utility.yul\":464:479   */\n  mstore\n    /* \"#utility.yul\":498:502   */\n  0x24\n    /* \"#utility.yul\":495:496   */\n  0x00\n    /* \"#utility.yul\":488:503   */\n  revert\n    /* \"#utility.yul\":515:695   */\ntag_13:\n    /* \"#utility.yul\":563:640   */\n  0x4e487b7100000000000000000000000000000000000000000000000000000000\n    /* \"#utility.yul\":560:561   */\n  0x00\n    /* \"#utility.yul\":553:641   */\n  mstore\n    /* \"#utility.yul\":660:664   */\n  0x31\n    /* \"#utility.yul\":657:658   */\n  0x04\n    /* \"#utility.yul\":650:665   */\n  mstore\n    /* \"#utility.yul\":684:688   */\n  0x24\n    /* \"#utility.yul\":681:682   */\n  0x00\n    /* \"#utility.yul\":674:689   */\n  revert\n    /* \"contracts/lottery.sol\":73:1440  contract Lottery{\r... */\ntag_6:\n  shr(0x60, mload(0x80))\n  codecopy(0x00, dataOffset(sub_0), dataSize(sub_0))\n  0x00\n  assignImmutable(\"0x2a80e1ef1d7842f27f2e6be0972bb708b9a135c38860dbe73c27c3486c34f4de\")\n  return(0x00, dataSize(sub_0))\nstop\n\nsub_0: assembly {\n        /* \"contracts/lottery.sol\":73:1440  contract Lottery{\r... */\n      mstore(0x40, 0x80)\n      jumpi(tag_1, lt(calldatasize, 0x04))\n      shr(0xe0, calldataload(0x00))\n      dup1\n      0x12065fe0\n      eq\n      tag_3\n      jumpi\n      dup1\n      0x481c6a75\n      eq\n      tag_4\n      jumpi\n      dup1\n      0x5d495aea\n      eq\n      tag_5\n      jumpi\n      dup1\n      0x5ec01e4d\n      eq\n      tag_6\n      jumpi\n      dup1\n      0xf71d96cb\n      eq\n      tag_7\n      jumpi\n      jump(tag_2)\n    tag_1:\n      jumpi(tag_2, calldatasize)\n        /* \"contracts/lottery.sol\":325:334  0.1 ether */\n      0x016345785d8a0000\n        /* \"contracts/lottery.sol\":312:321  msg.value */\n      callvalue\n        /* \"contracts/lottery.sol\":312:334  msg.value == 0.1 ether */\n      eq\n        /* \"contracts/lottery.sol\":304:335  require(msg.value == 0.1 ether) */\n      tag_10\n      jumpi\n      0x00\n      dup1\n      revert\n    tag_10:\n        /* \"contracts/lottery.sol\":346:353  players */\n      0x00\n        /* \"contracts/lottery.sol\":367:377  msg.sender */\n      caller\n        /* \"contracts/lottery.sol\":346:379  players.push(payable(msg.sender)) */\n      swap1\n      dup1\n      0x01\n      dup2\n      sload\n      add\n      dup1\n      dup3\n      sstore\n      dup1\n      swap2\n      pop\n      pop\n      0x01\n      swap1\n      sub\n      swap1\n      0x00\n      mstore\n      keccak256(0x00, 0x20)\n      add\n      0x00\n      swap1\n      swap2\n      swap1\n      swap2\n      swap1\n      swap2\n      0x0100\n      exp\n      dup2\n      sload\n      dup2\n      0xffffffffffffffffffffffffffffffffffffffff\n      mul\n      not\n      and\n      swap1\n      dup4\n      0xffffffffffffffffffffffffffffffffffffffff\n      and\n      mul\n      or\n      swap1\n      sstore\n      pop\n        /* \"contracts/lottery.sol\":73:1440  contract Lottery{\r... */\n      stop\n    tag_2:\n        /* \"contracts/lottery.sol\":433:441  revert() */\n      0x00\n      dup1\n      revert\n        /* \"contracts/lottery.sol\":457:592  function getBalance() public view returns(uint){\r... */\n    tag_3:\n      callvalue\n      dup1\n      iszero\n      tag_14\n      jumpi\n      0x00\n      dup1\n      revert\n    tag_14:\n      pop\n      tag_15\n      tag_16\n      jump\t// in\n    tag_15:\n      mload(0x40)\n      tag_17\n      swap2\n      swap1\n      tag_18\n      jump\t// in\n    tag_17:\n      mload(0x40)\n      dup1\n      swap2\n      sub\n      swap1\n      return\n        /* \"contracts/lottery.sol\":98:130  address public immutable manager */\n    tag_4:\n      callvalue\n      dup1\n      iszero\n      tag_19\n      jumpi\n      0x00\n      dup1\n      revert\n    tag_19:\n      pop\n      tag_20\n      tag_21\n      jump\t// in\n    tag_20:\n      mload(0x40)\n      tag_22\n      swap2\n      swap1\n      tag_23\n      jump\t// in\n    tag_22:\n      mload(0x40)\n      dup1\n      swap2\n      sub\n      swap1\n      return\n        /* \"contracts/lottery.sol\":600:914  function pickWinner() public{\r... */\n    tag_5:\n      callvalue\n      dup1\n      iszero\n      tag_24\n      jumpi\n      0x00\n      dup1\n      revert\n    tag_24:\n      pop\n      tag_25\n      tag_26\n      jump\t// in\n    tag_25:\n      stop\n        /* \"contracts/lottery.sol\":1123:1276  function random() public view returns(uint){\r... */\n    tag_6:\n      callvalue\n      dup1\n      iszero\n      tag_27\n      jumpi\n      0x00\n      dup1\n      revert\n    tag_27:\n      pop\n      tag_28\n      tag_29\n      jump\t// in\n    tag_28:\n      mload(0x40)\n      tag_30\n      swap2\n      swap1\n      tag_18\n      jump\t// in\n    tag_30:\n      mload(0x40)\n      dup1\n      swap2\n      sub\n      swap1\n      return\n        /* \"contracts/lottery.sol\":137:169  address payable[] public players */\n    tag_7:\n      callvalue\n      dup1\n      iszero\n      tag_31\n      jumpi\n      0x00\n      dup1\n      revert\n    tag_31:\n      pop\n      tag_32\n      0x04\n      dup1\n      calldatasize\n      sub\n      dup2\n      add\n      swap1\n      tag_33\n      swap2\n      swap1\n      tag_34\n      jump\t// in\n    tag_33:\n      tag_35\n      jump\t// in\n    tag_32:\n      mload(0x40)\n      tag_36\n      swap2\n      swap1\n      tag_37\n      jump\t// in\n    tag_36:\n      mload(0x40)\n      dup1\n      swap2\n      sub\n      swap1\n      return\n        /* \"contracts/lottery.sol\":457:592  function getBalance() public view returns(uint){\r... */\n    tag_16:\n        /* \"contracts/lottery.sol\":499:503  uint */\n      0x00\n        /* \"contracts/lottery.sol\":537:544  manager */\n      immutable(\"0x2a80e1ef1d7842f27f2e6be0972bb708b9a135c38860dbe73c27c3486c34f4de\")\n        /* \"contracts/lottery.sol\":523:544  msg.sender == manager */\n      0xffffffffffffffffffffffffffffffffffffffff\n      and\n        /* \"contracts/lottery.sol\":523:533  msg.sender */\n      caller\n        /* \"contracts/lottery.sol\":523:544  msg.sender == manager */\n      0xffffffffffffffffffffffffffffffffffffffff\n      and\n      eq\n        /* \"contracts/lottery.sol\":515:545  require(msg.sender == manager) */\n      tag_39\n      jumpi\n      0x00\n      dup1\n      revert\n    tag_39:\n        /* \"contracts/lottery.sol\":563:584  address(this).balance */\n      selfbalance\n        /* \"contracts/lottery.sol\":556:584  return address(this).balance */\n      swap1\n      pop\n        /* \"contracts/lottery.sol\":457:592  function getBalance() public view returns(uint){\r... */\n      swap1\n      jump\t// out\n        /* \"contracts/lottery.sol\":98:130  address public immutable manager */\n    tag_21:\n      immutable(\"0x2a80e1ef1d7842f27f2e6be0972bb708b9a135c38860dbe73c27c3486c34f4de\")\n      dup2\n      jump\t// out\n        /* \"contracts/lottery.sol\":600:914  function pickWinner() public{\r... */\n    tag_26:\n        /* \"contracts/lottery.sol\":658:668  msg.sender */\n      caller\n        /* \"contracts/lottery.sol\":647:668  manager == msg.sender */\n      0xffffffffffffffffffffffffffffffffffffffff\n      and\n        /* \"contracts/lottery.sol\":647:654  manager */\n      immutable(\"0x2a80e1ef1d7842f27f2e6be0972bb708b9a135c38860dbe73c27c3486c34f4de\")\n        /* \"contracts/lottery.sol\":647:668  manager == msg.sender */\n      0xffffffffffffffffffffffffffffffffffffffff\n      and\n      eq\n        /* \"contracts/lottery.sol\":639:669  require(manager == msg.sender) */\n      tag_41\n      jumpi\n      0x00\n      dup1\n      revert\n    tag_41:\n        /* \"contracts/lottery.sol\":706:707  3 */\n      0x03\n        /* \"contracts/lottery.sol\":688:695  players */\n      0x00\n        /* \"contracts/lottery.sol\":688:702  players.length */\n      dup1\n      sload\n      swap1\n      pop\n        /* \"contracts/lottery.sol\":688:707  players.length >= 3 */\n      lt\n      iszero\n        /* \"contracts/lottery.sol\":680:708  require(players.length >= 3) */\n      tag_42\n      jumpi\n      0x00\n      dup1\n      revert\n    tag_42:\n        /* \"contracts/lottery.sol\":729:738  uint rand */\n      0x00\n        /* \"contracts/lottery.sol\":752:759  players */\n      dup1\n        /* \"contracts/lottery.sol\":752:766  players.length */\n      dup1\n      sload\n      swap1\n      pop\n        /* \"contracts/lottery.sol\":741:749  random() */\n      tag_43\n        /* \"contracts/lottery.sol\":741:747  random */\n      tag_29\n        /* \"contracts/lottery.sol\":741:749  random() */\n      jump\t// in\n    tag_43:\n        /* \"contracts/lottery.sol\":741:766  random() % players.length */\n      tag_44\n      swap2\n      swap1\n      tag_45\n      jump\t// in\n    tag_44:\n        /* \"contracts/lottery.sol\":729:766  uint rand = random() % players.length */\n      swap1\n      pop\n        /* \"contracts/lottery.sol\":777:797  address payable addr */\n      0x00\n        /* \"contracts/lottery.sol\":800:807  players */\n      dup1\n        /* \"contracts/lottery.sol\":808:812  rand */\n      dup3\n        /* \"contracts/lottery.sol\":800:813  players[rand] */\n      dup2\n      sload\n      dup2\n      lt\n      tag_46\n      jumpi\n      tag_47\n      tag_48\n      jump\t// in\n    tag_47:\n    tag_46:\n      swap1\n      0x00\n      mstore\n      keccak256(0x00, 0x20)\n      add\n      0x00\n      swap1\n      sload\n      swap1\n      0x0100\n      exp\n      swap1\n      div\n      0xffffffffffffffffffffffffffffffffffffffff\n      and\n        /* \"contracts/lottery.sol\":777:813  address payable addr = players[rand] */\n      swap1\n      pop\n        /* \"contracts/lottery.sol\":838:877  transferEthToWinner(addr, getBalance()) */\n      tag_50\n        /* \"contracts/lottery.sol\":858:862  addr */\n      dup2\n        /* \"contracts/lottery.sol\":864:876  getBalance() */\n      tag_51\n        /* \"contracts/lottery.sol\":864:874  getBalance */\n      tag_16\n        /* \"contracts/lottery.sol\":864:876  getBalance() */\n      jump\t// in\n    tag_51:\n        /* \"contracts/lottery.sol\":838:857  transferEthToWinner */\n      tag_52\n        /* \"contracts/lottery.sol\":838:877  transferEthToWinner(addr, getBalance()) */\n      jump\t// in\n    tag_50:\n        /* \"contracts/lottery.sol\":888:906  deleteAllPlayers() */\n      tag_53\n        /* \"contracts/lottery.sol\":888:904  deleteAllPlayers */\n      tag_54\n        /* \"contracts/lottery.sol\":888:906  deleteAllPlayers() */\n      jump\t// in\n    tag_53:\n        /* \"contracts/lottery.sol\":628:914  {\r... */\n      pop\n      pop\n        /* \"contracts/lottery.sol\":600:914  function pickWinner() public{\r... */\n      jump\t// out\n        /* \"contracts/lottery.sol\":1123:1276  function random() public view returns(uint){\r... */\n    tag_29:\n        /* \"contracts/lottery.sol\":1161:1165  uint */\n      0x00\n        /* \"contracts/lottery.sol\":1216:1232  block.difficulty */\n      difficulty\n        /* \"contracts/lottery.sol\":1234:1249  block.timestamp */\n      timestamp\n        /* \"contracts/lottery.sol\":1251:1258  players */\n      0x00\n        /* \"contracts/lottery.sol\":1251:1265  players.length */\n      dup1\n      sload\n      swap1\n      pop\n        /* \"contracts/lottery.sol\":1199:1266  abi.encodePacked(block.difficulty, block.timestamp, players.length) */\n      add(0x20, mload(0x40))\n      tag_56\n      swap4\n      swap3\n      swap2\n      swap1\n      tag_57\n      jump\t// in\n    tag_56:\n      mload(0x40)\n      0x20\n      dup2\n      dup4\n      sub\n      sub\n      dup2\n      mstore\n      swap1\n      0x40\n      mstore\n        /* \"contracts/lottery.sol\":1189:1267  keccak256(abi.encodePacked(block.difficulty, block.timestamp, players.length)) */\n      dup1\n      mload\n      swap1\n      0x20\n      add\n      keccak256\n        /* \"contracts/lottery.sol\":1184:1268  uint(keccak256(abi.encodePacked(block.difficulty, block.timestamp, players.length))) */\n      0x00\n      shr\n        /* \"contracts/lottery.sol\":1177:1268  return uint(keccak256(abi.encodePacked(block.difficulty, block.timestamp, players.length))) */\n      swap1\n      pop\n        /* \"contracts/lottery.sol\":1123:1276  function random() public view returns(uint){\r... */\n      swap1\n      jump\t// out\n        /* \"contracts/lottery.sol\":137:169  address payable[] public players */\n    tag_35:\n      0x00\n      dup2\n      dup2\n      sload\n      dup2\n      lt\n      tag_58\n      jumpi\n      0x00\n      dup1\n      revert\n    tag_58:\n      swap1\n      0x00\n      mstore\n      keccak256(0x00, 0x20)\n      add\n      0x00\n      swap2\n      pop\n      sload\n      swap1\n      0x0100\n      exp\n      swap1\n      div\n      0xffffffffffffffffffffffffffffffffffffffff\n      and\n      dup2\n      jump\t// out\n        /* \"contracts/lottery.sol\":922:1086  function transferEthToWinner(address payable recipient, uint amount) private{\r... */\n    tag_52:\n        /* \"contracts/lottery.sol\":1028:1038  msg.sender */\n      caller\n        /* \"contracts/lottery.sol\":1017:1038  manager == msg.sender */\n      0xffffffffffffffffffffffffffffffffffffffff\n      and\n        /* \"contracts/lottery.sol\":1017:1024  manager */\n      immutable(\"0x2a80e1ef1d7842f27f2e6be0972bb708b9a135c38860dbe73c27c3486c34f4de\")\n        /* \"contracts/lottery.sol\":1017:1038  manager == msg.sender */\n      0xffffffffffffffffffffffffffffffffffffffff\n      and\n      eq\n        /* \"contracts/lottery.sol\":1009:1039  require(manager == msg.sender) */\n      tag_61\n      jumpi\n      0x00\n      dup1\n      revert\n    tag_61:\n        /* \"contracts/lottery.sol\":1052:1061  recipient */\n      dup2\n        /* \"contracts/lottery.sol\":1052:1070  recipient.transfer */\n      0xffffffffffffffffffffffffffffffffffffffff\n      and\n        /* \"contracts/lottery.sol\":1052:1078  recipient.transfer(amount) */\n      0x08fc\n        /* \"contracts/lottery.sol\":1071:1077  amount */\n      dup3\n        /* \"contracts/lottery.sol\":1052:1078  recipient.transfer(amount) */\n      swap1\n      dup2\n      iszero\n      mul\n      swap1\n      mload(0x40)\n      0x00\n      mload(0x40)\n      dup1\n      dup4\n      sub\n      dup2\n      dup6\n      dup9\n      dup9\n      call\n      swap4\n      pop\n      pop\n      pop\n      pop\n      iszero\n      dup1\n      iszero\n      tag_63\n      jumpi\n      returndatasize\n      0x00\n      dup1\n      returndatacopy\n      revert(0x00, returndatasize)\n    tag_63:\n      pop\n        /* \"contracts/lottery.sol\":922:1086  function transferEthToWinner(address payable recipient, uint amount) private{\r... */\n      pop\n      pop\n      jump\t// out\n        /* \"contracts/lottery.sol\":1284:1437  function deleteAllPlayers() private {\r... */\n    tag_54:\n        /* \"contracts/lottery.sol\":1331:1337  uint j */\n      0x00\n        /* \"contracts/lottery.sol\":1340:1347  players */\n      dup1\n        /* \"contracts/lottery.sol\":1340:1354  players.length */\n      dup1\n      sload\n      swap1\n      pop\n        /* \"contracts/lottery.sol\":1331:1354  uint j = players.length */\n      swap1\n      pop\n        /* \"contracts/lottery.sol\":1369:1375  uint i */\n      0x00\n        /* \"contracts/lottery.sol\":1365:1430  for(uint i = 0; i<j; i++){\r... */\n    tag_65:\n        /* \"contracts/lottery.sol\":1383:1384  j */\n      dup2\n        /* \"contracts/lottery.sol\":1381:1382  i */\n      dup2\n        /* \"contracts/lottery.sol\":1381:1384  i<j */\n      lt\n        /* \"contracts/lottery.sol\":1365:1430  for(uint i = 0; i<j; i++){\r... */\n      iszero\n      tag_66\n      jumpi\n        /* \"contracts/lottery.sol\":1405:1412  players */\n      0x00\n        /* \"contracts/lottery.sol\":1405:1418  players.pop() */\n      dup1\n      sload\n      dup1\n      tag_68\n      jumpi\n      tag_69\n      tag_70\n      jump\t// in\n    tag_69:\n    tag_68:\n      0x01\n      swap1\n      sub\n      dup2\n      dup2\n      swap1\n      0x00\n      mstore\n      keccak256(0x00, 0x20)\n      add\n      exp(0x0100, 0x00)\n      dup2\n      sload\n      swap1\n      0xffffffffffffffffffffffffffffffffffffffff\n      mul\n      not\n      and\n      swap1\n      sstore\n      swap1\n      sstore\n        /* \"contracts/lottery.sol\":1386:1389  i++ */\n      dup1\n      dup1\n      tag_72\n      swap1\n      tag_73\n      jump\t// in\n    tag_72:\n      swap2\n      pop\n      pop\n        /* \"contracts/lottery.sol\":1365:1430  for(uint i = 0; i<j; i++){\r... */\n      jump(tag_65)\n    tag_66:\n      pop\n        /* \"contracts/lottery.sol\":1320:1437  {\r... */\n      pop\n        /* \"contracts/lottery.sol\":1284:1437  function deleteAllPlayers() private {\r... */\n      jump\t// out\n        /* \"#utility.yul\":7:146   */\n    tag_75:\n        /* \"#utility.yul\":53:58   */\n      0x00\n        /* \"#utility.yul\":91:97   */\n      dup2\n        /* \"#utility.yul\":78:98   */\n      calldataload\n        /* \"#utility.yul\":69:98   */\n      swap1\n      pop\n        /* \"#utility.yul\":107:140   */\n      tag_77\n        /* \"#utility.yul\":134:139   */\n      dup2\n        /* \"#utility.yul\":107:140   */\n      tag_78\n      jump\t// in\n    tag_77:\n        /* \"#utility.yul\":7:146   */\n      swap3\n      swap2\n      pop\n      pop\n      jump\t// out\n        /* \"#utility.yul\":152:481   */\n    tag_34:\n        /* \"#utility.yul\":211:217   */\n      0x00\n        /* \"#utility.yul\":260:262   */\n      0x20\n        /* \"#utility.yul\":248:257   */\n      dup3\n        /* \"#utility.yul\":239:246   */\n      dup5\n        /* \"#utility.yul\":235:258   */\n      sub\n        /* \"#utility.yul\":231:263   */\n      slt\n        /* \"#utility.yul\":228:347   */\n      iszero\n      tag_80\n      jumpi\n        /* \"#utility.yul\":266:345   */\n      tag_81\n      tag_82\n      jump\t// in\n    tag_81:\n        /* \"#utility.yul\":228:347   */\n    tag_80:\n        /* \"#utility.yul\":386:387   */\n      0x00\n        /* \"#utility.yul\":411:464   */\n      tag_83\n        /* \"#utility.yul\":456:463   */\n      dup5\n        /* \"#utility.yul\":447:453   */\n      dup3\n        /* \"#utility.yul\":436:445   */\n      dup6\n        /* \"#utility.yul\":432:454   */\n      add\n        /* \"#utility.yul\":411:464   */\n      tag_75\n      jump\t// in\n    tag_83:\n        /* \"#utility.yul\":401:464   */\n      swap2\n      pop\n        /* \"#utility.yul\":357:474   */\n      pop\n        /* \"#utility.yul\":152:481   */\n      swap3\n      swap2\n      pop\n      pop\n      jump\t// out\n        /* \"#utility.yul\":487:629   */\n    tag_84:\n        /* \"#utility.yul\":590:622   */\n      tag_86\n        /* \"#utility.yul\":616:621   */\n      dup2\n        /* \"#utility.yul\":590:622   */\n      tag_87\n      jump\t// in\n    tag_86:\n        /* \"#utility.yul\":585:588   */\n      dup3\n        /* \"#utility.yul\":578:623   */\n      mstore\n        /* \"#utility.yul\":487:629   */\n      pop\n      pop\n      jump\t// out\n        /* \"#utility.yul\":635:753   */\n    tag_88:\n        /* \"#utility.yul\":722:746   */\n      tag_90\n        /* \"#utility.yul\":740:745   */\n      dup2\n        /* \"#utility.yul\":722:746   */\n      tag_91\n      jump\t// in\n    tag_90:\n        /* \"#utility.yul\":717:720   */\n      dup3\n        /* \"#utility.yul\":710:747   */\n      mstore\n        /* \"#utility.yul\":635:753   */\n      pop\n      pop\n      jump\t// out\n        /* \"#utility.yul\":759:877   */\n    tag_92:\n        /* \"#utility.yul\":846:870   */\n      tag_94\n        /* \"#utility.yul\":864:869   */\n      dup2\n        /* \"#utility.yul\":846:870   */\n      tag_95\n      jump\t// in\n    tag_94:\n        /* \"#utility.yul\":841:844   */\n      dup3\n        /* \"#utility.yul\":834:871   */\n      mstore\n        /* \"#utility.yul\":759:877   */\n      pop\n      pop\n      jump\t// out\n        /* \"#utility.yul\":883:1040   */\n    tag_96:\n        /* \"#utility.yul\":988:1033   */\n      tag_98\n        /* \"#utility.yul\":1008:1032   */\n      tag_99\n        /* \"#utility.yul\":1026:1031   */\n      dup3\n        /* \"#utility.yul\":1008:1032   */\n      tag_95\n      jump\t// in\n    tag_99:\n        /* \"#utility.yul\":988:1033   */\n      tag_100\n      jump\t// in\n    tag_98:\n        /* \"#utility.yul\":983:986   */\n      dup3\n        /* \"#utility.yul\":976:1034   */\n      mstore\n        /* \"#utility.yul\":883:1040   */\n      pop\n      pop\n      jump\t// out\n        /* \"#utility.yul\":1046:1584   */\n    tag_57:\n        /* \"#utility.yul\":1214:1217   */\n      0x00\n        /* \"#utility.yul\":1229:1304   */\n      tag_102\n        /* \"#utility.yul\":1300:1303   */\n      dup3\n        /* \"#utility.yul\":1291:1297   */\n      dup7\n        /* \"#utility.yul\":1229:1304   */\n      tag_96\n      jump\t// in\n    tag_102:\n        /* \"#utility.yul\":1329:1331   */\n      0x20\n        /* \"#utility.yul\":1324:1327   */\n      dup3\n        /* \"#utility.yul\":1320:1332   */\n      add\n        /* \"#utility.yul\":1313:1332   */\n      swap2\n      pop\n        /* \"#utility.yul\":1342:1417   */\n      tag_103\n        /* \"#utility.yul\":1413:1416   */\n      dup3\n        /* \"#utility.yul\":1404:1410   */\n      dup6\n        /* \"#utility.yul\":1342:1417   */\n      tag_96\n      jump\t// in\n    tag_103:\n        /* \"#utility.yul\":1442:1444   */\n      0x20\n        /* \"#utility.yul\":1437:1440   */\n      dup3\n        /* \"#utility.yul\":1433:1445   */\n      add\n        /* \"#utility.yul\":1426:1445   */\n      swap2\n      pop\n        /* \"#utility.yul\":1455:1530   */\n      tag_104\n        /* \"#utility.yul\":1526:1529   */\n      dup3\n        /* \"#utility.yul\":1517:1523   */\n      dup5\n        /* \"#utility.yul\":1455:1530   */\n      tag_96\n      jump\t// in\n    tag_104:\n        /* \"#utility.yul\":1555:1557   */\n      0x20\n        /* \"#utility.yul\":1550:1553   */\n      dup3\n        /* \"#utility.yul\":1546:1558   */\n      add\n        /* \"#utility.yul\":1539:1558   */\n      swap2\n      pop\n        /* \"#utility.yul\":1575:1578   */\n      dup2\n        /* \"#utility.yul\":1568:1578   */\n      swap1\n      pop\n        /* \"#utility.yul\":1046:1584   */\n      swap5\n      swap4\n      pop\n      pop\n      pop\n      pop\n      jump\t// out\n        /* \"#utility.yul\":1590:1812   */\n    tag_23:\n        /* \"#utility.yul\":1683:1687   */\n      0x00\n        /* \"#utility.yul\":1721:1723   */\n      0x20\n        /* \"#utility.yul\":1710:1719   */\n      dup3\n        /* \"#utility.yul\":1706:1724   */\n      add\n        /* \"#utility.yul\":1698:1724   */\n      swap1\n      pop\n        /* \"#utility.yul\":1734:1805   */\n      tag_106\n        /* \"#utility.yul\":1802:1803   */\n      0x00\n        /* \"#utility.yul\":1791:1800   */\n      dup4\n        /* \"#utility.yul\":1787:1804   */\n      add\n        /* \"#utility.yul\":1778:1784   */\n      dup5\n        /* \"#utility.yul\":1734:1805   */\n      tag_88\n      jump\t// in\n    tag_106:\n        /* \"#utility.yul\":1590:1812   */\n      swap3\n      swap2\n      pop\n      pop\n      jump\t// out\n        /* \"#utility.yul\":1818:2072   */\n    tag_37:\n        /* \"#utility.yul\":1927:1931   */\n      0x00\n        /* \"#utility.yul\":1965:1967   */\n      0x20\n        /* \"#utility.yul\":1954:1963   */\n      dup3\n        /* \"#utility.yul\":1950:1968   */\n      add\n        /* \"#utility.yul\":1942:1968   */\n      swap1\n      pop\n        /* \"#utility.yul\":1978:2065   */\n      tag_108\n        /* \"#utility.yul\":2062:2063   */\n      0x00\n        /* \"#utility.yul\":2051:2060   */\n      dup4\n        /* \"#utility.yul\":2047:2064   */\n      add\n        /* \"#utility.yul\":2038:2044   */\n      dup5\n        /* \"#utility.yul\":1978:2065   */\n      tag_84\n      jump\t// in\n    tag_108:\n        /* \"#utility.yul\":1818:2072   */\n      swap3\n      swap2\n      pop\n      pop\n      jump\t// out\n        /* \"#utility.yul\":2078:2300   */\n    tag_18:\n        /* \"#utility.yul\":2171:2175   */\n      0x00\n        /* \"#utility.yul\":2209:2211   */\n      0x20\n        /* \"#utility.yul\":2198:2207   */\n      dup3\n        /* \"#utility.yul\":2194:2212   */\n      add\n        /* \"#utility.yul\":2186:2212   */\n      swap1\n      pop\n        /* \"#utility.yul\":2222:2293   */\n      tag_110\n        /* \"#utility.yul\":2290:2291   */\n      0x00\n        /* \"#utility.yul\":2279:2288   */\n      dup4\n        /* \"#utility.yul\":2275:2292   */\n      add\n        /* \"#utility.yul\":2266:2272   */\n      dup5\n        /* \"#utility.yul\":2222:2293   */\n      tag_92\n      jump\t// in\n    tag_110:\n        /* \"#utility.yul\":2078:2300   */\n      swap3\n      swap2\n      pop\n      pop\n      jump\t// out\n        /* \"#utility.yul\":2387:2483   */\n    tag_91:\n        /* \"#utility.yul\":2424:2431   */\n      0x00\n        /* \"#utility.yul\":2453:2477   */\n      tag_114\n        /* \"#utility.yul\":2471:2476   */\n      dup3\n        /* \"#utility.yul\":2453:2477   */\n      tag_115\n      jump\t// in\n    tag_114:\n        /* \"#utility.yul\":2442:2477   */\n      swap1\n      pop\n        /* \"#utility.yul\":2387:2483   */\n      swap2\n      swap1\n      pop\n      jump\t// out\n        /* \"#utility.yul\":2489:2593   */\n    tag_87:\n        /* \"#utility.yul\":2534:2541   */\n      0x00\n        /* \"#utility.yul\":2563:2587   */\n      tag_117\n        /* \"#utility.yul\":2581:2586   */\n      dup3\n        /* \"#utility.yul\":2563:2587   */\n      tag_115\n      jump\t// in\n    tag_117:\n        /* \"#utility.yul\":2552:2587   */\n      swap1\n      pop\n        /* \"#utility.yul\":2489:2593   */\n      swap2\n      swap1\n      pop\n      jump\t// out\n        /* \"#utility.yul\":2599:2725   */\n    tag_115:\n        /* \"#utility.yul\":2636:2643   */\n      0x00\n        /* \"#utility.yul\":2676:2718   */\n      0xffffffffffffffffffffffffffffffffffffffff\n        /* \"#utility.yul\":2669:2674   */\n      dup3\n        /* \"#utility.yul\":2665:2719   */\n      and\n        /* \"#utility.yul\":2654:2719   */\n      swap1\n      pop\n        /* \"#utility.yul\":2599:2725   */\n      swap2\n      swap1\n      pop\n      jump\t// out\n        /* \"#utility.yul\":2731:2808   */\n    tag_95:\n        /* \"#utility.yul\":2768:2775   */\n      0x00\n        /* \"#utility.yul\":2797:2802   */\n      dup2\n        /* \"#utility.yul\":2786:2802   */\n      swap1\n      pop\n        /* \"#utility.yul\":2731:2808   */\n      swap2\n      swap1\n      pop\n      jump\t// out\n        /* \"#utility.yul\":2814:3047   */\n    tag_73:\n        /* \"#utility.yul\":2853:2856   */\n      0x00\n        /* \"#utility.yul\":2876:2900   */\n      tag_121\n        /* \"#utility.yul\":2894:2899   */\n      dup3\n        /* \"#utility.yul\":2876:2900   */\n      tag_95\n      jump\t// in\n    tag_121:\n        /* \"#utility.yul\":2867:2900   */\n      swap2\n      pop\n        /* \"#utility.yul\":2922:2988   */\n      0xffffffffffffffffffffffffffffffffffffffffffffffffffffffffffffffff\n        /* \"#utility.yul\":2915:2920   */\n      dup3\n        /* \"#utility.yul\":2912:2989   */\n      eq\n        /* \"#utility.yul\":2909:3012   */\n      iszero\n      tag_122\n      jumpi\n        /* \"#utility.yul\":2992:3010   */\n      tag_123\n      tag_124\n      jump\t// in\n    tag_123:\n        /* \"#utility.yul\":2909:3012   */\n    tag_122:\n        /* \"#utility.yul\":3039:3040   */\n      0x01\n        /* \"#utility.yul\":3032:3037   */\n      dup3\n        /* \"#utility.yul\":3028:3041   */\n      add\n        /* \"#utility.yul\":3021:3041   */\n      swap1\n      pop\n        /* \"#utility.yul\":2814:3047   */\n      swap2\n      swap1\n      pop\n      jump\t// out\n        /* \"#utility.yul\":3053:3132   */\n    tag_100:\n        /* \"#utility.yul\":3092:3099   */\n      0x00\n        /* \"#utility.yul\":3121:3126   */\n      dup2\n        /* \"#utility.yul\":3110:3126   */\n      swap1\n      pop\n        /* \"#utility.yul\":3053:3132   */\n      swap2\n      swap1\n      pop\n      jump\t// out\n        /* \"#utility.yul\":3138:3314   */\n    tag_45:\n        /* \"#utility.yul\":3170:3171   */\n      0x00\n        /* \"#utility.yul\":3187:3207   */\n      tag_127\n        /* \"#utility.yul\":3205:3206   */\n      dup3\n        /* \"#utility.yul\":3187:3207   */\n      tag_95\n      jump\t// in\n    tag_127:\n        /* \"#utility.yul\":3182:3207   */\n      swap2\n      pop\n        /* \"#utility.yul\":3221:3241   */\n      tag_128\n        /* \"#utility.yul\":3239:3240   */\n      dup4\n        /* \"#utility.yul\":3221:3241   */\n      tag_95\n      jump\t// in\n    tag_128:\n        /* \"#utility.yul\":3216:3241   */\n      swap3\n      pop\n        /* \"#utility.yul\":3260:3261   */\n      dup3\n        /* \"#utility.yul\":3250:3285   */\n      tag_129\n      jumpi\n        /* \"#utility.yul\":3265:3283   */\n      tag_130\n      tag_131\n      jump\t// in\n    tag_130:\n        /* \"#utility.yul\":3250:3285   */\n    tag_129:\n        /* \"#utility.yul\":3306:3307   */\n      dup3\n        /* \"#utility.yul\":3303:3304   */\n      dup3\n        /* \"#utility.yul\":3299:3308   */\n      mod\n        /* \"#utility.yul\":3294:3308   */\n      swap1\n      pop\n        /* \"#utility.yul\":3138:3314   */\n      swap3\n      swap2\n      pop\n      pop\n      jump\t// out\n        /* \"#utility.yul\":3320:3500   */\n    tag_124:\n        /* \"#utility.yul\":3368:3445   */\n      0x4e487b7100000000000000000000000000000000000000000000000000000000\n        /* \"#utility.yul\":3365:3366   */\n      0x00\n        /* \"#utility.yul\":3358:3446   */\n      mstore\n        /* \"#utility.yul\":3465:3469   */\n      0x11\n        /* \"#utility.yul\":3462:3463   */\n      0x04\n        /* \"#utility.yul\":3455:3470   */\n      mstore\n        /* \"#utility.yul\":3489:3493   */\n      0x24\n        /* \"#utility.yul\":3486:3487   */\n      0x00\n        /* \"#utility.yul\":3479:3494   */\n      revert\n        /* \"#utility.yul\":3506:3686   */\n    tag_131:\n        /* \"#utility.yul\":3554:3631   */\n      0x4e487b7100000000000000000000000000000000000000000000000000000000\n        /* \"#utility.yul\":3551:3552   */\n      0x00\n        /* \"#utility.yul\":3544:3632   */\n      mstore\n        /* \"#utility.yul\":3651:3655   */\n      0x12\n        /* \"#utility.yul\":3648:3649   */\n      0x04\n        /* \"#utility.yul\":3641:3656   */\n      mstore\n        /* \"#utility.yul\":3675:3679   */\n      0x24\n        /* \"#utility.yul\":3672:3673   */\n      0x00\n        /* \"#utility.yul\":3665:3680   */\n      revert\n        /* \"#utility.yul\":3692:3872   */\n    tag_70:\n        /* \"#utility.yul\":3740:3817   */\n      0x4e487b7100000000000000000000000000000000000000000000000000000000\n        /* \"#utility.yul\":3737:3738   */\n      0x00\n        /* \"#utility.yul\":3730:3818   */\n      mstore\n        /* \"#utility.yul\":3837:3841   */\n      0x31\n        /* \"#utility.yul\":3834:3835   */\n      0x04\n        /* \"#utility.yul\":3827:3842   */\n      mstore\n        /* \"#utility.yul\":3861:3865   */\n      0x24\n        /* \"#utility.yul\":3858:3859   */\n      0x00\n        /* \"#utility.yul\":3851:3866   */\n      revert\n        /* \"#utility.yul\":3878:4058   */\n    tag_48:\n        /* \"#utility.yul\":3926:4003   */\n      0x4e487b7100000000000000000000000000000000000000000000000000000000\n        /* \"#utility.yul\":3923:3924   */\n      0x00\n        /* \"#utility.yul\":3916:4004   */\n      mstore\n        /* \"#utility.yul\":4023:4027   */\n      0x32\n        /* \"#utility.yul\":4020:4021   */\n      0x04\n        /* \"#utility.yul\":4013:4028   */\n      mstore\n        /* \"#utility.yul\":4047:4051   */\n      0x24\n        /* \"#utility.yul\":4044:4045   */\n      0x00\n        /* \"#utility.yul\":4037:4052   */\n      revert\n        /* \"#utility.yul\":4187:4304   */\n    tag_82:\n        /* \"#utility.yul\":4296:4297   */\n      0x00\n        /* \"#utility.yul\":4293:4294   */\n      dup1\n        /* \"#utility.yul\":4286:4298   */\n      revert\n        /* \"#utility.yul\":4310:4432   */\n    tag_78:\n        /* \"#utility.yul\":4383:4407   */\n      tag_140\n        /* \"#utility.yul\":4401:4406   */\n      dup2\n        /* \"#utility.yul\":4383:4407   */\n      tag_95\n      jump\t// in\n    tag_140:\n        /* \"#utility.yul\":4376:4381   */\n      dup2\n        /* \"#utility.yul\":4373:4408   */\n      eq\n        /* \"#utility.yul\":4363:4426   */\n      tag_141\n      jumpi\n        /* \"#utility.yul\":4422:4423   */\n      0x00\n        /* \"#utility.yul\":4419:4420   */\n      dup1\n        /* \"#utility.yul\":4412:4424   */\n      revert\n        /* \"#utility.yul\":4363:4426   */\n    tag_141:\n        /* \"#utility.yul\":4310:4432   */\n      pop\n      jump\t// out\n\n    auxdata: 0xa264697066735822122011715cdc5055fe14b49a136d88a14dfc253647c00dba5d641c13de21c51346b164736f6c63430008070033\n}\n",
				"bytecode": {
					"linkReferences": {},
					"object": "60a060405234801561001057600080fd5b503373ffffffffffffffffffffffffffffffffffffffff1660808173ffffffffffffffffffffffffffffffffffffffff1660601b8152505061005661005b60201b60201c565b61017e565b60008080549050905060005b818110156100c95760008054806100815761008061014f565b5b6001900381819060005260206000200160006101000a81549073ffffffffffffffffffffffffffffffffffffffff0219169055905580806100c1906100d7565b915050610067565b5050565b6000819050919050565b60006100e2826100cd565b91507fffffffffffffffffffffffffffffffffffffffffffffffffffffffffffffffff82141561011557610114610120565b5b600182019050919050565b7f4e487b7100000000000000000000000000000000000000000000000000000000600052601160045260246000fd5b7f4e487b7100000000000000000000000000000000000000000000000000000000600052603160045260246000fd5b60805160601c6107916101b1600039600081816101aa015281816102080152818161024301526103a101526107916000f3fe60806040526004361061004e5760003560e01c806312065fe0146100d1578063481c6a75146100fc5780635d495aea146101275780635ec01e4d1461013e578063f71d96cb14610169576100cc565b366100cc5767016345785d8a0000341461006757600080fd5b6000339080600181540180825580915050600190039060005260206000200160009091909190916101000a81548173ffffffffffffffffffffffffffffffffffffffff021916908373ffffffffffffffffffffffffffffffffffffffff160217905550005b600080fd5b3480156100dd57600080fd5b506100e66101a6565b6040516100f39190610596565b60405180910390f35b34801561010857600080fd5b50610111610206565b60405161011e9190610560565b60405180910390f35b34801561013357600080fd5b5061013c61022a565b005b34801561014a57600080fd5b5061015361030f565b6040516101609190610596565b60405180910390f35b34801561017557600080fd5b50610190600480360381019061018b91906104b2565b610349565b60405161019d919061057b565b60405180910390f35b60007f000000000000000000000000000000000000000000000000000000000000000073ffffffffffffffffffffffffffffffffffffffff163373ffffffffffffffffffffffffffffffffffffffff161461020057600080fd5b47905090565b7f000000000000000000000000000000000000000000000000000000000000000081565b3373ffffffffffffffffffffffffffffffffffffffff167f000000000000000000000000000000000000000000000000000000000000000073ffffffffffffffffffffffffffffffffffffffff161461028257600080fd5b6003600080549050101561029557600080fd5b600080805490506102a461030f565b6102ae9190610652565b905060008082815481106102c5576102c4610710565b5b9060005260206000200160009054906101000a900473ffffffffffffffffffffffffffffffffffffffff169050610303816102fe6101a6565b610388565b61030b61042b565b5050565b6000444260008054905060405160200161032b93929190610523565b6040516020818303038152906040528051906020012060001c905090565b6000818154811061035957600080fd5b906000526020600020016000915054906101000a900473ffffffffffffffffffffffffffffffffffffffff1681565b3373ffffffffffffffffffffffffffffffffffffffff167f000000000000000000000000000000000000000000000000000000000000000073ffffffffffffffffffffffffffffffffffffffff16146103e057600080fd5b8173ffffffffffffffffffffffffffffffffffffffff166108fc829081150290604051600060405180830381858888f19350505050158015610426573d6000803e3d6000fd5b505050565b60008080549050905060005b81811015610499576000805480610451576104506106e1565b5b6001900381819060005260206000200160006101000a81549073ffffffffffffffffffffffffffffffffffffffff021916905590558080610491906105ff565b915050610437565b5050565b6000813590506104ac81610744565b92915050565b6000602082840312156104c8576104c761073f565b5b60006104d68482850161049d565b91505092915050565b6104e8816105c3565b82525050565b6104f7816105b1565b82525050565b610506816105f5565b82525050565b61051d610518826105f5565b610648565b82525050565b600061052f828661050c565b60208201915061053f828561050c565b60208201915061054f828461050c565b602082019150819050949350505050565b600060208201905061057560008301846104ee565b92915050565b600060208201905061059060008301846104df565b92915050565b60006020820190506105ab60008301846104fd565b92915050565b60006105bc826105d5565b9050919050565b60006105ce826105d5565b9050919050565b600073ffffffffffffffffffffffffffffffffffffffff82169050919050565b6000819050919050565b600061060a826105f5565b91507fffffffffffffffffffffffffffffffffffffffffffffffffffffffffffffffff82141561063d5761063c610683565b5b600182019050919050565b6000819050919050565b600061065d826105f5565b9150610668836105f5565b925082610678576106776106b2565b5b828206905092915050565b7f4e487b7100000000000000000000000000000000000000000000000000000000600052601160045260246000fd5b7f4e487b7100000000000000000000000000000000000000000000000000000000600052601260045260246000fd5b7f4e487b7100000000000000000000000000000000000000000000000000000000600052603160045260246000fd5b7f4e487b7100000000000000000000000000000000000000000000000000000000600052603260045260246000fd5b600080fd5b61074d816105f5565b811461075857600080fd5b5056fea264697066735822122011715cdc5055fe14b49a136d88a14dfc253647c00dba5d641c13de21c51346b164736f6c63430008070033",
					"opcodes": "PUSH1 0xA0 PUSH1 0x40 MSTORE CALLVALUE DUP1 ISZERO PUSH2 0x10 JUMPI PUSH1 0x0 DUP1 REVERT JUMPDEST POP CALLER PUSH20 0xFFFFFFFFFFFFFFFFFFFFFFFFFFFFFFFFFFFFFFFF AND PUSH1 0x80 DUP2 PUSH20 0xFFFFFFFFFFFFFFFFFFFFFFFFFFFFFFFFFFFFFFFF AND PUSH1 0x60 SHL DUP2 MSTORE POP POP PUSH2 0x56 PUSH2 0x5B PUSH1 0x20 SHL PUSH1 0x20 SHR JUMP JUMPDEST PUSH2 0x17E JUMP JUMPDEST PUSH1 0x0 DUP1 DUP1 SLOAD SWAP1 POP SWAP1 POP PUSH1 0x0 JUMPDEST DUP2 DUP2 LT ISZERO PUSH2 0xC9 JUMPI PUSH1 0x0 DUP1 SLOAD DUP1 PUSH2 0x81 JUMPI PUSH2 0x80 PUSH2 0x14F JUMP JUMPDEST JUMPDEST PUSH1 0x1 SWAP1 SUB DUP2 DUP2 SWAP1 PUSH1 0x0 MSTORE PUSH1 0x20 PUSH1 0x0 KECCAK256 ADD PUSH1 0x0 PUSH2 0x100 EXP DUP2 SLOAD SWAP1 PUSH20 0xFFFFFFFFFFFFFFFFFFFFFFFFFFFFFFFFFFFFFFFF MUL NOT AND SWAP1 SSTORE SWAP1 SSTORE DUP1 DUP1 PUSH2 0xC1 SWAP1 PUSH2 0xD7 JUMP JUMPDEST SWAP2 POP POP PUSH2 0x67 JUMP JUMPDEST POP POP JUMP JUMPDEST PUSH1 0x0 DUP2 SWAP1 POP SWAP2 SWAP1 POP JUMP JUMPDEST PUSH1 0x0 PUSH2 0xE2 DUP3 PUSH2 0xCD JUMP JUMPDEST SWAP2 POP PUSH32 0xFFFFFFFFFFFFFFFFFFFFFFFFFFFFFFFFFFFFFFFFFFFFFFFFFFFFFFFFFFFFFFFF DUP3 EQ ISZERO PUSH2 0x115 JUMPI PUSH2 0x114 PUSH2 0x120 JUMP JUMPDEST JUMPDEST PUSH1 0x1 DUP3 ADD SWAP1 POP SWAP2 SWAP1 POP JUMP JUMPDEST PUSH32 0x4E487B7100000000000000000000000000000000000000000000000000000000 PUSH1 0x0 MSTORE PUSH1 0x11 PUSH1 0x4 MSTORE PUSH1 0x24 PUSH1 0x0 REVERT JUMPDEST PUSH32 0x4E487B7100000000000000000000000000000000000000000000000000000000 PUSH1 0x0 MSTORE PUSH1 0x31 PUSH1 0x4 MSTORE PUSH1 0x24 PUSH1 0x0 REVERT JUMPDEST PUSH1 0x80 MLOAD PUSH1 0x60 SHR PUSH2 0x791 PUSH2 0x1B1 PUSH1 0x0 CODECOPY PUSH1 0x0 DUP2 DUP2 PUSH2 0x1AA ADD MSTORE DUP2 DUP2 PUSH2 0x208 ADD MSTORE DUP2 DUP2 PUSH2 0x243 ADD MSTORE PUSH2 0x3A1 ADD MSTORE PUSH2 0x791 PUSH1 0x0 RETURN INVALID PUSH1 0x80 PUSH1 0x40 MSTORE PUSH1 0x4 CALLDATASIZE LT PUSH2 0x4E JUMPI PUSH1 0x0 CALLDATALOAD PUSH1 0xE0 SHR DUP1 PUSH4 0x12065FE0 EQ PUSH2 0xD1 JUMPI DUP1 PUSH4 0x481C6A75 EQ PUSH2 0xFC JUMPI DUP1 PUSH4 0x5D495AEA EQ PUSH2 0x127 JUMPI DUP1 PUSH4 0x5EC01E4D EQ PUSH2 0x13E JUMPI DUP1 PUSH4 0xF71D96CB EQ PUSH2 0x169 JUMPI PUSH2 0xCC JUMP JUMPDEST CALLDATASIZE PUSH2 0xCC JUMPI PUSH8 0x16345785D8A0000 CALLVALUE EQ PUSH2 0x67 JUMPI PUSH1 0x0 DUP1 REVERT JUMPDEST PUSH1 0x0 CALLER SWAP1 DUP1 PUSH1 0x1 DUP2 SLOAD ADD DUP1 DUP3 SSTORE DUP1 SWAP2 POP POP PUSH1 0x1 SWAP1 SUB SWAP1 PUSH1 0x0 MSTORE PUSH1 0x20 PUSH1 0x0 KECCAK256 ADD PUSH1 0x0 SWAP1 SWAP2 SWAP1 SWAP2 SWAP1 SWAP2 PUSH2 0x100 EXP DUP2 SLOAD DUP2 PUSH20 0xFFFFFFFFFFFFFFFFFFFFFFFFFFFFFFFFFFFFFFFF MUL NOT AND SWAP1 DUP4 PUSH20 0xFFFFFFFFFFFFFFFFFFFFFFFFFFFFFFFFFFFFFFFF AND MUL OR SWAP1 SSTORE POP STOP JUMPDEST PUSH1 0x0 DUP1 REVERT JUMPDEST CALLVALUE DUP1 ISZERO PUSH2 0xDD JUMPI PUSH1 0x0 DUP1 REVERT JUMPDEST POP PUSH2 0xE6 PUSH2 0x1A6 JUMP JUMPDEST PUSH1 0x40 MLOAD PUSH2 0xF3 SWAP2 SWAP1 PUSH2 0x596 JUMP JUMPDEST PUSH1 0x40 MLOAD DUP1 SWAP2 SUB SWAP1 RETURN JUMPDEST CALLVALUE DUP1 ISZERO PUSH2 0x108 JUMPI PUSH1 0x0 DUP1 REVERT JUMPDEST POP PUSH2 0x111 PUSH2 0x206 JUMP JUMPDEST PUSH1 0x40 MLOAD PUSH2 0x11E SWAP2 SWAP1 PUSH2 0x560 JUMP JUMPDEST PUSH1 0x40 MLOAD DUP1 SWAP2 SUB SWAP1 RETURN JUMPDEST CALLVALUE DUP1 ISZERO PUSH2 0x133 JUMPI PUSH1 0x0 DUP1 REVERT JUMPDEST POP PUSH2 0x13C PUSH2 0x22A JUMP JUMPDEST STOP JUMPDEST CALLVALUE DUP1 ISZERO PUSH2 0x14A JUMPI PUSH1 0x0 DUP1 REVERT JUMPDEST POP PUSH2 0x153 PUSH2 0x30F JUMP JUMPDEST PUSH1 0x40 MLOAD PUSH2 0x160 SWAP2 SWAP1 PUSH2 0x596 JUMP JUMPDEST PUSH1 0x40 MLOAD DUP1 SWAP2 SUB SWAP1 RETURN JUMPDEST CALLVALUE DUP1 ISZERO PUSH2 0x175 JUMPI PUSH1 0x0 DUP1 REVERT JUMPDEST POP PUSH2 0x190 PUSH1 0x4 DUP1 CALLDATASIZE SUB DUP2 ADD SWAP1 PUSH2 0x18B SWAP2 SWAP1 PUSH2 0x4B2 JUMP JUMPDEST PUSH2 0x349 JUMP JUMPDEST PUSH1 0x40 MLOAD PUSH2 0x19D SWAP2 SWAP1 PUSH2 0x57B JUMP JUMPDEST PUSH1 0x40 MLOAD DUP1 SWAP2 SUB SWAP1 RETURN JUMPDEST PUSH1 0x0 PUSH32 0x0 PUSH20 0xFFFFFFFFFFFFFFFFFFFFFFFFFFFFFFFFFFFFFFFF AND CALLER PUSH20 0xFFFFFFFFFFFFFFFFFFFFFFFFFFFFFFFFFFFFFFFF AND EQ PUSH2 0x200 JUMPI PUSH1 0x0 DUP1 REVERT JUMPDEST SELFBALANCE SWAP1 POP SWAP1 JUMP JUMPDEST PUSH32 0x0 DUP2 JUMP JUMPDEST CALLER PUSH20 0xFFFFFFFFFFFFFFFFFFFFFFFFFFFFFFFFFFFFFFFF AND PUSH32 0x0 PUSH20 0xFFFFFFFFFFFFFFFFFFFFFFFFFFFFFFFFFFFFFFFF AND EQ PUSH2 0x282 JUMPI PUSH1 0x0 DUP1 REVERT JUMPDEST PUSH1 0x3 PUSH1 0x0 DUP1 SLOAD SWAP1 POP LT ISZERO PUSH2 0x295 JUMPI PUSH1 0x0 DUP1 REVERT JUMPDEST PUSH1 0x0 DUP1 DUP1 SLOAD SWAP1 POP PUSH2 0x2A4 PUSH2 0x30F JUMP JUMPDEST PUSH2 0x2AE SWAP2 SWAP1 PUSH2 0x652 JUMP JUMPDEST SWAP1 POP PUSH1 0x0 DUP1 DUP3 DUP2 SLOAD DUP2 LT PUSH2 0x2C5 JUMPI PUSH2 0x2C4 PUSH2 0x710 JUMP JUMPDEST JUMPDEST SWAP1 PUSH1 0x0 MSTORE PUSH1 0x20 PUSH1 0x0 KECCAK256 ADD PUSH1 0x0 SWAP1 SLOAD SWAP1 PUSH2 0x100 EXP SWAP1 DIV PUSH20 0xFFFFFFFFFFFFFFFFFFFFFFFFFFFFFFFFFFFFFFFF AND SWAP1 POP PUSH2 0x303 DUP2 PUSH2 0x2FE PUSH2 0x1A6 JUMP JUMPDEST PUSH2 0x388 JUMP JUMPDEST PUSH2 0x30B PUSH2 0x42B JUMP JUMPDEST POP POP JUMP JUMPDEST PUSH1 0x0 DIFFICULTY TIMESTAMP PUSH1 0x0 DUP1 SLOAD SWAP1 POP PUSH1 0x40 MLOAD PUSH1 0x20 ADD PUSH2 0x32B SWAP4 SWAP3 SWAP2 SWAP1 PUSH2 0x523 JUMP JUMPDEST PUSH1 0x40 MLOAD PUSH1 0x20 DUP2 DUP4 SUB SUB DUP2 MSTORE SWAP1 PUSH1 0x40 MSTORE DUP1 MLOAD SWAP1 PUSH1 0x20 ADD KECCAK256 PUSH1 0x0 SHR SWAP1 POP SWAP1 JUMP JUMPDEST PUSH1 0x0 DUP2 DUP2 SLOAD DUP2 LT PUSH2 0x359 JUMPI PUSH1 0x0 DUP1 REVERT JUMPDEST SWAP1 PUSH1 0x0 MSTORE PUSH1 0x20 PUSH1 0x0 KECCAK256 ADD PUSH1 0x0 SWAP2 POP SLOAD SWAP1 PUSH2 0x100 EXP SWAP1 DIV PUSH20 0xFFFFFFFFFFFFFFFFFFFFFFFFFFFFFFFFFFFFFFFF AND DUP2 JUMP JUMPDEST CALLER PUSH20 0xFFFFFFFFFFFFFFFFFFFFFFFFFFFFFFFFFFFFFFFF AND PUSH32 0x0 PUSH20 0xFFFFFFFFFFFFFFFFFFFFFFFFFFFFFFFFFFFFFFFF AND EQ PUSH2 0x3E0 JUMPI PUSH1 0x0 DUP1 REVERT JUMPDEST DUP2 PUSH20 0xFFFFFFFFFFFFFFFFFFFFFFFFFFFFFFFFFFFFFFFF AND PUSH2 0x8FC DUP3 SWAP1 DUP2 ISZERO MUL SWAP1 PUSH1 0x40 MLOAD PUSH1 0x0 PUSH1 0x40 MLOAD DUP1 DUP4 SUB DUP2 DUP6 DUP9 DUP9 CALL SWAP4 POP POP POP POP ISZERO DUP1 ISZERO PUSH2 0x426 JUMPI RETURNDATASIZE PUSH1 0x0 DUP1 RETURNDATACOPY RETURNDATASIZE PUSH1 0x0 REVERT JUMPDEST POP POP POP JUMP JUMPDEST PUSH1 0x0 DUP1 DUP1 SLOAD SWAP1 POP SWAP1 POP PUSH1 0x0 JUMPDEST DUP2 DUP2 LT ISZERO PUSH2 0x499 JUMPI PUSH1 0x0 DUP1 SLOAD DUP1 PUSH2 0x451 JUMPI PUSH2 0x450 PUSH2 0x6E1 JUMP JUMPDEST JUMPDEST PUSH1 0x1 SWAP1 SUB DUP2 DUP2 SWAP1 PUSH1 0x0 MSTORE PUSH1 0x20 PUSH1 0x0 KECCAK256 ADD PUSH1 0x0 PUSH2 0x100 EXP DUP2 SLOAD SWAP1 PUSH20 0xFFFFFFFFFFFFFFFFFFFFFFFFFFFFFFFFFFFFFFFF MUL NOT AND SWAP1 SSTORE SWAP1 SSTORE DUP1 DUP1 PUSH2 0x491 SWAP1 PUSH2 0x5FF JUMP JUMPDEST SWAP2 POP POP PUSH2 0x437 JUMP JUMPDEST POP POP JUMP JUMPDEST PUSH1 0x0 DUP2 CALLDATALOAD SWAP1 POP PUSH2 0x4AC DUP2 PUSH2 0x744 JUMP JUMPDEST SWAP3 SWAP2 POP POP JUMP JUMPDEST PUSH1 0x0 PUSH1 0x20 DUP3 DUP5 SUB SLT ISZERO PUSH2 0x4C8 JUMPI PUSH2 0x4C7 PUSH2 0x73F JUMP JUMPDEST JUMPDEST PUSH1 0x0 PUSH2 0x4D6 DUP5 DUP3 DUP6 ADD PUSH2 0x49D JUMP JUMPDEST SWAP2 POP POP SWAP3 SWAP2 POP POP JUMP JUMPDEST PUSH2 0x4E8 DUP2 PUSH2 0x5C3 JUMP JUMPDEST DUP3 MSTORE POP POP JUMP JUMPDEST PUSH2 0x4F7 DUP2 PUSH2 0x5B1 JUMP JUMPDEST DUP3 MSTORE POP POP JUMP JUMPDEST PUSH2 0x506 DUP2 PUSH2 0x5F5 JUMP JUMPDEST DUP3 MSTORE POP POP JUMP JUMPDEST PUSH2 0x51D PUSH2 0x518 DUP3 PUSH2 0x5F5 JUMP JUMPDEST PUSH2 0x648 JUMP JUMPDEST DUP3 MSTORE POP POP JUMP JUMPDEST PUSH1 0x0 PUSH2 0x52F DUP3 DUP7 PUSH2 0x50C JUMP JUMPDEST PUSH1 0x20 DUP3 ADD SWAP2 POP PUSH2 0x53F DUP3 DUP6 PUSH2 0x50C JUMP JUMPDEST PUSH1 0x20 DUP3 ADD SWAP2 POP PUSH2 0x54F DUP3 DUP5 PUSH2 0x50C JUMP JUMPDEST PUSH1 0x20 DUP3 ADD SWAP2 POP DUP2 SWAP1 POP SWAP5 SWAP4 POP POP POP POP JUMP JUMPDEST PUSH1 0x0 PUSH1 0x20 DUP3 ADD SWAP1 POP PUSH2 0x575 PUSH1 0x0 DUP4 ADD DUP5 PUSH2 0x4EE JUMP JUMPDEST SWAP3 SWAP2 POP POP JUMP JUMPDEST PUSH1 0x0 PUSH1 0x20 DUP3 ADD SWAP1 POP PUSH2 0x590 PUSH1 0x0 DUP4 ADD DUP5 PUSH2 0x4DF JUMP JUMPDEST SWAP3 SWAP2 POP POP JUMP JUMPDEST PUSH1 0x0 PUSH1 0x20 DUP3 ADD SWAP1 POP PUSH2 0x5AB PUSH1 0x0 DUP4 ADD DUP5 PUSH2 0x4FD JUMP JUMPDEST SWAP3 SWAP2 POP POP JUMP JUMPDEST PUSH1 0x0 PUSH2 0x5BC DUP3 PUSH2 0x5D5 JUMP JUMPDEST SWAP1 POP SWAP2 SWAP1 POP JUMP JUMPDEST PUSH1 0x0 PUSH2 0x5CE DUP3 PUSH2 0x5D5 JUMP JUMPDEST SWAP1 POP SWAP2 SWAP1 POP JUMP JUMPDEST PUSH1 0x0 PUSH20 0xFFFFFFFFFFFFFFFFFFFFFFFFFFFFFFFFFFFFFFFF DUP3 AND SWAP1 POP SWAP2 SWAP1 POP JUMP JUMPDEST PUSH1 0x0 DUP2 SWAP1 POP SWAP2 SWAP1 POP JUMP JUMPDEST PUSH1 0x0 PUSH2 0x60A DUP3 PUSH2 0x5F5 JUMP JUMPDEST SWAP2 POP PUSH32 0xFFFFFFFFFFFFFFFFFFFFFFFFFFFFFFFFFFFFFFFFFFFFFFFFFFFFFFFFFFFFFFFF DUP3 EQ ISZERO PUSH2 0x63D JUMPI PUSH2 0x63C PUSH2 0x683 JUMP JUMPDEST JUMPDEST PUSH1 0x1 DUP3 ADD SWAP1 POP SWAP2 SWAP1 POP JUMP JUMPDEST PUSH1 0x0 DUP2 SWAP1 POP SWAP2 SWAP1 POP JUMP JUMPDEST PUSH1 0x0 PUSH2 0x65D DUP3 PUSH2 0x5F5 JUMP JUMPDEST SWAP2 POP PUSH2 0x668 DUP4 PUSH2 0x5F5 JUMP JUMPDEST SWAP3 POP DUP3 PUSH2 0x678 JUMPI PUSH2 0x677 PUSH2 0x6B2 JUMP JUMPDEST JUMPDEST DUP3 DUP3 MOD SWAP1 POP SWAP3 SWAP2 POP POP JUMP JUMPDEST PUSH32 0x4E487B7100000000000000000000000000000000000000000000000000000000 PUSH1 0x0 MSTORE PUSH1 0x11 PUSH1 0x4 MSTORE PUSH1 0x24 PUSH1 0x0 REVERT JUMPDEST PUSH32 0x4E487B7100000000000000000000000000000000000000000000000000000000 PUSH1 0x0 MSTORE PUSH1 0x12 PUSH1 0x4 MSTORE PUSH1 0x24 PUSH1 0x0 REVERT JUMPDEST PUSH32 0x4E487B7100000000000000000000000000000000000000000000000000000000 PUSH1 0x0 MSTORE PUSH1 0x31 PUSH1 0x4 MSTORE PUSH1 0x24 PUSH1 0x0 REVERT JUMPDEST PUSH32 0x4E487B7100000000000000000000000000000000000000000000000000000000 PUSH1 0x0 MSTORE PUSH1 0x32 PUSH1 0x4 MSTORE PUSH1 0x24 PUSH1 0x0 REVERT JUMPDEST PUSH1 0x0 DUP1 REVERT JUMPDEST PUSH2 0x74D DUP2 PUSH2 0x5F5 JUMP JUMPDEST DUP2 EQ PUSH2 0x758 JUMPI PUSH1 0x0 DUP1 REVERT JUMPDEST POP JUMP INVALID LOG2 PUSH5 0x6970667358 0x22 SLT KECCAK256 GT PUSH18 0x5CDC5055FE14B49A136D88A14DFC253647C0 0xD 0xBA 0x5D PUSH5 0x1C13DE21C5 SGT CHAINID 0xB1 PUSH5 0x736F6C6343 STOP ADDMOD SMOD STOP CALLER "
				},
				"gasEstimates": {
					"creation": {
						"codeDepositCost": "387400",
						"executionCost": "infinite",
						"totalCost": "infinite"
					},
					"external": {
						"": "179",
						"getBalance()": "infinite",
						"manager()": "infinite",
						"pickWinner()": "infinite",
						"players(uint256)": "5022",
						"random()": "infinite"
					},
					"internal": {
						"deleteAllPlayers()": "infinite",
						"transferEthToWinner(address payable,uint256)": "infinite"
					}
				},
				"methodIdentifiers": {
					"getBalance()": "12065fe0",
					"manager()": "481c6a75",
					"pickWinner()": "5d495aea",
					"players(uint256)": "f71d96cb",
					"random()": "5ec01e4d"
				}
			},
			"storageLayout": {
				"storage": [
					{
						"astId": 6,
						"contract": "contracts/lottery.sol:Lottery",
						"label": "players",
						"offset": 0,
						"slot": "0",
						"type": "t_array(t_address_payable)dyn_storage"
					}
				],
				"types": {
					"t_address_payable": {
						"encoding": "inplace",
						"label": "address payable",
						"numberOfBytes": "20"
					},
					"t_array(t_address_payable)dyn_storage": {
						"base": "t_address_payable",
						"encoding": "dynamic_array",
						"label": "address payable[]",
						"numberOfBytes": "32"
					}
				}
			},
			"userdoc": {
				"kind": "user",
				"methods": {},
				"version": 1
			}
		}
	}
}