{
	"contracts/lottery.sol": {
		"Lottery": {
			"abi": [
				{
					"inputs": [],
					"stateMutability": "nonpayable",
					"type": "constructor"
				},
				{
					"stateMutability": "payable",
					"type": "fallback"
				},
				{
					"inputs": [],
					"name": "endLottery",
					"outputs": [],
					"stateMutability": "nonpayable",
					"type": "function"
				},
				{
					"inputs": [],
					"name": "manager",
					"outputs": [
						{
							"internalType": "address",
							"name": "",
							"type": "address"
						}
					],
					"stateMutability": "view",
					"type": "function"
				},
				{
					"inputs": [
						{
							"internalType": "uint256",
							"name": "",
							"type": "uint256"
						}
					],
					"name": "players",
					"outputs": [
						{
							"internalType": "address payable",
							"name": "",
							"type": "address"
						}
					],
					"stateMutability": "view",
					"type": "function"
				},
				{
					"inputs": [
						{
							"internalType": "address payable",
							"name": "recipient",
							"type": "address"
						},
						{
							"internalType": "uint256",
							"name": "amount",
							"type": "uint256"
						}
					],
					"name": "transferEthToWinner",
					"outputs": [],
					"stateMutability": "nonpayable",
					"type": "function"
				},
				{
					"stateMutability": "payable",
					"type": "receive"
				}
			],
			"devdoc": {
				"kind": "dev",
				"methods": {},
				"version": 1
			},
			"evm": {
				"assembly": "    /* \"contracts/lottery.sol\":73:1139  contract Lottery{\r... */\n  mstore(0x40, 0xa0)\n    /* \"contracts/lottery.sol\":178:259  constructor(){\r... */\n  callvalue\n  dup1\n  iszero\n  tag_1\n  jumpi\n  0x00\n  dup1\n  revert\ntag_1:\n  pop\n    /* \"contracts/lottery.sol\":212:222  msg.sender */\n  caller\n    /* \"contracts/lottery.sol\":202:222  manager = msg.sender */\n  0xffffffffffffffffffffffffffffffffffffffff\n  and\n  0x80\n  dup2\n  0xffffffffffffffffffffffffffffffffffffffff\n  and\n  0x60\n  shl\n  dup2\n  mstore\n  pop\n  pop\n    /* \"contracts/lottery.sol\":233:251  deleteAllPlayers() */\n  tag_4\n    /* \"contracts/lottery.sol\":233:249  deleteAllPlayers */\n  shl(0x20, tag_5)\n    /* \"contracts/lottery.sol\":233:251  deleteAllPlayers() */\n  0x20\n  shr\n  jump\t// in\ntag_4:\n    /* \"contracts/lottery.sol\":73:1139  contract Lottery{\r... */\n  jump(tag_6)\n    /* \"contracts/lottery.sol\":983:1136  function deleteAllPlayers() private {\r... */\ntag_5:\n    /* \"contracts/lottery.sol\":1030:1036  uint j */\n  0x00\n    /* \"contracts/lottery.sol\":1039:1046  players */\n  dup1\n    /* \"contracts/lottery.sol\":1039:1053  players.length */\n  dup1\n  sload\n  swap1\n  pop\n    /* \"contracts/lottery.sol\":1030:1053  uint j = players.length */\n  swap1\n  pop\n    /* \"contracts/lottery.sol\":1068:1074  uint i */\n  0x00\n    /* \"contracts/lottery.sol\":1064:1129  for(uint i = 0; i<j; i++){\r... */\ntag_8:\n    /* \"contracts/lottery.sol\":1082:1083  j */\n  dup2\n    /* \"contracts/lottery.sol\":1080:1081  i */\n  dup2\n    /* \"contracts/lottery.sol\":1080:1083  i<j */\n  lt\n    /* \"contracts/lottery.sol\":1064:1129  for(uint i = 0; i<j; i++){\r... */\n  iszero\n  tag_9\n  jumpi\n    /* \"contracts/lottery.sol\":1104:1111  players */\n  0x00\n    /* \"contracts/lottery.sol\":1104:1117  players.pop() */\n  dup1\n  sload\n  dup1\n  tag_11\n  jumpi\n  tag_12\n  tag_13\n  jump\t// in\ntag_12:\ntag_11:\n  0x01\n  swap1\n  sub\n  dup2\n  dup2\n  swap1\n  0x00\n  mstore\n  keccak256(0x00, 0x20)\n  add\n  exp(0x0100, 0x00)\n  dup2\n  sload\n  swap1\n  0xffffffffffffffffffffffffffffffffffffffff\n  mul\n  not\n  and\n  swap1\n  sstore\n  swap1\n  sstore\n    /* \"contracts/lottery.sol\":1085:1088  i++ */\n  dup1\n  dup1\n  tag_15\n  swap1\n  tag_16\n  jump\t// in\ntag_15:\n  swap2\n  pop\n  pop\n    /* \"contracts/lottery.sol\":1064:1129  for(uint i = 0; i<j; i++){\r... */\n  jump(tag_8)\ntag_9:\n  pop\n    /* \"contracts/lottery.sol\":1019:1136  {\r... */\n  pop\n    /* \"contracts/lottery.sol\":983:1136  function deleteAllPlayers() private {\r... */\n  jump\t// out\n    /* \"#utility.yul\":7:84   */\ntag_18:\n    /* \"#utility.yul\":44:51   */\n  0x00\n    /* \"#utility.yul\":73:78   */\n  dup2\n    /* \"#utility.yul\":62:78   */\n  swap1\n  pop\n    /* \"#utility.yul\":7:84   */\n  swap2\n  swap1\n  pop\n  jump\t// out\n    /* \"#utility.yul\":90:323   */\ntag_16:\n    /* \"#utility.yul\":129:132   */\n  0x00\n    /* \"#utility.yul\":152:176   */\n  tag_21\n    /* \"#utility.yul\":170:175   */\n  dup3\n    /* \"#utility.yul\":152:176   */\n  tag_18\n  jump\t// in\ntag_21:\n    /* \"#utility.yul\":143:176   */\n  swap2\n  pop\n    /* \"#utility.yul\":198:264   */\n  0xffffffffffffffffffffffffffffffffffffffffffffffffffffffffffffffff\n    /* \"#utility.yul\":191:196   */\n  dup3\n    /* \"#utility.yul\":188:265   */\n  eq\n    /* \"#utility.yul\":185:288   */\n  iszero\n  tag_22\n  jumpi\n    /* \"#utility.yul\":268:286   */\n  tag_23\n  tag_24\n  jump\t// in\ntag_23:\n    /* \"#utility.yul\":185:288   */\ntag_22:\n    /* \"#utility.yul\":315:316   */\n  0x01\n    /* \"#utility.yul\":308:313   */\n  dup3\n    /* \"#utility.yul\":304:317   */\n  add\n    /* \"#utility.yul\":297:317   */\n  swap1\n  pop\n    /* \"#utility.yul\":90:323   */\n  swap2\n  swap1\n  pop\n  jump\t// out\n    /* \"#utility.yul\":329:509   */\ntag_24:\n    /* \"#utility.yul\":377:454   */\n  0x4e487b7100000000000000000000000000000000000000000000000000000000\n    /* \"#utility.yul\":374:375   */\n  0x00\n    /* \"#utility.yul\":367:455   */\n  mstore\n    /* \"#utility.yul\":474:478   */\n  0x11\n    /* \"#utility.yul\":471:472   */\n  0x04\n    /* \"#utility.yul\":464:479   */\n  mstore\n    /* \"#utility.yul\":498:502   */\n  0x24\n    /* \"#utility.yul\":495:496   */\n  0x00\n    /* \"#utility.yul\":488:503   */\n  revert\n    /* \"#utility.yul\":515:695   */\ntag_13:\n    /* \"#utility.yul\":563:640   */\n  0x4e487b7100000000000000000000000000000000000000000000000000000000\n    /* \"#utility.yul\":560:561   */\n  0x00\n    /* \"#utility.yul\":553:641   */\n  mstore\n    /* \"#utility.yul\":660:664   */\n  0x31\n    /* \"#utility.yul\":657:658   */\n  0x04\n    /* \"#utility.yul\":650:665   */\n  mstore\n    /* \"#utility.yul\":684:688   */\n  0x24\n    /* \"#utility.yul\":681:682   */\n  0x00\n    /* \"#utility.yul\":674:689   */\n  revert\n    /* \"contracts/lottery.sol\":73:1139  contract Lottery{\r... */\ntag_6:\n  shr(0x60, mload(0x80))\n  codecopy(0x00, dataOffset(sub_0), dataSize(sub_0))\n  0x00\n  assignImmutable(\"0x2a80e1ef1d7842f27f2e6be0972bb708b9a135c38860dbe73c27c3486c34f4de\")\n  return(0x00, dataSize(sub_0))\nstop\n\nsub_0: assembly {\n        /* \"contracts/lottery.sol\":73:1139  contract Lottery{\r... */\n      mstore(0x40, 0x80)\n      jumpi(tag_1, lt(calldatasize, 0x04))\n      shr(0xe0, calldataload(0x00))\n      dup1\n      0x10c5762e\n      eq\n      tag_3\n      jumpi\n      dup1\n      0x1593a8c7\n      eq\n      tag_4\n      jumpi\n      dup1\n      0x481c6a75\n      eq\n      tag_5\n      jumpi\n      dup1\n      0xf71d96cb\n      eq\n      tag_6\n      jumpi\n      jump(tag_2)\n    tag_1:\n      jumpi(tag_2, calldatasize)\n        /* \"contracts/lottery.sol\":320:338  100000000000000000 */\n      0x016345785d8a0000\n        /* \"contracts/lottery.sol\":307:316  msg.value */\n      callvalue\n        /* \"contracts/lottery.sol\":307:338  msg.value == 100000000000000000 */\n      eq\n        /* \"contracts/lottery.sol\":304:431  if(msg.value == 100000000000000000){\r... */\n      iszero\n      tag_9\n      jumpi\n        /* \"contracts/lottery.sol\":354:361  players */\n      0x00\n        /* \"contracts/lottery.sol\":375:385  msg.sender */\n      caller\n        /* \"contracts/lottery.sol\":354:387  players.push(payable(msg.sender)) */\n      swap1\n      dup1\n      0x01\n      dup2\n      sload\n      add\n      dup1\n      dup3\n      sstore\n      dup1\n      swap2\n      pop\n      pop\n      0x01\n      swap1\n      sub\n      swap1\n      0x00\n      mstore\n      keccak256(0x00, 0x20)\n      add\n      0x00\n      swap1\n      swap2\n      swap1\n      swap2\n      swap1\n      swap2\n      0x0100\n      exp\n      dup2\n      sload\n      dup2\n      0xffffffffffffffffffffffffffffffffffffffff\n      mul\n      not\n      and\n      swap1\n      dup4\n      0xffffffffffffffffffffffffffffffffffffffff\n      and\n      mul\n      or\n      swap1\n      sstore\n      pop\n        /* \"contracts/lottery.sol\":304:431  if(msg.value == 100000000000000000){\r... */\n      jump(tag_11)\n    tag_9:\n    tag_11:\n        /* \"contracts/lottery.sol\":73:1139  contract Lottery{\r... */\n      stop\n    tag_2:\n      stop\n        /* \"contracts/lottery.sol\":812:975  function transferEthToWinner(address payable recipient, uint amount) public{\r... */\n    tag_3:\n      callvalue\n      dup1\n      iszero\n      tag_14\n      jumpi\n      0x00\n      dup1\n      revert\n    tag_14:\n      pop\n      tag_15\n      0x04\n      dup1\n      calldatasize\n      sub\n      dup2\n      add\n      swap1\n      tag_16\n      swap2\n      swap1\n      tag_17\n      jump\t// in\n    tag_16:\n      tag_18\n      jump\t// in\n    tag_15:\n      stop\n        /* \"contracts/lottery.sol\":483:804  function endLottery() public{\r... */\n    tag_4:\n      callvalue\n      dup1\n      iszero\n      tag_19\n      jumpi\n      0x00\n      dup1\n      revert\n    tag_19:\n      pop\n      tag_20\n      tag_21\n      jump\t// in\n    tag_20:\n      stop\n        /* \"contracts/lottery.sol\":98:130  address public immutable manager */\n    tag_5:\n      callvalue\n      dup1\n      iszero\n      tag_22\n      jumpi\n      0x00\n      dup1\n      revert\n    tag_22:\n      pop\n      tag_23\n      tag_24\n      jump\t// in\n    tag_23:\n      mload(0x40)\n      tag_25\n      swap2\n      swap1\n      tag_26\n      jump\t// in\n    tag_25:\n      mload(0x40)\n      dup1\n      swap2\n      sub\n      swap1\n      return\n        /* \"contracts/lottery.sol\":137:169  address payable[] public players */\n    tag_6:\n      callvalue\n      dup1\n      iszero\n      tag_27\n      jumpi\n      0x00\n      dup1\n      revert\n    tag_27:\n      pop\n      tag_28\n      0x04\n      dup1\n      calldatasize\n      sub\n      dup2\n      add\n      swap1\n      tag_29\n      swap2\n      swap1\n      tag_30\n      jump\t// in\n    tag_29:\n      tag_31\n      jump\t// in\n    tag_28:\n      mload(0x40)\n      tag_32\n      swap2\n      swap1\n      tag_33\n      jump\t// in\n    tag_32:\n      mload(0x40)\n      dup1\n      swap2\n      sub\n      swap1\n      return\n        /* \"contracts/lottery.sol\":812:975  function transferEthToWinner(address payable recipient, uint amount) public{\r... */\n    tag_18:\n        /* \"contracts/lottery.sol\":917:927  msg.sender */\n      caller\n        /* \"contracts/lottery.sol\":906:927  manager == msg.sender */\n      0xffffffffffffffffffffffffffffffffffffffff\n      and\n        /* \"contracts/lottery.sol\":906:913  manager */\n      immutable(\"0x2a80e1ef1d7842f27f2e6be0972bb708b9a135c38860dbe73c27c3486c34f4de\")\n        /* \"contracts/lottery.sol\":906:927  manager == msg.sender */\n      0xffffffffffffffffffffffffffffffffffffffff\n      and\n      eq\n        /* \"contracts/lottery.sol\":898:928  require(manager == msg.sender) */\n      tag_35\n      jumpi\n      0x00\n      dup1\n      revert\n    tag_35:\n        /* \"contracts/lottery.sol\":941:950  recipient */\n      dup2\n        /* \"contracts/lottery.sol\":941:959  recipient.transfer */\n      0xffffffffffffffffffffffffffffffffffffffff\n      and\n        /* \"contracts/lottery.sol\":941:967  recipient.transfer(amount) */\n      0x08fc\n        /* \"contracts/lottery.sol\":960:966  amount */\n      dup3\n        /* \"contracts/lottery.sol\":941:967  recipient.transfer(amount) */\n      swap1\n      dup2\n      iszero\n      mul\n      swap1\n      mload(0x40)\n      0x00\n      mload(0x40)\n      dup1\n      dup4\n      sub\n      dup2\n      dup6\n      dup9\n      dup9\n      call\n      swap4\n      pop\n      pop\n      pop\n      pop\n      iszero\n      dup1\n      iszero\n      tag_37\n      jumpi\n      returndatasize\n      0x00\n      dup1\n      returndatacopy\n      revert(0x00, returndatasize)\n    tag_37:\n      pop\n        /* \"contracts/lottery.sol\":812:975  function transferEthToWinner(address payable recipient, uint amount) public{\r... */\n      pop\n      pop\n      jump\t// out\n        /* \"contracts/lottery.sol\":483:804  function endLottery() public{\r... */\n    tag_21:\n        /* \"contracts/lottery.sol\":543:544  3 */\n      0x03\n        /* \"contracts/lottery.sol\":525:532  players */\n      0x00\n        /* \"contracts/lottery.sol\":525:539  players.length */\n      dup1\n      sload\n      swap1\n      pop\n        /* \"contracts/lottery.sol\":525:544  players.length >= 3 */\n      lt\n        /* \"contracts/lottery.sol\":522:797  if(players.length >= 3){\r... */\n      tag_39\n      jumpi\n        /* \"contracts/lottery.sol\":579:589  msg.sender */\n      caller\n        /* \"contracts/lottery.sol\":568:589  manager == msg.sender */\n      0xffffffffffffffffffffffffffffffffffffffff\n      and\n        /* \"contracts/lottery.sol\":568:575  manager */\n      immutable(\"0x2a80e1ef1d7842f27f2e6be0972bb708b9a135c38860dbe73c27c3486c34f4de\")\n        /* \"contracts/lottery.sol\":568:589  manager == msg.sender */\n      0xffffffffffffffffffffffffffffffffffffffff\n      and\n      eq\n        /* \"contracts/lottery.sol\":560:590  require(manager == msg.sender) */\n      tag_40\n      jumpi\n      0x00\n      dup1\n      revert\n    tag_40:\n        /* \"contracts/lottery.sol\":605:617  uint balance */\n      0x00\n        /* \"contracts/lottery.sol\":620:641  address(this).balance */\n      selfbalance\n        /* \"contracts/lottery.sol\":605:641  uint balance = address(this).balance */\n      swap1\n      pop\n        /* \"contracts/lottery.sol\":656:676  address payable addr */\n      0x00\n        /* \"contracts/lottery.sol\":679:686  players */\n      dup1\n        /* \"contracts/lottery.sol\":687:688  0 */\n      0x00\n        /* \"contracts/lottery.sol\":679:689  players[0] */\n      dup2\n      sload\n      dup2\n      lt\n      tag_41\n      jumpi\n      tag_42\n      tag_43\n      jump\t// in\n    tag_42:\n    tag_41:\n      swap1\n      0x00\n      mstore\n      keccak256(0x00, 0x20)\n      add\n      0x00\n      swap1\n      sload\n      swap1\n      0x0100\n      exp\n      swap1\n      div\n      0xffffffffffffffffffffffffffffffffffffffff\n      and\n        /* \"contracts/lottery.sol\":656:689  address payable addr = players[0] */\n      swap1\n      pop\n        /* \"contracts/lottery.sol\":718:752  transferEthToWinner(addr, balance) */\n      tag_45\n        /* \"contracts/lottery.sol\":738:742  addr */\n      dup2\n        /* \"contracts/lottery.sol\":744:751  balance */\n      dup4\n        /* \"contracts/lottery.sol\":718:737  transferEthToWinner */\n      tag_18\n        /* \"contracts/lottery.sol\":718:752  transferEthToWinner(addr, balance) */\n      jump\t// in\n    tag_45:\n        /* \"contracts/lottery.sol\":767:785  deleteAllPlayers() */\n      tag_46\n        /* \"contracts/lottery.sol\":767:783  deleteAllPlayers */\n      tag_47\n        /* \"contracts/lottery.sol\":767:785  deleteAllPlayers() */\n      jump\t// in\n    tag_46:\n        /* \"contracts/lottery.sol\":545:797  {\r... */\n      pop\n      pop\n        /* \"contracts/lottery.sol\":522:797  if(players.length >= 3){\r... */\n    tag_39:\n        /* \"contracts/lottery.sol\":483:804  function endLottery() public{\r... */\n      jump\t// out\n        /* \"contracts/lottery.sol\":98:130  address public immutable manager */\n    tag_24:\n      immutable(\"0x2a80e1ef1d7842f27f2e6be0972bb708b9a135c38860dbe73c27c3486c34f4de\")\n      dup2\n      jump\t// out\n        /* \"contracts/lottery.sol\":137:169  address payable[] public players */\n    tag_31:\n      0x00\n      dup2\n      dup2\n      sload\n      dup2\n      lt\n      tag_48\n      jumpi\n      0x00\n      dup1\n      revert\n    tag_48:\n      swap1\n      0x00\n      mstore\n      keccak256(0x00, 0x20)\n      add\n      0x00\n      swap2\n      pop\n      sload\n      swap1\n      0x0100\n      exp\n      swap1\n      div\n      0xffffffffffffffffffffffffffffffffffffffff\n      and\n      dup2\n      jump\t// out\n        /* \"contracts/lottery.sol\":983:1136  function deleteAllPlayers() private {\r... */\n    tag_47:\n        /* \"contracts/lottery.sol\":1030:1036  uint j */\n      0x00\n        /* \"contracts/lottery.sol\":1039:1046  players */\n      dup1\n        /* \"contracts/lottery.sol\":1039:1053  players.length */\n      dup1\n      sload\n      swap1\n      pop\n        /* \"contracts/lottery.sol\":1030:1053  uint j = players.length */\n      swap1\n      pop\n        /* \"contracts/lottery.sol\":1068:1074  uint i */\n      0x00\n        /* \"contracts/lottery.sol\":1064:1129  for(uint i = 0; i<j; i++){\r... */\n    tag_51:\n        /* \"contracts/lottery.sol\":1082:1083  j */\n      dup2\n        /* \"contracts/lottery.sol\":1080:1081  i */\n      dup2\n        /* \"contracts/lottery.sol\":1080:1083  i<j */\n      lt\n        /* \"contracts/lottery.sol\":1064:1129  for(uint i = 0; i<j; i++){\r... */\n      iszero\n      tag_52\n      jumpi\n        /* \"contracts/lottery.sol\":1104:1111  players */\n      0x00\n        /* \"contracts/lottery.sol\":1104:1117  players.pop() */\n      dup1\n      sload\n      dup1\n      tag_54\n      jumpi\n      tag_55\n      tag_56\n      jump\t// in\n    tag_55:\n    tag_54:\n      0x01\n      swap1\n      sub\n      dup2\n      dup2\n      swap1\n      0x00\n      mstore\n      keccak256(0x00, 0x20)\n      add\n      exp(0x0100, 0x00)\n      dup2\n      sload\n      swap1\n      0xffffffffffffffffffffffffffffffffffffffff\n      mul\n      not\n      and\n      swap1\n      sstore\n      swap1\n      sstore\n        /* \"contracts/lottery.sol\":1085:1088  i++ */\n      dup1\n      dup1\n      tag_58\n      swap1\n      tag_59\n      jump\t// in\n    tag_58:\n      swap2\n      pop\n      pop\n        /* \"contracts/lottery.sol\":1064:1129  for(uint i = 0; i<j; i++){\r... */\n      jump(tag_51)\n    tag_52:\n      pop\n        /* \"contracts/lottery.sol\":1019:1136  {\r... */\n      pop\n        /* \"contracts/lottery.sol\":983:1136  function deleteAllPlayers() private {\r... */\n      jump\t// out\n        /* \"#utility.yul\":7:162   */\n    tag_61:\n        /* \"#utility.yul\":61:66   */\n      0x00\n        /* \"#utility.yul\":99:105   */\n      dup2\n        /* \"#utility.yul\":86:106   */\n      calldataload\n        /* \"#utility.yul\":77:106   */\n      swap1\n      pop\n        /* \"#utility.yul\":115:156   */\n      tag_63\n        /* \"#utility.yul\":150:155   */\n      dup2\n        /* \"#utility.yul\":115:156   */\n      tag_64\n      jump\t// in\n    tag_63:\n        /* \"#utility.yul\":7:162   */\n      swap3\n      swap2\n      pop\n      pop\n      jump\t// out\n        /* \"#utility.yul\":168:307   */\n    tag_65:\n        /* \"#utility.yul\":214:219   */\n      0x00\n        /* \"#utility.yul\":252:258   */\n      dup2\n        /* \"#utility.yul\":239:259   */\n      calldataload\n        /* \"#utility.yul\":230:259   */\n      swap1\n      pop\n        /* \"#utility.yul\":268:301   */\n      tag_67\n        /* \"#utility.yul\":295:300   */\n      dup2\n        /* \"#utility.yul\":268:301   */\n      tag_68\n      jump\t// in\n    tag_67:\n        /* \"#utility.yul\":168:307   */\n      swap3\n      swap2\n      pop\n      pop\n      jump\t// out\n        /* \"#utility.yul\":313:803   */\n    tag_17:\n        /* \"#utility.yul\":389:395   */\n      0x00\n        /* \"#utility.yul\":397:403   */\n      dup1\n        /* \"#utility.yul\":446:448   */\n      0x40\n        /* \"#utility.yul\":434:443   */\n      dup4\n        /* \"#utility.yul\":425:432   */\n      dup6\n        /* \"#utility.yul\":421:444   */\n      sub\n        /* \"#utility.yul\":417:449   */\n      slt\n        /* \"#utility.yul\":414:533   */\n      iszero\n      tag_70\n      jumpi\n        /* \"#utility.yul\":452:531   */\n      tag_71\n      tag_72\n      jump\t// in\n    tag_71:\n        /* \"#utility.yul\":414:533   */\n    tag_70:\n        /* \"#utility.yul\":572:573   */\n      0x00\n        /* \"#utility.yul\":597:658   */\n      tag_73\n        /* \"#utility.yul\":650:657   */\n      dup6\n        /* \"#utility.yul\":641:647   */\n      dup3\n        /* \"#utility.yul\":630:639   */\n      dup7\n        /* \"#utility.yul\":626:648   */\n      add\n        /* \"#utility.yul\":597:658   */\n      tag_61\n      jump\t// in\n    tag_73:\n        /* \"#utility.yul\":587:658   */\n      swap3\n      pop\n        /* \"#utility.yul\":543:668   */\n      pop\n        /* \"#utility.yul\":707:709   */\n      0x20\n        /* \"#utility.yul\":733:786   */\n      tag_74\n        /* \"#utility.yul\":778:785   */\n      dup6\n        /* \"#utility.yul\":769:775   */\n      dup3\n        /* \"#utility.yul\":758:767   */\n      dup7\n        /* \"#utility.yul\":754:776   */\n      add\n        /* \"#utility.yul\":733:786   */\n      tag_65\n      jump\t// in\n    tag_74:\n        /* \"#utility.yul\":723:786   */\n      swap2\n      pop\n        /* \"#utility.yul\":678:796   */\n      pop\n        /* \"#utility.yul\":313:803   */\n      swap3\n      pop\n      swap3\n      swap1\n      pop\n      jump\t// out\n        /* \"#utility.yul\":809:1138   */\n    tag_30:\n        /* \"#utility.yul\":868:874   */\n      0x00\n        /* \"#utility.yul\":917:919   */\n      0x20\n        /* \"#utility.yul\":905:914   */\n      dup3\n        /* \"#utility.yul\":896:903   */\n      dup5\n        /* \"#utility.yul\":892:915   */\n      sub\n        /* \"#utility.yul\":888:920   */\n      slt\n        /* \"#utility.yul\":885:1004   */\n      iszero\n      tag_76\n      jumpi\n        /* \"#utility.yul\":923:1002   */\n      tag_77\n      tag_72\n      jump\t// in\n    tag_77:\n        /* \"#utility.yul\":885:1004   */\n    tag_76:\n        /* \"#utility.yul\":1043:1044   */\n      0x00\n        /* \"#utility.yul\":1068:1121   */\n      tag_78\n        /* \"#utility.yul\":1113:1120   */\n      dup5\n        /* \"#utility.yul\":1104:1110   */\n      dup3\n        /* \"#utility.yul\":1093:1102   */\n      dup6\n        /* \"#utility.yul\":1089:1111   */\n      add\n        /* \"#utility.yul\":1068:1121   */\n      tag_65\n      jump\t// in\n    tag_78:\n        /* \"#utility.yul\":1058:1121   */\n      swap2\n      pop\n        /* \"#utility.yul\":1014:1131   */\n      pop\n        /* \"#utility.yul\":809:1138   */\n      swap3\n      swap2\n      pop\n      pop\n      jump\t// out\n        /* \"#utility.yul\":1144:1286   */\n    tag_79:\n        /* \"#utility.yul\":1247:1279   */\n      tag_81\n        /* \"#utility.yul\":1273:1278   */\n      dup2\n        /* \"#utility.yul\":1247:1279   */\n      tag_82\n      jump\t// in\n    tag_81:\n        /* \"#utility.yul\":1242:1245   */\n      dup3\n        /* \"#utility.yul\":1235:1280   */\n      mstore\n        /* \"#utility.yul\":1144:1286   */\n      pop\n      pop\n      jump\t// out\n        /* \"#utility.yul\":1292:1410   */\n    tag_83:\n        /* \"#utility.yul\":1379:1403   */\n      tag_85\n        /* \"#utility.yul\":1397:1402   */\n      dup2\n        /* \"#utility.yul\":1379:1403   */\n      tag_86\n      jump\t// in\n    tag_85:\n        /* \"#utility.yul\":1374:1377   */\n      dup3\n        /* \"#utility.yul\":1367:1404   */\n      mstore\n        /* \"#utility.yul\":1292:1410   */\n      pop\n      pop\n      jump\t// out\n        /* \"#utility.yul\":1416:1638   */\n    tag_26:\n        /* \"#utility.yul\":1509:1513   */\n      0x00\n        /* \"#utility.yul\":1547:1549   */\n      0x20\n        /* \"#utility.yul\":1536:1545   */\n      dup3\n        /* \"#utility.yul\":1532:1550   */\n      add\n        /* \"#utility.yul\":1524:1550   */\n      swap1\n      pop\n        /* \"#utility.yul\":1560:1631   */\n      tag_88\n        /* \"#utility.yul\":1628:1629   */\n      0x00\n        /* \"#utility.yul\":1617:1626   */\n      dup4\n        /* \"#utility.yul\":1613:1630   */\n      add\n        /* \"#utility.yul\":1604:1610   */\n      dup5\n        /* \"#utility.yul\":1560:1631   */\n      tag_83\n      jump\t// in\n    tag_88:\n        /* \"#utility.yul\":1416:1638   */\n      swap3\n      swap2\n      pop\n      pop\n      jump\t// out\n        /* \"#utility.yul\":1644:1898   */\n    tag_33:\n        /* \"#utility.yul\":1753:1757   */\n      0x00\n        /* \"#utility.yul\":1791:1793   */\n      0x20\n        /* \"#utility.yul\":1780:1789   */\n      dup3\n        /* \"#utility.yul\":1776:1794   */\n      add\n        /* \"#utility.yul\":1768:1794   */\n      swap1\n      pop\n        /* \"#utility.yul\":1804:1891   */\n      tag_90\n        /* \"#utility.yul\":1888:1889   */\n      0x00\n        /* \"#utility.yul\":1877:1886   */\n      dup4\n        /* \"#utility.yul\":1873:1890   */\n      add\n        /* \"#utility.yul\":1864:1870   */\n      dup5\n        /* \"#utility.yul\":1804:1891   */\n      tag_79\n      jump\t// in\n    tag_90:\n        /* \"#utility.yul\":1644:1898   */\n      swap3\n      swap2\n      pop\n      pop\n      jump\t// out\n        /* \"#utility.yul\":1985:2081   */\n    tag_86:\n        /* \"#utility.yul\":2022:2029   */\n      0x00\n        /* \"#utility.yul\":2051:2075   */\n      tag_94\n        /* \"#utility.yul\":2069:2074   */\n      dup3\n        /* \"#utility.yul\":2051:2075   */\n      tag_95\n      jump\t// in\n    tag_94:\n        /* \"#utility.yul\":2040:2075   */\n      swap1\n      pop\n        /* \"#utility.yul\":1985:2081   */\n      swap2\n      swap1\n      pop\n      jump\t// out\n        /* \"#utility.yul\":2087:2191   */\n    tag_82:\n        /* \"#utility.yul\":2132:2139   */\n      0x00\n        /* \"#utility.yul\":2161:2185   */\n      tag_97\n        /* \"#utility.yul\":2179:2184   */\n      dup3\n        /* \"#utility.yul\":2161:2185   */\n      tag_95\n      jump\t// in\n    tag_97:\n        /* \"#utility.yul\":2150:2185   */\n      swap1\n      pop\n        /* \"#utility.yul\":2087:2191   */\n      swap2\n      swap1\n      pop\n      jump\t// out\n        /* \"#utility.yul\":2197:2323   */\n    tag_95:\n        /* \"#utility.yul\":2234:2241   */\n      0x00\n        /* \"#utility.yul\":2274:2316   */\n      0xffffffffffffffffffffffffffffffffffffffff\n        /* \"#utility.yul\":2267:2272   */\n      dup3\n        /* \"#utility.yul\":2263:2317   */\n      and\n        /* \"#utility.yul\":2252:2317   */\n      swap1\n      pop\n        /* \"#utility.yul\":2197:2323   */\n      swap2\n      swap1\n      pop\n      jump\t// out\n        /* \"#utility.yul\":2329:2406   */\n    tag_99:\n        /* \"#utility.yul\":2366:2373   */\n      0x00\n        /* \"#utility.yul\":2395:2400   */\n      dup2\n        /* \"#utility.yul\":2384:2400   */\n      swap1\n      pop\n        /* \"#utility.yul\":2329:2406   */\n      swap2\n      swap1\n      pop\n      jump\t// out\n        /* \"#utility.yul\":2412:2645   */\n    tag_59:\n        /* \"#utility.yul\":2451:2454   */\n      0x00\n        /* \"#utility.yul\":2474:2498   */\n      tag_102\n        /* \"#utility.yul\":2492:2497   */\n      dup3\n        /* \"#utility.yul\":2474:2498   */\n      tag_99\n      jump\t// in\n    tag_102:\n        /* \"#utility.yul\":2465:2498   */\n      swap2\n      pop\n        /* \"#utility.yul\":2520:2586   */\n      0xffffffffffffffffffffffffffffffffffffffffffffffffffffffffffffffff\n        /* \"#utility.yul\":2513:2518   */\n      dup3\n        /* \"#utility.yul\":2510:2587   */\n      eq\n        /* \"#utility.yul\":2507:2610   */\n      iszero\n      tag_103\n      jumpi\n        /* \"#utility.yul\":2590:2608   */\n      tag_104\n      tag_105\n      jump\t// in\n    tag_104:\n        /* \"#utility.yul\":2507:2610   */\n    tag_103:\n        /* \"#utility.yul\":2637:2638   */\n      0x01\n        /* \"#utility.yul\":2630:2635   */\n      dup3\n        /* \"#utility.yul\":2626:2639   */\n      add\n        /* \"#utility.yul\":2619:2639   */\n      swap1\n      pop\n        /* \"#utility.yul\":2412:2645   */\n      swap2\n      swap1\n      pop\n      jump\t// out\n        /* \"#utility.yul\":2651:2831   */\n    tag_105:\n        /* \"#utility.yul\":2699:2776   */\n      0x4e487b7100000000000000000000000000000000000000000000000000000000\n        /* \"#utility.yul\":2696:2697   */\n      0x00\n        /* \"#utility.yul\":2689:2777   */\n      mstore\n        /* \"#utility.yul\":2796:2800   */\n      0x11\n        /* \"#utility.yul\":2793:2794   */\n      0x04\n        /* \"#utility.yul\":2786:2801   */\n      mstore\n        /* \"#utility.yul\":2820:2824   */\n      0x24\n        /* \"#utility.yul\":2817:2818   */\n      0x00\n        /* \"#utility.yul\":2810:2825   */\n      revert\n        /* \"#utility.yul\":2837:3017   */\n    tag_56:\n        /* \"#utility.yul\":2885:2962   */\n      0x4e487b7100000000000000000000000000000000000000000000000000000000\n        /* \"#utility.yul\":2882:2883   */\n      0x00\n        /* \"#utility.yul\":2875:2963   */\n      mstore\n        /* \"#utility.yul\":2982:2986   */\n      0x31\n        /* \"#utility.yul\":2979:2980   */\n      0x04\n        /* \"#utility.yul\":2972:2987   */\n      mstore\n        /* \"#utility.yul\":3006:3010   */\n      0x24\n        /* \"#utility.yul\":3003:3004   */\n      0x00\n        /* \"#utility.yul\":2996:3011   */\n      revert\n        /* \"#utility.yul\":3023:3203   */\n    tag_43:\n        /* \"#utility.yul\":3071:3148   */\n      0x4e487b7100000000000000000000000000000000000000000000000000000000\n        /* \"#utility.yul\":3068:3069   */\n      0x00\n        /* \"#utility.yul\":3061:3149   */\n      mstore\n        /* \"#utility.yul\":3168:3172   */\n      0x32\n        /* \"#utility.yul\":3165:3166   */\n      0x04\n        /* \"#utility.yul\":3158:3173   */\n      mstore\n        /* \"#utility.yul\":3192:3196   */\n      0x24\n        /* \"#utility.yul\":3189:3190   */\n      0x00\n        /* \"#utility.yul\":3182:3197   */\n      revert\n        /* \"#utility.yul\":3332:3449   */\n    tag_72:\n        /* \"#utility.yul\":3441:3442   */\n      0x00\n        /* \"#utility.yul\":3438:3439   */\n      dup1\n        /* \"#utility.yul\":3431:3443   */\n      revert\n        /* \"#utility.yul\":3455:3593   */\n    tag_64:\n        /* \"#utility.yul\":3536:3568   */\n      tag_113\n        /* \"#utility.yul\":3562:3567   */\n      dup2\n        /* \"#utility.yul\":3536:3568   */\n      tag_82\n      jump\t// in\n    tag_113:\n        /* \"#utility.yul\":3529:3534   */\n      dup2\n        /* \"#utility.yul\":3526:3569   */\n      eq\n        /* \"#utility.yul\":3516:3587   */\n      tag_114\n      jumpi\n        /* \"#utility.yul\":3583:3584   */\n      0x00\n        /* \"#utility.yul\":3580:3581   */\n      dup1\n        /* \"#utility.yul\":3573:3585   */\n      revert\n        /* \"#utility.yul\":3516:3587   */\n    tag_114:\n        /* \"#utility.yul\":3455:3593   */\n      pop\n      jump\t// out\n        /* \"#utility.yul\":3599:3721   */\n    tag_68:\n        /* \"#utility.yul\":3672:3696   */\n      tag_116\n        /* \"#utility.yul\":3690:3695   */\n      dup2\n        /* \"#utility.yul\":3672:3696   */\n      tag_99\n      jump\t// in\n    tag_116:\n        /* \"#utility.yul\":3665:3670   */\n      dup2\n        /* \"#utility.yul\":3662:3697   */\n      eq\n        /* \"#utility.yul\":3652:3715   */\n      tag_117\n      jumpi\n        /* \"#utility.yul\":3711:3712   */\n      0x00\n        /* \"#utility.yul\":3708:3709   */\n      dup1\n        /* \"#utility.yul\":3701:3713   */\n      revert\n        /* \"#utility.yul\":3652:3715   */\n    tag_117:\n        /* \"#utility.yul\":3599:3721   */\n      pop\n      jump\t// out\n\n    auxdata: 0xa26469706673582212208e9d36bb1390b7856f7b8b1ea4458b0fda719b454bb7548efce2a8d6ec694d6d64736f6c63430008070033\n}\n",
				"bytecode": {
					"linkReferences": {},
					"object": "60a060405234801561001057600080fd5b503373ffffffffffffffffffffffffffffffffffffffff1660808173ffffffffffffffffffffffffffffffffffffffff1660601b8152505061005661005b60201b60201c565b61017e565b60008080549050905060005b818110156100c95760008054806100815761008061014f565b5b6001900381819060005260206000200160006101000a81549073ffffffffffffffffffffffffffffffffffffffff0219169055905580806100c1906100d7565b915050610067565b5050565b6000819050919050565b60006100e2826100cd565b91507fffffffffffffffffffffffffffffffffffffffffffffffffffffffffffffffff82141561011557610114610120565b5b600182019050919050565b7f4e487b7100000000000000000000000000000000000000000000000000000000600052601160045260246000fd5b7f4e487b7100000000000000000000000000000000000000000000000000000000600052603160045260246000fd5b60805160601c6106216101aa600039600081816101860152818161023601526102d601526106216000f3fe6080604052600436106100435760003560e01c806310c5762e146100c55780631593a8c7146100ee578063481c6a7514610105578063f71d96cb14610130576100c3565b366100c35767016345785d8a00003414156100c0576000339080600181540180825580915050600190039060005260206000200160009091909190916101000a81548173ffffffffffffffffffffffffffffffffffffffff021916908373ffffffffffffffffffffffffffffffffffffffff1602179055506100c1565b5b005b005b3480156100d157600080fd5b506100ec60048036038101906100e791906103d3565b61016d565b005b3480156100fa57600080fd5b50610103610210565b005b34801561011157600080fd5b5061011a6102d4565b604051610127919061045e565b60405180910390f35b34801561013c57600080fd5b5061015760048036038101906101529190610413565b6102f8565b6040516101649190610479565b60405180910390f35b3373ffffffffffffffffffffffffffffffffffffffff167f000000000000000000000000000000000000000000000000000000000000000073ffffffffffffffffffffffffffffffffffffffff16146101c557600080fd5b8173ffffffffffffffffffffffffffffffffffffffff166108fc829081150290604051600060405180830381858888f1935050505015801561020b573d6000803e3d6000fd5b505050565b6003600080549050106102d2573373ffffffffffffffffffffffffffffffffffffffff167f000000000000000000000000000000000000000000000000000000000000000073ffffffffffffffffffffffffffffffffffffffff161461027557600080fd5b60004790506000806000815481106102905761028f610589565b5b9060005260206000200160009054906101000a900473ffffffffffffffffffffffffffffffffffffffff1690506102c7818361016d565b6102cf610337565b50505b565b7f000000000000000000000000000000000000000000000000000000000000000081565b6000818154811061030857600080fd5b906000526020600020016000915054906101000a900473ffffffffffffffffffffffffffffffffffffffff1681565b60008080549050905060005b818110156103a557600080548061035d5761035c61055a565b5b6001900381819060005260206000200160006101000a81549073ffffffffffffffffffffffffffffffffffffffff02191690559055808061039d906104e2565b915050610343565b5050565b6000813590506103b8816105bd565b92915050565b6000813590506103cd816105d4565b92915050565b600080604083850312156103ea576103e96105b8565b5b60006103f8858286016103a9565b9250506020610409858286016103be565b9150509250929050565b600060208284031215610429576104286105b8565b5b6000610437848285016103be565b91505092915050565b610449816104a6565b82525050565b61045881610494565b82525050565b6000602082019050610473600083018461044f565b92915050565b600060208201905061048e6000830184610440565b92915050565b600061049f826104b8565b9050919050565b60006104b1826104b8565b9050919050565b600073ffffffffffffffffffffffffffffffffffffffff82169050919050565b6000819050919050565b60006104ed826104d8565b91507fffffffffffffffffffffffffffffffffffffffffffffffffffffffffffffffff8214156105205761051f61052b565b5b600182019050919050565b7f4e487b7100000000000000000000000000000000000000000000000000000000600052601160045260246000fd5b7f4e487b7100000000000000000000000000000000000000000000000000000000600052603160045260246000fd5b7f4e487b7100000000000000000000000000000000000000000000000000000000600052603260045260246000fd5b600080fd5b6105c6816104a6565b81146105d157600080fd5b50565b6105dd816104d8565b81146105e857600080fd5b5056fea26469706673582212208e9d36bb1390b7856f7b8b1ea4458b0fda719b454bb7548efce2a8d6ec694d6d64736f6c63430008070033",
					"opcodes": "PUSH1 0xA0 PUSH1 0x40 MSTORE CALLVALUE DUP1 ISZERO PUSH2 0x10 JUMPI PUSH1 0x0 DUP1 REVERT JUMPDEST POP CALLER PUSH20 0xFFFFFFFFFFFFFFFFFFFFFFFFFFFFFFFFFFFFFFFF AND PUSH1 0x80 DUP2 PUSH20 0xFFFFFFFFFFFFFFFFFFFFFFFFFFFFFFFFFFFFFFFF AND PUSH1 0x60 SHL DUP2 MSTORE POP POP PUSH2 0x56 PUSH2 0x5B PUSH1 0x20 SHL PUSH1 0x20 SHR JUMP JUMPDEST PUSH2 0x17E JUMP JUMPDEST PUSH1 0x0 DUP1 DUP1 SLOAD SWAP1 POP SWAP1 POP PUSH1 0x0 JUMPDEST DUP2 DUP2 LT ISZERO PUSH2 0xC9 JUMPI PUSH1 0x0 DUP1 SLOAD DUP1 PUSH2 0x81 JUMPI PUSH2 0x80 PUSH2 0x14F JUMP JUMPDEST JUMPDEST PUSH1 0x1 SWAP1 SUB DUP2 DUP2 SWAP1 PUSH1 0x0 MSTORE PUSH1 0x20 PUSH1 0x0 KECCAK256 ADD PUSH1 0x0 PUSH2 0x100 EXP DUP2 SLOAD SWAP1 PUSH20 0xFFFFFFFFFFFFFFFFFFFFFFFFFFFFFFFFFFFFFFFF MUL NOT AND SWAP1 SSTORE SWAP1 SSTORE DUP1 DUP1 PUSH2 0xC1 SWAP1 PUSH2 0xD7 JUMP JUMPDEST SWAP2 POP POP PUSH2 0x67 JUMP JUMPDEST POP POP JUMP JUMPDEST PUSH1 0x0 DUP2 SWAP1 POP SWAP2 SWAP1 POP JUMP JUMPDEST PUSH1 0x0 PUSH2 0xE2 DUP3 PUSH2 0xCD JUMP JUMPDEST SWAP2 POP PUSH32 0xFFFFFFFFFFFFFFFFFFFFFFFFFFFFFFFFFFFFFFFFFFFFFFFFFFFFFFFFFFFFFFFF DUP3 EQ ISZERO PUSH2 0x115 JUMPI PUSH2 0x114 PUSH2 0x120 JUMP JUMPDEST JUMPDEST PUSH1 0x1 DUP3 ADD SWAP1 POP SWAP2 SWAP1 POP JUMP JUMPDEST PUSH32 0x4E487B7100000000000000000000000000000000000000000000000000000000 PUSH1 0x0 MSTORE PUSH1 0x11 PUSH1 0x4 MSTORE PUSH1 0x24 PUSH1 0x0 REVERT JUMPDEST PUSH32 0x4E487B7100000000000000000000000000000000000000000000000000000000 PUSH1 0x0 MSTORE PUSH1 0x31 PUSH1 0x4 MSTORE PUSH1 0x24 PUSH1 0x0 REVERT JUMPDEST PUSH1 0x80 MLOAD PUSH1 0x60 SHR PUSH2 0x621 PUSH2 0x1AA PUSH1 0x0 CODECOPY PUSH1 0x0 DUP2 DUP2 PUSH2 0x186 ADD MSTORE DUP2 DUP2 PUSH2 0x236 ADD MSTORE PUSH2 0x2D6 ADD MSTORE PUSH2 0x621 PUSH1 0x0 RETURN INVALID PUSH1 0x80 PUSH1 0x40 MSTORE PUSH1 0x4 CALLDATASIZE LT PUSH2 0x43 JUMPI PUSH1 0x0 CALLDATALOAD PUSH1 0xE0 SHR DUP1 PUSH4 0x10C5762E EQ PUSH2 0xC5 JUMPI DUP1 PUSH4 0x1593A8C7 EQ PUSH2 0xEE JUMPI DUP1 PUSH4 0x481C6A75 EQ PUSH2 0x105 JUMPI DUP1 PUSH4 0xF71D96CB EQ PUSH2 0x130 JUMPI PUSH2 0xC3 JUMP JUMPDEST CALLDATASIZE PUSH2 0xC3 JUMPI PUSH8 0x16345785D8A0000 CALLVALUE EQ ISZERO PUSH2 0xC0 JUMPI PUSH1 0x0 CALLER SWAP1 DUP1 PUSH1 0x1 DUP2 SLOAD ADD DUP1 DUP3 SSTORE DUP1 SWAP2 POP POP PUSH1 0x1 SWAP1 SUB SWAP1 PUSH1 0x0 MSTORE PUSH1 0x20 PUSH1 0x0 KECCAK256 ADD PUSH1 0x0 SWAP1 SWAP2 SWAP1 SWAP2 SWAP1 SWAP2 PUSH2 0x100 EXP DUP2 SLOAD DUP2 PUSH20 0xFFFFFFFFFFFFFFFFFFFFFFFFFFFFFFFFFFFFFFFF MUL NOT AND SWAP1 DUP4 PUSH20 0xFFFFFFFFFFFFFFFFFFFFFFFFFFFFFFFFFFFFFFFF AND MUL OR SWAP1 SSTORE POP PUSH2 0xC1 JUMP JUMPDEST JUMPDEST STOP JUMPDEST STOP JUMPDEST CALLVALUE DUP1 ISZERO PUSH2 0xD1 JUMPI PUSH1 0x0 DUP1 REVERT JUMPDEST POP PUSH2 0xEC PUSH1 0x4 DUP1 CALLDATASIZE SUB DUP2 ADD SWAP1 PUSH2 0xE7 SWAP2 SWAP1 PUSH2 0x3D3 JUMP JUMPDEST PUSH2 0x16D JUMP JUMPDEST STOP JUMPDEST CALLVALUE DUP1 ISZERO PUSH2 0xFA JUMPI PUSH1 0x0 DUP1 REVERT JUMPDEST POP PUSH2 0x103 PUSH2 0x210 JUMP JUMPDEST STOP JUMPDEST CALLVALUE DUP1 ISZERO PUSH2 0x111 JUMPI PUSH1 0x0 DUP1 REVERT JUMPDEST POP PUSH2 0x11A PUSH2 0x2D4 JUMP JUMPDEST PUSH1 0x40 MLOAD PUSH2 0x127 SWAP2 SWAP1 PUSH2 0x45E JUMP JUMPDEST PUSH1 0x40 MLOAD DUP1 SWAP2 SUB SWAP1 RETURN JUMPDEST CALLVALUE DUP1 ISZERO PUSH2 0x13C JUMPI PUSH1 0x0 DUP1 REVERT JUMPDEST POP PUSH2 0x157 PUSH1 0x4 DUP1 CALLDATASIZE SUB DUP2 ADD SWAP1 PUSH2 0x152 SWAP2 SWAP1 PUSH2 0x413 JUMP JUMPDEST PUSH2 0x2F8 JUMP JUMPDEST PUSH1 0x40 MLOAD PUSH2 0x164 SWAP2 SWAP1 PUSH2 0x479 JUMP JUMPDEST PUSH1 0x40 MLOAD DUP1 SWAP2 SUB SWAP1 RETURN JUMPDEST CALLER PUSH20 0xFFFFFFFFFFFFFFFFFFFFFFFFFFFFFFFFFFFFFFFF AND PUSH32 0x0 PUSH20 0xFFFFFFFFFFFFFFFFFFFFFFFFFFFFFFFFFFFFFFFF AND EQ PUSH2 0x1C5 JUMPI PUSH1 0x0 DUP1 REVERT JUMPDEST DUP2 PUSH20 0xFFFFFFFFFFFFFFFFFFFFFFFFFFFFFFFFFFFFFFFF AND PUSH2 0x8FC DUP3 SWAP1 DUP2 ISZERO MUL SWAP1 PUSH1 0x40 MLOAD PUSH1 0x0 PUSH1 0x40 MLOAD DUP1 DUP4 SUB DUP2 DUP6 DUP9 DUP9 CALL SWAP4 POP POP POP POP ISZERO DUP1 ISZERO PUSH2 0x20B JUMPI RETURNDATASIZE PUSH1 0x0 DUP1 RETURNDATACOPY RETURNDATASIZE PUSH1 0x0 REVERT JUMPDEST POP POP POP JUMP JUMPDEST PUSH1 0x3 PUSH1 0x0 DUP1 SLOAD SWAP1 POP LT PUSH2 0x2D2 JUMPI CALLER PUSH20 0xFFFFFFFFFFFFFFFFFFFFFFFFFFFFFFFFFFFFFFFF AND PUSH32 0x0 PUSH20 0xFFFFFFFFFFFFFFFFFFFFFFFFFFFFFFFFFFFFFFFF AND EQ PUSH2 0x275 JUMPI PUSH1 0x0 DUP1 REVERT JUMPDEST PUSH1 0x0 SELFBALANCE SWAP1 POP PUSH1 0x0 DUP1 PUSH1 0x0 DUP2 SLOAD DUP2 LT PUSH2 0x290 JUMPI PUSH2 0x28F PUSH2 0x589 JUMP JUMPDEST JUMPDEST SWAP1 PUSH1 0x0 MSTORE PUSH1 0x20 PUSH1 0x0 KECCAK256 ADD PUSH1 0x0 SWAP1 SLOAD SWAP1 PUSH2 0x100 EXP SWAP1 DIV PUSH20 0xFFFFFFFFFFFFFFFFFFFFFFFFFFFFFFFFFFFFFFFF AND SWAP1 POP PUSH2 0x2C7 DUP2 DUP4 PUSH2 0x16D JUMP JUMPDEST PUSH2 0x2CF PUSH2 0x337 JUMP JUMPDEST POP POP JUMPDEST JUMP JUMPDEST PUSH32 0x0 DUP2 JUMP JUMPDEST PUSH1 0x0 DUP2 DUP2 SLOAD DUP2 LT PUSH2 0x308 JUMPI PUSH1 0x0 DUP1 REVERT JUMPDEST SWAP1 PUSH1 0x0 MSTORE PUSH1 0x20 PUSH1 0x0 KECCAK256 ADD PUSH1 0x0 SWAP2 POP SLOAD SWAP1 PUSH2 0x100 EXP SWAP1 DIV PUSH20 0xFFFFFFFFFFFFFFFFFFFFFFFFFFFFFFFFFFFFFFFF AND DUP2 JUMP JUMPDEST PUSH1 0x0 DUP1 DUP1 SLOAD SWAP1 POP SWAP1 POP PUSH1 0x0 JUMPDEST DUP2 DUP2 LT ISZERO PUSH2 0x3A5 JUMPI PUSH1 0x0 DUP1 SLOAD DUP1 PUSH2 0x35D JUMPI PUSH2 0x35C PUSH2 0x55A JUMP JUMPDEST JUMPDEST PUSH1 0x1 SWAP1 SUB DUP2 DUP2 SWAP1 PUSH1 0x0 MSTORE PUSH1 0x20 PUSH1 0x0 KECCAK256 ADD PUSH1 0x0 PUSH2 0x100 EXP DUP2 SLOAD SWAP1 PUSH20 0xFFFFFFFFFFFFFFFFFFFFFFFFFFFFFFFFFFFFFFFF MUL NOT AND SWAP1 SSTORE SWAP1 SSTORE DUP1 DUP1 PUSH2 0x39D SWAP1 PUSH2 0x4E2 JUMP JUMPDEST SWAP2 POP POP PUSH2 0x343 JUMP JUMPDEST POP POP JUMP JUMPDEST PUSH1 0x0 DUP2 CALLDATALOAD SWAP1 POP PUSH2 0x3B8 DUP2 PUSH2 0x5BD JUMP JUMPDEST SWAP3 SWAP2 POP POP JUMP JUMPDEST PUSH1 0x0 DUP2 CALLDATALOAD SWAP1 POP PUSH2 0x3CD DUP2 PUSH2 0x5D4 JUMP JUMPDEST SWAP3 SWAP2 POP POP JUMP JUMPDEST PUSH1 0x0 DUP1 PUSH1 0x40 DUP4 DUP6 SUB SLT ISZERO PUSH2 0x3EA JUMPI PUSH2 0x3E9 PUSH2 0x5B8 JUMP JUMPDEST JUMPDEST PUSH1 0x0 PUSH2 0x3F8 DUP6 DUP3 DUP7 ADD PUSH2 0x3A9 JUMP JUMPDEST SWAP3 POP POP PUSH1 0x20 PUSH2 0x409 DUP6 DUP3 DUP7 ADD PUSH2 0x3BE JUMP JUMPDEST SWAP2 POP POP SWAP3 POP SWAP3 SWAP1 POP JUMP JUMPDEST PUSH1 0x0 PUSH1 0x20 DUP3 DUP5 SUB SLT ISZERO PUSH2 0x429 JUMPI PUSH2 0x428 PUSH2 0x5B8 JUMP JUMPDEST JUMPDEST PUSH1 0x0 PUSH2 0x437 DUP5 DUP3 DUP6 ADD PUSH2 0x3BE JUMP JUMPDEST SWAP2 POP POP SWAP3 SWAP2 POP POP JUMP JUMPDEST PUSH2 0x449 DUP2 PUSH2 0x4A6 JUMP JUMPDEST DUP3 MSTORE POP POP JUMP JUMPDEST PUSH2 0x458 DUP2 PUSH2 0x494 JUMP JUMPDEST DUP3 MSTORE POP POP JUMP JUMPDEST PUSH1 0x0 PUSH1 0x20 DUP3 ADD SWAP1 POP PUSH2 0x473 PUSH1 0x0 DUP4 ADD DUP5 PUSH2 0x44F JUMP JUMPDEST SWAP3 SWAP2 POP POP JUMP JUMPDEST PUSH1 0x0 PUSH1 0x20 DUP3 ADD SWAP1 POP PUSH2 0x48E PUSH1 0x0 DUP4 ADD DUP5 PUSH2 0x440 JUMP JUMPDEST SWAP3 SWAP2 POP POP JUMP JUMPDEST PUSH1 0x0 PUSH2 0x49F DUP3 PUSH2 0x4B8 JUMP JUMPDEST SWAP1 POP SWAP2 SWAP1 POP JUMP JUMPDEST PUSH1 0x0 PUSH2 0x4B1 DUP3 PUSH2 0x4B8 JUMP JUMPDEST SWAP1 POP SWAP2 SWAP1 POP JUMP JUMPDEST PUSH1 0x0 PUSH20 0xFFFFFFFFFFFFFFFFFFFFFFFFFFFFFFFFFFFFFFFF DUP3 AND SWAP1 POP SWAP2 SWAP1 POP JUMP JUMPDEST PUSH1 0x0 DUP2 SWAP1 POP SWAP2 SWAP1 POP JUMP JUMPDEST PUSH1 0x0 PUSH2 0x4ED DUP3 PUSH2 0x4D8 JUMP JUMPDEST SWAP2 POP PUSH32 0xFFFFFFFFFFFFFFFFFFFFFFFFFFFFFFFFFFFFFFFFFFFFFFFFFFFFFFFFFFFFFFFF DUP3 EQ ISZERO PUSH2 0x520 JUMPI PUSH2 0x51F PUSH2 0x52B JUMP JUMPDEST JUMPDEST PUSH1 0x1 DUP3 ADD SWAP1 POP SWAP2 SWAP1 POP JUMP JUMPDEST PUSH32 0x4E487B7100000000000000000000000000000000000000000000000000000000 PUSH1 0x0 MSTORE PUSH1 0x11 PUSH1 0x4 MSTORE PUSH1 0x24 PUSH1 0x0 REVERT JUMPDEST PUSH32 0x4E487B7100000000000000000000000000000000000000000000000000000000 PUSH1 0x0 MSTORE PUSH1 0x31 PUSH1 0x4 MSTORE PUSH1 0x24 PUSH1 0x0 REVERT JUMPDEST PUSH32 0x4E487B7100000000000000000000000000000000000000000000000000000000 PUSH1 0x0 MSTORE PUSH1 0x32 PUSH1 0x4 MSTORE PUSH1 0x24 PUSH1 0x0 REVERT JUMPDEST PUSH1 0x0 DUP1 REVERT JUMPDEST PUSH2 0x5C6 DUP2 PUSH2 0x4A6 JUMP JUMPDEST DUP2 EQ PUSH2 0x5D1 JUMPI PUSH1 0x0 DUP1 REVERT JUMPDEST POP JUMP JUMPDEST PUSH2 0x5DD DUP2 PUSH2 0x4D8 JUMP JUMPDEST DUP2 EQ PUSH2 0x5E8 JUMPI PUSH1 0x0 DUP1 REVERT JUMPDEST POP JUMP INVALID LOG2 PUSH5 0x6970667358 0x22 SLT KECCAK256 DUP15 SWAP14 CALLDATASIZE 0xBB SGT SWAP1 0xB7 DUP6 PUSH16 0x7B8B1EA4458B0FDA719B454BB7548EFC 0xE2 0xA8 0xD6 0xEC PUSH10 0x4D6D64736F6C63430008 SMOD STOP CALLER "
				},
				"gasEstimates": {
					"creation": {
						"codeDepositCost": "313800",
						"executionCost": "infinite",
						"totalCost": "infinite"
					},
					"external": {
						"": "151",
						"endLottery()": "infinite",
						"manager()": "infinite",
						"players(uint256)": "5000",
						"transferEthToWinner(address,uint256)": "infinite"
					},
					"internal": {
						"deleteAllPlayers()": "infinite"
					}
				},
				"methodIdentifiers": {
					"endLottery()": "1593a8c7",
					"manager()": "481c6a75",
					"players(uint256)": "f71d96cb",
					"transferEthToWinner(address,uint256)": "10c5762e"
				}
			},
			"storageLayout": {
				"storage": [
					{
						"astId": 6,
						"contract": "contracts/lottery.sol:Lottery",
						"label": "players",
						"offset": 0,
						"slot": "0",
						"type": "t_array(t_address_payable)dyn_storage"
					}
				],
				"types": {
					"t_address_payable": {
						"encoding": "inplace",
						"label": "address payable",
						"numberOfBytes": "20"
					},
					"t_array(t_address_payable)dyn_storage": {
						"base": "t_address_payable",
						"encoding": "dynamic_array",
						"label": "address payable[]",
						"numberOfBytes": "32"
					}
				}
			},
			"userdoc": {
				"kind": "user",
				"methods": {},
				"version": 1
			}
		}
	}
}