{
	"contracts/lottery.sol": {
		"Lottery": {
			"abi": [
				{
					"inputs": [],
					"stateMutability": "nonpayable",
					"type": "constructor"
				},
				{
					"stateMutability": "payable",
					"type": "fallback"
				},
				{
					"inputs": [],
					"name": "endLottery",
					"outputs": [],
					"stateMutability": "nonpayable",
					"type": "function"
				},
				{
					"inputs": [],
					"name": "getBalance",
					"outputs": [
						{
							"internalType": "uint256",
							"name": "",
							"type": "uint256"
						}
					],
					"stateMutability": "view",
					"type": "function"
				},
				{
					"inputs": [],
					"name": "manager",
					"outputs": [
						{
							"internalType": "address",
							"name": "",
							"type": "address"
						}
					],
					"stateMutability": "view",
					"type": "function"
				},
				{
					"inputs": [
						{
							"internalType": "uint256",
							"name": "",
							"type": "uint256"
						}
					],
					"name": "players",
					"outputs": [
						{
							"internalType": "address payable",
							"name": "",
							"type": "address"
						}
					],
					"stateMutability": "view",
					"type": "function"
				},
				{
					"inputs": [
						{
							"internalType": "address payable",
							"name": "recipient",
							"type": "address"
						},
						{
							"internalType": "uint256",
							"name": "amount",
							"type": "uint256"
						}
					],
					"name": "transferEthToWinner",
					"outputs": [],
					"stateMutability": "nonpayable",
					"type": "function"
				},
				{
					"stateMutability": "payable",
					"type": "receive"
				}
			],
			"devdoc": {
				"kind": "dev",
				"methods": {},
				"version": 1
			},
			"evm": {
				"assembly": "    /* \"contracts/lottery.sol\":73:1239  contract Lottery{\r... */\n  mstore(0x40, 0xa0)\n    /* \"contracts/lottery.sol\":178:259  constructor(){\r... */\n  callvalue\n  dup1\n  iszero\n  tag_1\n  jumpi\n  0x00\n  dup1\n  revert\ntag_1:\n  pop\n    /* \"contracts/lottery.sol\":212:222  msg.sender */\n  caller\n    /* \"contracts/lottery.sol\":202:222  manager = msg.sender */\n  0xffffffffffffffffffffffffffffffffffffffff\n  and\n  0x80\n  dup2\n  0xffffffffffffffffffffffffffffffffffffffff\n  and\n  0x60\n  shl\n  dup2\n  mstore\n  pop\n  pop\n    /* \"contracts/lottery.sol\":233:251  deleteAllPlayers() */\n  tag_4\n    /* \"contracts/lottery.sol\":233:249  deleteAllPlayers */\n  shl(0x20, tag_5)\n    /* \"contracts/lottery.sol\":233:251  deleteAllPlayers() */\n  0x20\n  shr\n  jump\t// in\ntag_4:\n    /* \"contracts/lottery.sol\":73:1239  contract Lottery{\r... */\n  jump(tag_6)\n    /* \"contracts/lottery.sol\":1083:1236  function deleteAllPlayers() private {\r... */\ntag_5:\n    /* \"contracts/lottery.sol\":1130:1136  uint j */\n  0x00\n    /* \"contracts/lottery.sol\":1139:1146  players */\n  dup1\n    /* \"contracts/lottery.sol\":1139:1153  players.length */\n  dup1\n  sload\n  swap1\n  pop\n    /* \"contracts/lottery.sol\":1130:1153  uint j = players.length */\n  swap1\n  pop\n    /* \"contracts/lottery.sol\":1168:1174  uint i */\n  0x00\n    /* \"contracts/lottery.sol\":1164:1229  for(uint i = 0; i<j; i++){\r... */\ntag_8:\n    /* \"contracts/lottery.sol\":1182:1183  j */\n  dup2\n    /* \"contracts/lottery.sol\":1180:1181  i */\n  dup2\n    /* \"contracts/lottery.sol\":1180:1183  i<j */\n  lt\n    /* \"contracts/lottery.sol\":1164:1229  for(uint i = 0; i<j; i++){\r... */\n  iszero\n  tag_9\n  jumpi\n    /* \"contracts/lottery.sol\":1204:1211  players */\n  0x00\n    /* \"contracts/lottery.sol\":1204:1217  players.pop() */\n  dup1\n  sload\n  dup1\n  tag_11\n  jumpi\n  tag_12\n  tag_13\n  jump\t// in\ntag_12:\ntag_11:\n  0x01\n  swap1\n  sub\n  dup2\n  dup2\n  swap1\n  0x00\n  mstore\n  keccak256(0x00, 0x20)\n  add\n  exp(0x0100, 0x00)\n  dup2\n  sload\n  swap1\n  0xffffffffffffffffffffffffffffffffffffffff\n  mul\n  not\n  and\n  swap1\n  sstore\n  swap1\n  sstore\n    /* \"contracts/lottery.sol\":1185:1188  i++ */\n  dup1\n  dup1\n  tag_15\n  swap1\n  tag_16\n  jump\t// in\ntag_15:\n  swap2\n  pop\n  pop\n    /* \"contracts/lottery.sol\":1164:1229  for(uint i = 0; i<j; i++){\r... */\n  jump(tag_8)\ntag_9:\n  pop\n    /* \"contracts/lottery.sol\":1119:1236  {\r... */\n  pop\n    /* \"contracts/lottery.sol\":1083:1236  function deleteAllPlayers() private {\r... */\n  jump\t// out\n    /* \"#utility.yul\":7:84   */\ntag_18:\n    /* \"#utility.yul\":44:51   */\n  0x00\n    /* \"#utility.yul\":73:78   */\n  dup2\n    /* \"#utility.yul\":62:78   */\n  swap1\n  pop\n    /* \"#utility.yul\":7:84   */\n  swap2\n  swap1\n  pop\n  jump\t// out\n    /* \"#utility.yul\":90:323   */\ntag_16:\n    /* \"#utility.yul\":129:132   */\n  0x00\n    /* \"#utility.yul\":152:176   */\n  tag_21\n    /* \"#utility.yul\":170:175   */\n  dup3\n    /* \"#utility.yul\":152:176   */\n  tag_18\n  jump\t// in\ntag_21:\n    /* \"#utility.yul\":143:176   */\n  swap2\n  pop\n    /* \"#utility.yul\":198:264   */\n  0xffffffffffffffffffffffffffffffffffffffffffffffffffffffffffffffff\n    /* \"#utility.yul\":191:196   */\n  dup3\n    /* \"#utility.yul\":188:265   */\n  eq\n    /* \"#utility.yul\":185:288   */\n  iszero\n  tag_22\n  jumpi\n    /* \"#utility.yul\":268:286   */\n  tag_23\n  tag_24\n  jump\t// in\ntag_23:\n    /* \"#utility.yul\":185:288   */\ntag_22:\n    /* \"#utility.yul\":315:316   */\n  0x01\n    /* \"#utility.yul\":308:313   */\n  dup3\n    /* \"#utility.yul\":304:317   */\n  add\n    /* \"#utility.yul\":297:317   */\n  swap1\n  pop\n    /* \"#utility.yul\":90:323   */\n  swap2\n  swap1\n  pop\n  jump\t// out\n    /* \"#utility.yul\":329:509   */\ntag_24:\n    /* \"#utility.yul\":377:454   */\n  0x4e487b7100000000000000000000000000000000000000000000000000000000\n    /* \"#utility.yul\":374:375   */\n  0x00\n    /* \"#utility.yul\":367:455   */\n  mstore\n    /* \"#utility.yul\":474:478   */\n  0x11\n    /* \"#utility.yul\":471:472   */\n  0x04\n    /* \"#utility.yul\":464:479   */\n  mstore\n    /* \"#utility.yul\":498:502   */\n  0x24\n    /* \"#utility.yul\":495:496   */\n  0x00\n    /* \"#utility.yul\":488:503   */\n  revert\n    /* \"#utility.yul\":515:695   */\ntag_13:\n    /* \"#utility.yul\":563:640   */\n  0x4e487b7100000000000000000000000000000000000000000000000000000000\n    /* \"#utility.yul\":560:561   */\n  0x00\n    /* \"#utility.yul\":553:641   */\n  mstore\n    /* \"#utility.yul\":660:664   */\n  0x31\n    /* \"#utility.yul\":657:658   */\n  0x04\n    /* \"#utility.yul\":650:665   */\n  mstore\n    /* \"#utility.yul\":684:688   */\n  0x24\n    /* \"#utility.yul\":681:682   */\n  0x00\n    /* \"#utility.yul\":674:689   */\n  revert\n    /* \"contracts/lottery.sol\":73:1239  contract Lottery{\r... */\ntag_6:\n  shr(0x60, mload(0x80))\n  codecopy(0x00, dataOffset(sub_0), dataSize(sub_0))\n  0x00\n  assignImmutable(\"0x2a80e1ef1d7842f27f2e6be0972bb708b9a135c38860dbe73c27c3486c34f4de\")\n  return(0x00, dataSize(sub_0))\nstop\n\nsub_0: assembly {\n        /* \"contracts/lottery.sol\":73:1239  contract Lottery{\r... */\n      mstore(0x40, 0x80)\n      jumpi(tag_1, lt(calldatasize, 0x04))\n      shr(0xe0, calldataload(0x00))\n      dup1\n      0x10c5762e\n      eq\n      tag_3\n      jumpi\n      dup1\n      0x12065fe0\n      eq\n      tag_4\n      jumpi\n      dup1\n      0x1593a8c7\n      eq\n      tag_5\n      jumpi\n      dup1\n      0x481c6a75\n      eq\n      tag_6\n      jumpi\n      dup1\n      0xf71d96cb\n      eq\n      tag_7\n      jumpi\n      jump(tag_2)\n    tag_1:\n      jumpi(tag_2, calldatasize)\n        /* \"contracts/lottery.sol\":320:338  100000000000000000 */\n      0x016345785d8a0000\n        /* \"contracts/lottery.sol\":307:316  msg.value */\n      callvalue\n        /* \"contracts/lottery.sol\":307:338  msg.value == 100000000000000000 */\n      eq\n        /* \"contracts/lottery.sol\":304:440  if(msg.value == 100000000000000000){\r... */\n      iszero\n      tag_10\n      jumpi\n        /* \"contracts/lottery.sol\":354:361  players */\n      0x00\n        /* \"contracts/lottery.sol\":375:385  msg.sender */\n      caller\n        /* \"contracts/lottery.sol\":354:387  players.push(payable(msg.sender)) */\n      swap1\n      dup1\n      0x01\n      dup2\n      sload\n      add\n      dup1\n      dup3\n      sstore\n      dup1\n      swap2\n      pop\n      pop\n      0x01\n      swap1\n      sub\n      swap1\n      0x00\n      mstore\n      keccak256(0x00, 0x20)\n      add\n      0x00\n      swap1\n      swap2\n      swap1\n      swap2\n      swap1\n      swap2\n      0x0100\n      exp\n      dup2\n      sload\n      dup2\n      0xffffffffffffffffffffffffffffffffffffffff\n      mul\n      not\n      and\n      swap1\n      dup4\n      0xffffffffffffffffffffffffffffffffffffffff\n      and\n      mul\n      or\n      swap1\n      sstore\n      pop\n        /* \"contracts/lottery.sol\":304:440  if(msg.value == 100000000000000000){\r... */\n      jump(tag_12)\n    tag_10:\n        /* \"contracts/lottery.sol\":420:428  revert() */\n      0x00\n      dup1\n      revert\n        /* \"contracts/lottery.sol\":304:440  if(msg.value == 100000000000000000){\r... */\n    tag_12:\n        /* \"contracts/lottery.sol\":73:1239  contract Lottery{\r... */\n      stop\n    tag_2:\n        /* \"contracts/lottery.sol\":493:501  revert() */\n      0x00\n      dup1\n      revert\n        /* \"contracts/lottery.sol\":912:1075  function transferEthToWinner(address payable recipient, uint amount) public{\r... */\n    tag_3:\n      callvalue\n      dup1\n      iszero\n      tag_15\n      jumpi\n      0x00\n      dup1\n      revert\n    tag_15:\n      pop\n      tag_16\n      0x04\n      dup1\n      calldatasize\n      sub\n      dup2\n      add\n      swap1\n      tag_17\n      swap2\n      swap1\n      tag_18\n      jump\t// in\n    tag_17:\n      tag_19\n      jump\t// in\n    tag_16:\n      stop\n        /* \"contracts/lottery.sol\":517:611  function getBalance() public view returns(uint){\r... */\n    tag_4:\n      callvalue\n      dup1\n      iszero\n      tag_20\n      jumpi\n      0x00\n      dup1\n      revert\n    tag_20:\n      pop\n      tag_21\n      tag_22\n      jump\t// in\n    tag_21:\n      mload(0x40)\n      tag_23\n      swap2\n      swap1\n      tag_24\n      jump\t// in\n    tag_23:\n      mload(0x40)\n      dup1\n      swap2\n      sub\n      swap1\n      return\n        /* \"contracts/lottery.sol\":619:904  function endLottery() public{\r... */\n    tag_5:\n      callvalue\n      dup1\n      iszero\n      tag_25\n      jumpi\n      0x00\n      dup1\n      revert\n    tag_25:\n      pop\n      tag_26\n      tag_27\n      jump\t// in\n    tag_26:\n      stop\n        /* \"contracts/lottery.sol\":98:130  address public immutable manager */\n    tag_6:\n      callvalue\n      dup1\n      iszero\n      tag_28\n      jumpi\n      0x00\n      dup1\n      revert\n    tag_28:\n      pop\n      tag_29\n      tag_30\n      jump\t// in\n    tag_29:\n      mload(0x40)\n      tag_31\n      swap2\n      swap1\n      tag_32\n      jump\t// in\n    tag_31:\n      mload(0x40)\n      dup1\n      swap2\n      sub\n      swap1\n      return\n        /* \"contracts/lottery.sol\":137:169  address payable[] public players */\n    tag_7:\n      callvalue\n      dup1\n      iszero\n      tag_33\n      jumpi\n      0x00\n      dup1\n      revert\n    tag_33:\n      pop\n      tag_34\n      0x04\n      dup1\n      calldatasize\n      sub\n      dup2\n      add\n      swap1\n      tag_35\n      swap2\n      swap1\n      tag_36\n      jump\t// in\n    tag_35:\n      tag_37\n      jump\t// in\n    tag_34:\n      mload(0x40)\n      tag_38\n      swap2\n      swap1\n      tag_39\n      jump\t// in\n    tag_38:\n      mload(0x40)\n      dup1\n      swap2\n      sub\n      swap1\n      return\n        /* \"contracts/lottery.sol\":912:1075  function transferEthToWinner(address payable recipient, uint amount) public{\r... */\n    tag_19:\n        /* \"contracts/lottery.sol\":1017:1027  msg.sender */\n      caller\n        /* \"contracts/lottery.sol\":1006:1027  manager == msg.sender */\n      0xffffffffffffffffffffffffffffffffffffffff\n      and\n        /* \"contracts/lottery.sol\":1006:1013  manager */\n      immutable(\"0x2a80e1ef1d7842f27f2e6be0972bb708b9a135c38860dbe73c27c3486c34f4de\")\n        /* \"contracts/lottery.sol\":1006:1027  manager == msg.sender */\n      0xffffffffffffffffffffffffffffffffffffffff\n      and\n      eq\n        /* \"contracts/lottery.sol\":998:1028  require(manager == msg.sender) */\n      tag_41\n      jumpi\n      0x00\n      dup1\n      revert\n    tag_41:\n        /* \"contracts/lottery.sol\":1041:1050  recipient */\n      dup2\n        /* \"contracts/lottery.sol\":1041:1059  recipient.transfer */\n      0xffffffffffffffffffffffffffffffffffffffff\n      and\n        /* \"contracts/lottery.sol\":1041:1067  recipient.transfer(amount) */\n      0x08fc\n        /* \"contracts/lottery.sol\":1060:1066  amount */\n      dup3\n        /* \"contracts/lottery.sol\":1041:1067  recipient.transfer(amount) */\n      swap1\n      dup2\n      iszero\n      mul\n      swap1\n      mload(0x40)\n      0x00\n      mload(0x40)\n      dup1\n      dup4\n      sub\n      dup2\n      dup6\n      dup9\n      dup9\n      call\n      swap4\n      pop\n      pop\n      pop\n      pop\n      iszero\n      dup1\n      iszero\n      tag_43\n      jumpi\n      returndatasize\n      0x00\n      dup1\n      returndatacopy\n      revert(0x00, returndatasize)\n    tag_43:\n      pop\n        /* \"contracts/lottery.sol\":912:1075  function transferEthToWinner(address payable recipient, uint amount) public{\r... */\n      pop\n      pop\n      jump\t// out\n        /* \"contracts/lottery.sol\":517:611  function getBalance() public view returns(uint){\r... */\n    tag_22:\n        /* \"contracts/lottery.sol\":559:563  uint */\n      0x00\n        /* \"contracts/lottery.sol\":582:603  address(this).balance */\n      selfbalance\n        /* \"contracts/lottery.sol\":575:603  return address(this).balance */\n      swap1\n      pop\n        /* \"contracts/lottery.sol\":517:611  function getBalance() public view returns(uint){\r... */\n      swap1\n      jump\t// out\n        /* \"contracts/lottery.sol\":619:904  function endLottery() public{\r... */\n    tag_27:\n        /* \"contracts/lottery.sol\":677:687  msg.sender */\n      caller\n        /* \"contracts/lottery.sol\":666:687  manager == msg.sender */\n      0xffffffffffffffffffffffffffffffffffffffff\n      and\n        /* \"contracts/lottery.sol\":666:673  manager */\n      immutable(\"0x2a80e1ef1d7842f27f2e6be0972bb708b9a135c38860dbe73c27c3486c34f4de\")\n        /* \"contracts/lottery.sol\":666:687  manager == msg.sender */\n      0xffffffffffffffffffffffffffffffffffffffff\n      and\n      eq\n        /* \"contracts/lottery.sol\":658:688  require(manager == msg.sender) */\n      tag_46\n      jumpi\n      0x00\n      dup1\n      revert\n    tag_46:\n        /* \"contracts/lottery.sol\":720:721  3 */\n      0x03\n        /* \"contracts/lottery.sol\":702:709  players */\n      0x00\n        /* \"contracts/lottery.sol\":702:716  players.length */\n      dup1\n      sload\n      swap1\n      pop\n        /* \"contracts/lottery.sol\":702:721  players.length >= 3 */\n      lt\n        /* \"contracts/lottery.sol\":699:897  if(players.length >= 3){\r... */\n      tag_47\n      jumpi\n        /* \"contracts/lottery.sol\":751:771  address payable addr */\n      0x00\n        /* \"contracts/lottery.sol\":774:781  players */\n      dup1\n        /* \"contracts/lottery.sol\":782:783  0 */\n      0x00\n        /* \"contracts/lottery.sol\":774:784  players[0] */\n      dup2\n      sload\n      dup2\n      lt\n      tag_48\n      jumpi\n      tag_49\n      tag_50\n      jump\t// in\n    tag_49:\n    tag_48:\n      swap1\n      0x00\n      mstore\n      keccak256(0x00, 0x20)\n      add\n      0x00\n      swap1\n      sload\n      swap1\n      0x0100\n      exp\n      swap1\n      div\n      0xffffffffffffffffffffffffffffffffffffffff\n      and\n        /* \"contracts/lottery.sol\":751:784  address payable addr = players[0] */\n      swap1\n      pop\n        /* \"contracts/lottery.sol\":813:852  transferEthToWinner(addr, getBalance()) */\n      tag_52\n        /* \"contracts/lottery.sol\":833:837  addr */\n      dup2\n        /* \"contracts/lottery.sol\":839:851  getBalance() */\n      tag_53\n        /* \"contracts/lottery.sol\":839:849  getBalance */\n      tag_22\n        /* \"contracts/lottery.sol\":839:851  getBalance() */\n      jump\t// in\n    tag_53:\n        /* \"contracts/lottery.sol\":813:832  transferEthToWinner */\n      tag_19\n        /* \"contracts/lottery.sol\":813:852  transferEthToWinner(addr, getBalance()) */\n      jump\t// in\n    tag_52:\n        /* \"contracts/lottery.sol\":867:885  deleteAllPlayers() */\n      tag_54\n        /* \"contracts/lottery.sol\":867:883  deleteAllPlayers */\n      tag_55\n        /* \"contracts/lottery.sol\":867:885  deleteAllPlayers() */\n      jump\t// in\n    tag_54:\n        /* \"contracts/lottery.sol\":722:897  {\r... */\n      pop\n        /* \"contracts/lottery.sol\":699:897  if(players.length >= 3){\r... */\n    tag_47:\n        /* \"contracts/lottery.sol\":619:904  function endLottery() public{\r... */\n      jump\t// out\n        /* \"contracts/lottery.sol\":98:130  address public immutable manager */\n    tag_30:\n      immutable(\"0x2a80e1ef1d7842f27f2e6be0972bb708b9a135c38860dbe73c27c3486c34f4de\")\n      dup2\n      jump\t// out\n        /* \"contracts/lottery.sol\":137:169  address payable[] public players */\n    tag_37:\n      0x00\n      dup2\n      dup2\n      sload\n      dup2\n      lt\n      tag_56\n      jumpi\n      0x00\n      dup1\n      revert\n    tag_56:\n      swap1\n      0x00\n      mstore\n      keccak256(0x00, 0x20)\n      add\n      0x00\n      swap2\n      pop\n      sload\n      swap1\n      0x0100\n      exp\n      swap1\n      div\n      0xffffffffffffffffffffffffffffffffffffffff\n      and\n      dup2\n      jump\t// out\n        /* \"contracts/lottery.sol\":1083:1236  function deleteAllPlayers() private {\r... */\n    tag_55:\n        /* \"contracts/lottery.sol\":1130:1136  uint j */\n      0x00\n        /* \"contracts/lottery.sol\":1139:1146  players */\n      dup1\n        /* \"contracts/lottery.sol\":1139:1153  players.length */\n      dup1\n      sload\n      swap1\n      pop\n        /* \"contracts/lottery.sol\":1130:1153  uint j = players.length */\n      swap1\n      pop\n        /* \"contracts/lottery.sol\":1168:1174  uint i */\n      0x00\n        /* \"contracts/lottery.sol\":1164:1229  for(uint i = 0; i<j; i++){\r... */\n    tag_59:\n        /* \"contracts/lottery.sol\":1182:1183  j */\n      dup2\n        /* \"contracts/lottery.sol\":1180:1181  i */\n      dup2\n        /* \"contracts/lottery.sol\":1180:1183  i<j */\n      lt\n        /* \"contracts/lottery.sol\":1164:1229  for(uint i = 0; i<j; i++){\r... */\n      iszero\n      tag_60\n      jumpi\n        /* \"contracts/lottery.sol\":1204:1211  players */\n      0x00\n        /* \"contracts/lottery.sol\":1204:1217  players.pop() */\n      dup1\n      sload\n      dup1\n      tag_62\n      jumpi\n      tag_63\n      tag_64\n      jump\t// in\n    tag_63:\n    tag_62:\n      0x01\n      swap1\n      sub\n      dup2\n      dup2\n      swap1\n      0x00\n      mstore\n      keccak256(0x00, 0x20)\n      add\n      exp(0x0100, 0x00)\n      dup2\n      sload\n      swap1\n      0xffffffffffffffffffffffffffffffffffffffff\n      mul\n      not\n      and\n      swap1\n      sstore\n      swap1\n      sstore\n        /* \"contracts/lottery.sol\":1185:1188  i++ */\n      dup1\n      dup1\n      tag_66\n      swap1\n      tag_67\n      jump\t// in\n    tag_66:\n      swap2\n      pop\n      pop\n        /* \"contracts/lottery.sol\":1164:1229  for(uint i = 0; i<j; i++){\r... */\n      jump(tag_59)\n    tag_60:\n      pop\n        /* \"contracts/lottery.sol\":1119:1236  {\r... */\n      pop\n        /* \"contracts/lottery.sol\":1083:1236  function deleteAllPlayers() private {\r... */\n      jump\t// out\n        /* \"#utility.yul\":7:162   */\n    tag_69:\n        /* \"#utility.yul\":61:66   */\n      0x00\n        /* \"#utility.yul\":99:105   */\n      dup2\n        /* \"#utility.yul\":86:106   */\n      calldataload\n        /* \"#utility.yul\":77:106   */\n      swap1\n      pop\n        /* \"#utility.yul\":115:156   */\n      tag_71\n        /* \"#utility.yul\":150:155   */\n      dup2\n        /* \"#utility.yul\":115:156   */\n      tag_72\n      jump\t// in\n    tag_71:\n        /* \"#utility.yul\":7:162   */\n      swap3\n      swap2\n      pop\n      pop\n      jump\t// out\n        /* \"#utility.yul\":168:307   */\n    tag_73:\n        /* \"#utility.yul\":214:219   */\n      0x00\n        /* \"#utility.yul\":252:258   */\n      dup2\n        /* \"#utility.yul\":239:259   */\n      calldataload\n        /* \"#utility.yul\":230:259   */\n      swap1\n      pop\n        /* \"#utility.yul\":268:301   */\n      tag_75\n        /* \"#utility.yul\":295:300   */\n      dup2\n        /* \"#utility.yul\":268:301   */\n      tag_76\n      jump\t// in\n    tag_75:\n        /* \"#utility.yul\":168:307   */\n      swap3\n      swap2\n      pop\n      pop\n      jump\t// out\n        /* \"#utility.yul\":313:803   */\n    tag_18:\n        /* \"#utility.yul\":389:395   */\n      0x00\n        /* \"#utility.yul\":397:403   */\n      dup1\n        /* \"#utility.yul\":446:448   */\n      0x40\n        /* \"#utility.yul\":434:443   */\n      dup4\n        /* \"#utility.yul\":425:432   */\n      dup6\n        /* \"#utility.yul\":421:444   */\n      sub\n        /* \"#utility.yul\":417:449   */\n      slt\n        /* \"#utility.yul\":414:533   */\n      iszero\n      tag_78\n      jumpi\n        /* \"#utility.yul\":452:531   */\n      tag_79\n      tag_80\n      jump\t// in\n    tag_79:\n        /* \"#utility.yul\":414:533   */\n    tag_78:\n        /* \"#utility.yul\":572:573   */\n      0x00\n        /* \"#utility.yul\":597:658   */\n      tag_81\n        /* \"#utility.yul\":650:657   */\n      dup6\n        /* \"#utility.yul\":641:647   */\n      dup3\n        /* \"#utility.yul\":630:639   */\n      dup7\n        /* \"#utility.yul\":626:648   */\n      add\n        /* \"#utility.yul\":597:658   */\n      tag_69\n      jump\t// in\n    tag_81:\n        /* \"#utility.yul\":587:658   */\n      swap3\n      pop\n        /* \"#utility.yul\":543:668   */\n      pop\n        /* \"#utility.yul\":707:709   */\n      0x20\n        /* \"#utility.yul\":733:786   */\n      tag_82\n        /* \"#utility.yul\":778:785   */\n      dup6\n        /* \"#utility.yul\":769:775   */\n      dup3\n        /* \"#utility.yul\":758:767   */\n      dup7\n        /* \"#utility.yul\":754:776   */\n      add\n        /* \"#utility.yul\":733:786   */\n      tag_73\n      jump\t// in\n    tag_82:\n        /* \"#utility.yul\":723:786   */\n      swap2\n      pop\n        /* \"#utility.yul\":678:796   */\n      pop\n        /* \"#utility.yul\":313:803   */\n      swap3\n      pop\n      swap3\n      swap1\n      pop\n      jump\t// out\n        /* \"#utility.yul\":809:1138   */\n    tag_36:\n        /* \"#utility.yul\":868:874   */\n      0x00\n        /* \"#utility.yul\":917:919   */\n      0x20\n        /* \"#utility.yul\":905:914   */\n      dup3\n        /* \"#utility.yul\":896:903   */\n      dup5\n        /* \"#utility.yul\":892:915   */\n      sub\n        /* \"#utility.yul\":888:920   */\n      slt\n        /* \"#utility.yul\":885:1004   */\n      iszero\n      tag_84\n      jumpi\n        /* \"#utility.yul\":923:1002   */\n      tag_85\n      tag_80\n      jump\t// in\n    tag_85:\n        /* \"#utility.yul\":885:1004   */\n    tag_84:\n        /* \"#utility.yul\":1043:1044   */\n      0x00\n        /* \"#utility.yul\":1068:1121   */\n      tag_86\n        /* \"#utility.yul\":1113:1120   */\n      dup5\n        /* \"#utility.yul\":1104:1110   */\n      dup3\n        /* \"#utility.yul\":1093:1102   */\n      dup6\n        /* \"#utility.yul\":1089:1111   */\n      add\n        /* \"#utility.yul\":1068:1121   */\n      tag_73\n      jump\t// in\n    tag_86:\n        /* \"#utility.yul\":1058:1121   */\n      swap2\n      pop\n        /* \"#utility.yul\":1014:1131   */\n      pop\n        /* \"#utility.yul\":809:1138   */\n      swap3\n      swap2\n      pop\n      pop\n      jump\t// out\n        /* \"#utility.yul\":1144:1286   */\n    tag_87:\n        /* \"#utility.yul\":1247:1279   */\n      tag_89\n        /* \"#utility.yul\":1273:1278   */\n      dup2\n        /* \"#utility.yul\":1247:1279   */\n      tag_90\n      jump\t// in\n    tag_89:\n        /* \"#utility.yul\":1242:1245   */\n      dup3\n        /* \"#utility.yul\":1235:1280   */\n      mstore\n        /* \"#utility.yul\":1144:1286   */\n      pop\n      pop\n      jump\t// out\n        /* \"#utility.yul\":1292:1410   */\n    tag_91:\n        /* \"#utility.yul\":1379:1403   */\n      tag_93\n        /* \"#utility.yul\":1397:1402   */\n      dup2\n        /* \"#utility.yul\":1379:1403   */\n      tag_94\n      jump\t// in\n    tag_93:\n        /* \"#utility.yul\":1374:1377   */\n      dup3\n        /* \"#utility.yul\":1367:1404   */\n      mstore\n        /* \"#utility.yul\":1292:1410   */\n      pop\n      pop\n      jump\t// out\n        /* \"#utility.yul\":1416:1534   */\n    tag_95:\n        /* \"#utility.yul\":1503:1527   */\n      tag_97\n        /* \"#utility.yul\":1521:1526   */\n      dup2\n        /* \"#utility.yul\":1503:1527   */\n      tag_98\n      jump\t// in\n    tag_97:\n        /* \"#utility.yul\":1498:1501   */\n      dup3\n        /* \"#utility.yul\":1491:1528   */\n      mstore\n        /* \"#utility.yul\":1416:1534   */\n      pop\n      pop\n      jump\t// out\n        /* \"#utility.yul\":1540:1762   */\n    tag_32:\n        /* \"#utility.yul\":1633:1637   */\n      0x00\n        /* \"#utility.yul\":1671:1673   */\n      0x20\n        /* \"#utility.yul\":1660:1669   */\n      dup3\n        /* \"#utility.yul\":1656:1674   */\n      add\n        /* \"#utility.yul\":1648:1674   */\n      swap1\n      pop\n        /* \"#utility.yul\":1684:1755   */\n      tag_100\n        /* \"#utility.yul\":1752:1753   */\n      0x00\n        /* \"#utility.yul\":1741:1750   */\n      dup4\n        /* \"#utility.yul\":1737:1754   */\n      add\n        /* \"#utility.yul\":1728:1734   */\n      dup5\n        /* \"#utility.yul\":1684:1755   */\n      tag_91\n      jump\t// in\n    tag_100:\n        /* \"#utility.yul\":1540:1762   */\n      swap3\n      swap2\n      pop\n      pop\n      jump\t// out\n        /* \"#utility.yul\":1768:2022   */\n    tag_39:\n        /* \"#utility.yul\":1877:1881   */\n      0x00\n        /* \"#utility.yul\":1915:1917   */\n      0x20\n        /* \"#utility.yul\":1904:1913   */\n      dup3\n        /* \"#utility.yul\":1900:1918   */\n      add\n        /* \"#utility.yul\":1892:1918   */\n      swap1\n      pop\n        /* \"#utility.yul\":1928:2015   */\n      tag_102\n        /* \"#utility.yul\":2012:2013   */\n      0x00\n        /* \"#utility.yul\":2001:2010   */\n      dup4\n        /* \"#utility.yul\":1997:2014   */\n      add\n        /* \"#utility.yul\":1988:1994   */\n      dup5\n        /* \"#utility.yul\":1928:2015   */\n      tag_87\n      jump\t// in\n    tag_102:\n        /* \"#utility.yul\":1768:2022   */\n      swap3\n      swap2\n      pop\n      pop\n      jump\t// out\n        /* \"#utility.yul\":2028:2250   */\n    tag_24:\n        /* \"#utility.yul\":2121:2125   */\n      0x00\n        /* \"#utility.yul\":2159:2161   */\n      0x20\n        /* \"#utility.yul\":2148:2157   */\n      dup3\n        /* \"#utility.yul\":2144:2162   */\n      add\n        /* \"#utility.yul\":2136:2162   */\n      swap1\n      pop\n        /* \"#utility.yul\":2172:2243   */\n      tag_104\n        /* \"#utility.yul\":2240:2241   */\n      0x00\n        /* \"#utility.yul\":2229:2238   */\n      dup4\n        /* \"#utility.yul\":2225:2242   */\n      add\n        /* \"#utility.yul\":2216:2222   */\n      dup5\n        /* \"#utility.yul\":2172:2243   */\n      tag_95\n      jump\t// in\n    tag_104:\n        /* \"#utility.yul\":2028:2250   */\n      swap3\n      swap2\n      pop\n      pop\n      jump\t// out\n        /* \"#utility.yul\":2337:2433   */\n    tag_94:\n        /* \"#utility.yul\":2374:2381   */\n      0x00\n        /* \"#utility.yul\":2403:2427   */\n      tag_108\n        /* \"#utility.yul\":2421:2426   */\n      dup3\n        /* \"#utility.yul\":2403:2427   */\n      tag_109\n      jump\t// in\n    tag_108:\n        /* \"#utility.yul\":2392:2427   */\n      swap1\n      pop\n        /* \"#utility.yul\":2337:2433   */\n      swap2\n      swap1\n      pop\n      jump\t// out\n        /* \"#utility.yul\":2439:2543   */\n    tag_90:\n        /* \"#utility.yul\":2484:2491   */\n      0x00\n        /* \"#utility.yul\":2513:2537   */\n      tag_111\n        /* \"#utility.yul\":2531:2536   */\n      dup3\n        /* \"#utility.yul\":2513:2537   */\n      tag_109\n      jump\t// in\n    tag_111:\n        /* \"#utility.yul\":2502:2537   */\n      swap1\n      pop\n        /* \"#utility.yul\":2439:2543   */\n      swap2\n      swap1\n      pop\n      jump\t// out\n        /* \"#utility.yul\":2549:2675   */\n    tag_109:\n        /* \"#utility.yul\":2586:2593   */\n      0x00\n        /* \"#utility.yul\":2626:2668   */\n      0xffffffffffffffffffffffffffffffffffffffff\n        /* \"#utility.yul\":2619:2624   */\n      dup3\n        /* \"#utility.yul\":2615:2669   */\n      and\n        /* \"#utility.yul\":2604:2669   */\n      swap1\n      pop\n        /* \"#utility.yul\":2549:2675   */\n      swap2\n      swap1\n      pop\n      jump\t// out\n        /* \"#utility.yul\":2681:2758   */\n    tag_98:\n        /* \"#utility.yul\":2718:2725   */\n      0x00\n        /* \"#utility.yul\":2747:2752   */\n      dup2\n        /* \"#utility.yul\":2736:2752   */\n      swap1\n      pop\n        /* \"#utility.yul\":2681:2758   */\n      swap2\n      swap1\n      pop\n      jump\t// out\n        /* \"#utility.yul\":2764:2997   */\n    tag_67:\n        /* \"#utility.yul\":2803:2806   */\n      0x00\n        /* \"#utility.yul\":2826:2850   */\n      tag_115\n        /* \"#utility.yul\":2844:2849   */\n      dup3\n        /* \"#utility.yul\":2826:2850   */\n      tag_98\n      jump\t// in\n    tag_115:\n        /* \"#utility.yul\":2817:2850   */\n      swap2\n      pop\n        /* \"#utility.yul\":2872:2938   */\n      0xffffffffffffffffffffffffffffffffffffffffffffffffffffffffffffffff\n        /* \"#utility.yul\":2865:2870   */\n      dup3\n        /* \"#utility.yul\":2862:2939   */\n      eq\n        /* \"#utility.yul\":2859:2962   */\n      iszero\n      tag_116\n      jumpi\n        /* \"#utility.yul\":2942:2960   */\n      tag_117\n      tag_118\n      jump\t// in\n    tag_117:\n        /* \"#utility.yul\":2859:2962   */\n    tag_116:\n        /* \"#utility.yul\":2989:2990   */\n      0x01\n        /* \"#utility.yul\":2982:2987   */\n      dup3\n        /* \"#utility.yul\":2978:2991   */\n      add\n        /* \"#utility.yul\":2971:2991   */\n      swap1\n      pop\n        /* \"#utility.yul\":2764:2997   */\n      swap2\n      swap1\n      pop\n      jump\t// out\n        /* \"#utility.yul\":3003:3183   */\n    tag_118:\n        /* \"#utility.yul\":3051:3128   */\n      0x4e487b7100000000000000000000000000000000000000000000000000000000\n        /* \"#utility.yul\":3048:3049   */\n      0x00\n        /* \"#utility.yul\":3041:3129   */\n      mstore\n        /* \"#utility.yul\":3148:3152   */\n      0x11\n        /* \"#utility.yul\":3145:3146   */\n      0x04\n        /* \"#utility.yul\":3138:3153   */\n      mstore\n        /* \"#utility.yul\":3172:3176   */\n      0x24\n        /* \"#utility.yul\":3169:3170   */\n      0x00\n        /* \"#utility.yul\":3162:3177   */\n      revert\n        /* \"#utility.yul\":3189:3369   */\n    tag_64:\n        /* \"#utility.yul\":3237:3314   */\n      0x4e487b7100000000000000000000000000000000000000000000000000000000\n        /* \"#utility.yul\":3234:3235   */\n      0x00\n        /* \"#utility.yul\":3227:3315   */\n      mstore\n        /* \"#utility.yul\":3334:3338   */\n      0x31\n        /* \"#utility.yul\":3331:3332   */\n      0x04\n        /* \"#utility.yul\":3324:3339   */\n      mstore\n        /* \"#utility.yul\":3358:3362   */\n      0x24\n        /* \"#utility.yul\":3355:3356   */\n      0x00\n        /* \"#utility.yul\":3348:3363   */\n      revert\n        /* \"#utility.yul\":3375:3555   */\n    tag_50:\n        /* \"#utility.yul\":3423:3500   */\n      0x4e487b7100000000000000000000000000000000000000000000000000000000\n        /* \"#utility.yul\":3420:3421   */\n      0x00\n        /* \"#utility.yul\":3413:3501   */\n      mstore\n        /* \"#utility.yul\":3520:3524   */\n      0x32\n        /* \"#utility.yul\":3517:3518   */\n      0x04\n        /* \"#utility.yul\":3510:3525   */\n      mstore\n        /* \"#utility.yul\":3544:3548   */\n      0x24\n        /* \"#utility.yul\":3541:3542   */\n      0x00\n        /* \"#utility.yul\":3534:3549   */\n      revert\n        /* \"#utility.yul\":3684:3801   */\n    tag_80:\n        /* \"#utility.yul\":3793:3794   */\n      0x00\n        /* \"#utility.yul\":3790:3791   */\n      dup1\n        /* \"#utility.yul\":3783:3795   */\n      revert\n        /* \"#utility.yul\":3807:3945   */\n    tag_72:\n        /* \"#utility.yul\":3888:3920   */\n      tag_126\n        /* \"#utility.yul\":3914:3919   */\n      dup2\n        /* \"#utility.yul\":3888:3920   */\n      tag_90\n      jump\t// in\n    tag_126:\n        /* \"#utility.yul\":3881:3886   */\n      dup2\n        /* \"#utility.yul\":3878:3921   */\n      eq\n        /* \"#utility.yul\":3868:3939   */\n      tag_127\n      jumpi\n        /* \"#utility.yul\":3935:3936   */\n      0x00\n        /* \"#utility.yul\":3932:3933   */\n      dup1\n        /* \"#utility.yul\":3925:3937   */\n      revert\n        /* \"#utility.yul\":3868:3939   */\n    tag_127:\n        /* \"#utility.yul\":3807:3945   */\n      pop\n      jump\t// out\n        /* \"#utility.yul\":3951:4073   */\n    tag_76:\n        /* \"#utility.yul\":4024:4048   */\n      tag_129\n        /* \"#utility.yul\":4042:4047   */\n      dup2\n        /* \"#utility.yul\":4024:4048   */\n      tag_98\n      jump\t// in\n    tag_129:\n        /* \"#utility.yul\":4017:4022   */\n      dup2\n        /* \"#utility.yul\":4014:4049   */\n      eq\n        /* \"#utility.yul\":4004:4067   */\n      tag_130\n      jumpi\n        /* \"#utility.yul\":4063:4064   */\n      0x00\n        /* \"#utility.yul\":4060:4061   */\n      dup1\n        /* \"#utility.yul\":4053:4065   */\n      revert\n        /* \"#utility.yul\":4004:4067   */\n    tag_130:\n        /* \"#utility.yul\":3951:4073   */\n      pop\n      jump\t// out\n\n    auxdata: 0xa2646970667358221220a158df756536bb9348252b898ab61725a29b7eb8bc4debaf2cc9593907e027fc64736f6c63430008070033\n}\n",
				"bytecode": {
					"linkReferences": {},
					"object": "60a060405234801561001057600080fd5b503373ffffffffffffffffffffffffffffffffffffffff1660808173ffffffffffffffffffffffffffffffffffffffff1660601b8152505061005661005b60201b60201c565b61017e565b60008080549050905060005b818110156100c95760008054806100815761008061014f565b5b6001900381819060005260206000200160006101000a81549073ffffffffffffffffffffffffffffffffffffffff0219169055905580806100c1906100d7565b915050610067565b5050565b6000819050919050565b60006100e2826100cd565b91507fffffffffffffffffffffffffffffffffffffffffffffffffffffffffffffffff82141561011557610114610120565b5b600182019050919050565b7f4e487b7100000000000000000000000000000000000000000000000000000000600052601160045260246000fd5b7f4e487b7100000000000000000000000000000000000000000000000000000000600052603160045260246000fd5b60805160601c6106916101aa600039600081816101c30152818161026e015261031c01526106916000f3fe60806040526004361061004e5760003560e01c806310c5762e146100d757806312065fe0146101005780631593a8c71461012b578063481c6a7514610142578063f71d96cb1461016d576100d2565b366100d25767016345785d8a00003414156100cb576000339080600181540180825580915050600190039060005260206000200160009091909190916101000a81548173ffffffffffffffffffffffffffffffffffffffff021916908373ffffffffffffffffffffffffffffffffffffffff1602179055506100d0565b600080fd5b005b600080fd5b3480156100e357600080fd5b506100fe60048036038101906100f99190610419565b6101aa565b005b34801561010c57600080fd5b5061011561024d565b60405161012291906104e9565b60405180910390f35b34801561013757600080fd5b50610140610255565b005b34801561014e57600080fd5b5061015761031a565b60405161016491906104b3565b60405180910390f35b34801561017957600080fd5b50610194600480360381019061018f9190610459565b61033e565b6040516101a191906104ce565b60405180910390f35b3373ffffffffffffffffffffffffffffffffffffffff167f000000000000000000000000000000000000000000000000000000000000000073ffffffffffffffffffffffffffffffffffffffff161461020257600080fd5b8173ffffffffffffffffffffffffffffffffffffffff166108fc829081150290604051600060405180830381858888f19350505050158015610248573d6000803e3d6000fd5b505050565b600047905090565b3373ffffffffffffffffffffffffffffffffffffffff167f000000000000000000000000000000000000000000000000000000000000000073ffffffffffffffffffffffffffffffffffffffff16146102ad57600080fd5b600360008054905010610318576000806000815481106102d0576102cf6105f9565b5b9060005260206000200160009054906101000a900473ffffffffffffffffffffffffffffffffffffffff16905061030e8161030961024d565b6101aa565b61031661037d565b505b565b7f000000000000000000000000000000000000000000000000000000000000000081565b6000818154811061034e57600080fd5b906000526020600020016000915054906101000a900473ffffffffffffffffffffffffffffffffffffffff1681565b60008080549050905060005b818110156103eb5760008054806103a3576103a26105ca565b5b6001900381819060005260206000200160006101000a81549073ffffffffffffffffffffffffffffffffffffffff0219169055905580806103e390610552565b915050610389565b5050565b6000813590506103fe8161062d565b92915050565b60008135905061041381610644565b92915050565b600080604083850312156104305761042f610628565b5b600061043e858286016103ef565b925050602061044f85828601610404565b9150509250929050565b60006020828403121561046f5761046e610628565b5b600061047d84828501610404565b91505092915050565b61048f81610516565b82525050565b61049e81610504565b82525050565b6104ad81610548565b82525050565b60006020820190506104c86000830184610495565b92915050565b60006020820190506104e36000830184610486565b92915050565b60006020820190506104fe60008301846104a4565b92915050565b600061050f82610528565b9050919050565b600061052182610528565b9050919050565b600073ffffffffffffffffffffffffffffffffffffffff82169050919050565b6000819050919050565b600061055d82610548565b91507fffffffffffffffffffffffffffffffffffffffffffffffffffffffffffffffff8214156105905761058f61059b565b5b600182019050919050565b7f4e487b7100000000000000000000000000000000000000000000000000000000600052601160045260246000fd5b7f4e487b7100000000000000000000000000000000000000000000000000000000600052603160045260246000fd5b7f4e487b7100000000000000000000000000000000000000000000000000000000600052603260045260246000fd5b600080fd5b61063681610516565b811461064157600080fd5b50565b61064d81610548565b811461065857600080fd5b5056fea2646970667358221220a158df756536bb9348252b898ab61725a29b7eb8bc4debaf2cc9593907e027fc64736f6c63430008070033",
					"opcodes": "PUSH1 0xA0 PUSH1 0x40 MSTORE CALLVALUE DUP1 ISZERO PUSH2 0x10 JUMPI PUSH1 0x0 DUP1 REVERT JUMPDEST POP CALLER PUSH20 0xFFFFFFFFFFFFFFFFFFFFFFFFFFFFFFFFFFFFFFFF AND PUSH1 0x80 DUP2 PUSH20 0xFFFFFFFFFFFFFFFFFFFFFFFFFFFFFFFFFFFFFFFF AND PUSH1 0x60 SHL DUP2 MSTORE POP POP PUSH2 0x56 PUSH2 0x5B PUSH1 0x20 SHL PUSH1 0x20 SHR JUMP JUMPDEST PUSH2 0x17E JUMP JUMPDEST PUSH1 0x0 DUP1 DUP1 SLOAD SWAP1 POP SWAP1 POP PUSH1 0x0 JUMPDEST DUP2 DUP2 LT ISZERO PUSH2 0xC9 JUMPI PUSH1 0x0 DUP1 SLOAD DUP1 PUSH2 0x81 JUMPI PUSH2 0x80 PUSH2 0x14F JUMP JUMPDEST JUMPDEST PUSH1 0x1 SWAP1 SUB DUP2 DUP2 SWAP1 PUSH1 0x0 MSTORE PUSH1 0x20 PUSH1 0x0 KECCAK256 ADD PUSH1 0x0 PUSH2 0x100 EXP DUP2 SLOAD SWAP1 PUSH20 0xFFFFFFFFFFFFFFFFFFFFFFFFFFFFFFFFFFFFFFFF MUL NOT AND SWAP1 SSTORE SWAP1 SSTORE DUP1 DUP1 PUSH2 0xC1 SWAP1 PUSH2 0xD7 JUMP JUMPDEST SWAP2 POP POP PUSH2 0x67 JUMP JUMPDEST POP POP JUMP JUMPDEST PUSH1 0x0 DUP2 SWAP1 POP SWAP2 SWAP1 POP JUMP JUMPDEST PUSH1 0x0 PUSH2 0xE2 DUP3 PUSH2 0xCD JUMP JUMPDEST SWAP2 POP PUSH32 0xFFFFFFFFFFFFFFFFFFFFFFFFFFFFFFFFFFFFFFFFFFFFFFFFFFFFFFFFFFFFFFFF DUP3 EQ ISZERO PUSH2 0x115 JUMPI PUSH2 0x114 PUSH2 0x120 JUMP JUMPDEST JUMPDEST PUSH1 0x1 DUP3 ADD SWAP1 POP SWAP2 SWAP1 POP JUMP JUMPDEST PUSH32 0x4E487B7100000000000000000000000000000000000000000000000000000000 PUSH1 0x0 MSTORE PUSH1 0x11 PUSH1 0x4 MSTORE PUSH1 0x24 PUSH1 0x0 REVERT JUMPDEST PUSH32 0x4E487B7100000000000000000000000000000000000000000000000000000000 PUSH1 0x0 MSTORE PUSH1 0x31 PUSH1 0x4 MSTORE PUSH1 0x24 PUSH1 0x0 REVERT JUMPDEST PUSH1 0x80 MLOAD PUSH1 0x60 SHR PUSH2 0x691 PUSH2 0x1AA PUSH1 0x0 CODECOPY PUSH1 0x0 DUP2 DUP2 PUSH2 0x1C3 ADD MSTORE DUP2 DUP2 PUSH2 0x26E ADD MSTORE PUSH2 0x31C ADD MSTORE PUSH2 0x691 PUSH1 0x0 RETURN INVALID PUSH1 0x80 PUSH1 0x40 MSTORE PUSH1 0x4 CALLDATASIZE LT PUSH2 0x4E JUMPI PUSH1 0x0 CALLDATALOAD PUSH1 0xE0 SHR DUP1 PUSH4 0x10C5762E EQ PUSH2 0xD7 JUMPI DUP1 PUSH4 0x12065FE0 EQ PUSH2 0x100 JUMPI DUP1 PUSH4 0x1593A8C7 EQ PUSH2 0x12B JUMPI DUP1 PUSH4 0x481C6A75 EQ PUSH2 0x142 JUMPI DUP1 PUSH4 0xF71D96CB EQ PUSH2 0x16D JUMPI PUSH2 0xD2 JUMP JUMPDEST CALLDATASIZE PUSH2 0xD2 JUMPI PUSH8 0x16345785D8A0000 CALLVALUE EQ ISZERO PUSH2 0xCB JUMPI PUSH1 0x0 CALLER SWAP1 DUP1 PUSH1 0x1 DUP2 SLOAD ADD DUP1 DUP3 SSTORE DUP1 SWAP2 POP POP PUSH1 0x1 SWAP1 SUB SWAP1 PUSH1 0x0 MSTORE PUSH1 0x20 PUSH1 0x0 KECCAK256 ADD PUSH1 0x0 SWAP1 SWAP2 SWAP1 SWAP2 SWAP1 SWAP2 PUSH2 0x100 EXP DUP2 SLOAD DUP2 PUSH20 0xFFFFFFFFFFFFFFFFFFFFFFFFFFFFFFFFFFFFFFFF MUL NOT AND SWAP1 DUP4 PUSH20 0xFFFFFFFFFFFFFFFFFFFFFFFFFFFFFFFFFFFFFFFF AND MUL OR SWAP1 SSTORE POP PUSH2 0xD0 JUMP JUMPDEST PUSH1 0x0 DUP1 REVERT JUMPDEST STOP JUMPDEST PUSH1 0x0 DUP1 REVERT JUMPDEST CALLVALUE DUP1 ISZERO PUSH2 0xE3 JUMPI PUSH1 0x0 DUP1 REVERT JUMPDEST POP PUSH2 0xFE PUSH1 0x4 DUP1 CALLDATASIZE SUB DUP2 ADD SWAP1 PUSH2 0xF9 SWAP2 SWAP1 PUSH2 0x419 JUMP JUMPDEST PUSH2 0x1AA JUMP JUMPDEST STOP JUMPDEST CALLVALUE DUP1 ISZERO PUSH2 0x10C JUMPI PUSH1 0x0 DUP1 REVERT JUMPDEST POP PUSH2 0x115 PUSH2 0x24D JUMP JUMPDEST PUSH1 0x40 MLOAD PUSH2 0x122 SWAP2 SWAP1 PUSH2 0x4E9 JUMP JUMPDEST PUSH1 0x40 MLOAD DUP1 SWAP2 SUB SWAP1 RETURN JUMPDEST CALLVALUE DUP1 ISZERO PUSH2 0x137 JUMPI PUSH1 0x0 DUP1 REVERT JUMPDEST POP PUSH2 0x140 PUSH2 0x255 JUMP JUMPDEST STOP JUMPDEST CALLVALUE DUP1 ISZERO PUSH2 0x14E JUMPI PUSH1 0x0 DUP1 REVERT JUMPDEST POP PUSH2 0x157 PUSH2 0x31A JUMP JUMPDEST PUSH1 0x40 MLOAD PUSH2 0x164 SWAP2 SWAP1 PUSH2 0x4B3 JUMP JUMPDEST PUSH1 0x40 MLOAD DUP1 SWAP2 SUB SWAP1 RETURN JUMPDEST CALLVALUE DUP1 ISZERO PUSH2 0x179 JUMPI PUSH1 0x0 DUP1 REVERT JUMPDEST POP PUSH2 0x194 PUSH1 0x4 DUP1 CALLDATASIZE SUB DUP2 ADD SWAP1 PUSH2 0x18F SWAP2 SWAP1 PUSH2 0x459 JUMP JUMPDEST PUSH2 0x33E JUMP JUMPDEST PUSH1 0x40 MLOAD PUSH2 0x1A1 SWAP2 SWAP1 PUSH2 0x4CE JUMP JUMPDEST PUSH1 0x40 MLOAD DUP1 SWAP2 SUB SWAP1 RETURN JUMPDEST CALLER PUSH20 0xFFFFFFFFFFFFFFFFFFFFFFFFFFFFFFFFFFFFFFFF AND PUSH32 0x0 PUSH20 0xFFFFFFFFFFFFFFFFFFFFFFFFFFFFFFFFFFFFFFFF AND EQ PUSH2 0x202 JUMPI PUSH1 0x0 DUP1 REVERT JUMPDEST DUP2 PUSH20 0xFFFFFFFFFFFFFFFFFFFFFFFFFFFFFFFFFFFFFFFF AND PUSH2 0x8FC DUP3 SWAP1 DUP2 ISZERO MUL SWAP1 PUSH1 0x40 MLOAD PUSH1 0x0 PUSH1 0x40 MLOAD DUP1 DUP4 SUB DUP2 DUP6 DUP9 DUP9 CALL SWAP4 POP POP POP POP ISZERO DUP1 ISZERO PUSH2 0x248 JUMPI RETURNDATASIZE PUSH1 0x0 DUP1 RETURNDATACOPY RETURNDATASIZE PUSH1 0x0 REVERT JUMPDEST POP POP POP JUMP JUMPDEST PUSH1 0x0 SELFBALANCE SWAP1 POP SWAP1 JUMP JUMPDEST CALLER PUSH20 0xFFFFFFFFFFFFFFFFFFFFFFFFFFFFFFFFFFFFFFFF AND PUSH32 0x0 PUSH20 0xFFFFFFFFFFFFFFFFFFFFFFFFFFFFFFFFFFFFFFFF AND EQ PUSH2 0x2AD JUMPI PUSH1 0x0 DUP1 REVERT JUMPDEST PUSH1 0x3 PUSH1 0x0 DUP1 SLOAD SWAP1 POP LT PUSH2 0x318 JUMPI PUSH1 0x0 DUP1 PUSH1 0x0 DUP2 SLOAD DUP2 LT PUSH2 0x2D0 JUMPI PUSH2 0x2CF PUSH2 0x5F9 JUMP JUMPDEST JUMPDEST SWAP1 PUSH1 0x0 MSTORE PUSH1 0x20 PUSH1 0x0 KECCAK256 ADD PUSH1 0x0 SWAP1 SLOAD SWAP1 PUSH2 0x100 EXP SWAP1 DIV PUSH20 0xFFFFFFFFFFFFFFFFFFFFFFFFFFFFFFFFFFFFFFFF AND SWAP1 POP PUSH2 0x30E DUP2 PUSH2 0x309 PUSH2 0x24D JUMP JUMPDEST PUSH2 0x1AA JUMP JUMPDEST PUSH2 0x316 PUSH2 0x37D JUMP JUMPDEST POP JUMPDEST JUMP JUMPDEST PUSH32 0x0 DUP2 JUMP JUMPDEST PUSH1 0x0 DUP2 DUP2 SLOAD DUP2 LT PUSH2 0x34E JUMPI PUSH1 0x0 DUP1 REVERT JUMPDEST SWAP1 PUSH1 0x0 MSTORE PUSH1 0x20 PUSH1 0x0 KECCAK256 ADD PUSH1 0x0 SWAP2 POP SLOAD SWAP1 PUSH2 0x100 EXP SWAP1 DIV PUSH20 0xFFFFFFFFFFFFFFFFFFFFFFFFFFFFFFFFFFFFFFFF AND DUP2 JUMP JUMPDEST PUSH1 0x0 DUP1 DUP1 SLOAD SWAP1 POP SWAP1 POP PUSH1 0x0 JUMPDEST DUP2 DUP2 LT ISZERO PUSH2 0x3EB JUMPI PUSH1 0x0 DUP1 SLOAD DUP1 PUSH2 0x3A3 JUMPI PUSH2 0x3A2 PUSH2 0x5CA JUMP JUMPDEST JUMPDEST PUSH1 0x1 SWAP1 SUB DUP2 DUP2 SWAP1 PUSH1 0x0 MSTORE PUSH1 0x20 PUSH1 0x0 KECCAK256 ADD PUSH1 0x0 PUSH2 0x100 EXP DUP2 SLOAD SWAP1 PUSH20 0xFFFFFFFFFFFFFFFFFFFFFFFFFFFFFFFFFFFFFFFF MUL NOT AND SWAP1 SSTORE SWAP1 SSTORE DUP1 DUP1 PUSH2 0x3E3 SWAP1 PUSH2 0x552 JUMP JUMPDEST SWAP2 POP POP PUSH2 0x389 JUMP JUMPDEST POP POP JUMP JUMPDEST PUSH1 0x0 DUP2 CALLDATALOAD SWAP1 POP PUSH2 0x3FE DUP2 PUSH2 0x62D JUMP JUMPDEST SWAP3 SWAP2 POP POP JUMP JUMPDEST PUSH1 0x0 DUP2 CALLDATALOAD SWAP1 POP PUSH2 0x413 DUP2 PUSH2 0x644 JUMP JUMPDEST SWAP3 SWAP2 POP POP JUMP JUMPDEST PUSH1 0x0 DUP1 PUSH1 0x40 DUP4 DUP6 SUB SLT ISZERO PUSH2 0x430 JUMPI PUSH2 0x42F PUSH2 0x628 JUMP JUMPDEST JUMPDEST PUSH1 0x0 PUSH2 0x43E DUP6 DUP3 DUP7 ADD PUSH2 0x3EF JUMP JUMPDEST SWAP3 POP POP PUSH1 0x20 PUSH2 0x44F DUP6 DUP3 DUP7 ADD PUSH2 0x404 JUMP JUMPDEST SWAP2 POP POP SWAP3 POP SWAP3 SWAP1 POP JUMP JUMPDEST PUSH1 0x0 PUSH1 0x20 DUP3 DUP5 SUB SLT ISZERO PUSH2 0x46F JUMPI PUSH2 0x46E PUSH2 0x628 JUMP JUMPDEST JUMPDEST PUSH1 0x0 PUSH2 0x47D DUP5 DUP3 DUP6 ADD PUSH2 0x404 JUMP JUMPDEST SWAP2 POP POP SWAP3 SWAP2 POP POP JUMP JUMPDEST PUSH2 0x48F DUP2 PUSH2 0x516 JUMP JUMPDEST DUP3 MSTORE POP POP JUMP JUMPDEST PUSH2 0x49E DUP2 PUSH2 0x504 JUMP JUMPDEST DUP3 MSTORE POP POP JUMP JUMPDEST PUSH2 0x4AD DUP2 PUSH2 0x548 JUMP JUMPDEST DUP3 MSTORE POP POP JUMP JUMPDEST PUSH1 0x0 PUSH1 0x20 DUP3 ADD SWAP1 POP PUSH2 0x4C8 PUSH1 0x0 DUP4 ADD DUP5 PUSH2 0x495 JUMP JUMPDEST SWAP3 SWAP2 POP POP JUMP JUMPDEST PUSH1 0x0 PUSH1 0x20 DUP3 ADD SWAP1 POP PUSH2 0x4E3 PUSH1 0x0 DUP4 ADD DUP5 PUSH2 0x486 JUMP JUMPDEST SWAP3 SWAP2 POP POP JUMP JUMPDEST PUSH1 0x0 PUSH1 0x20 DUP3 ADD SWAP1 POP PUSH2 0x4FE PUSH1 0x0 DUP4 ADD DUP5 PUSH2 0x4A4 JUMP JUMPDEST SWAP3 SWAP2 POP POP JUMP JUMPDEST PUSH1 0x0 PUSH2 0x50F DUP3 PUSH2 0x528 JUMP JUMPDEST SWAP1 POP SWAP2 SWAP1 POP JUMP JUMPDEST PUSH1 0x0 PUSH2 0x521 DUP3 PUSH2 0x528 JUMP JUMPDEST SWAP1 POP SWAP2 SWAP1 POP JUMP JUMPDEST PUSH1 0x0 PUSH20 0xFFFFFFFFFFFFFFFFFFFFFFFFFFFFFFFFFFFFFFFF DUP3 AND SWAP1 POP SWAP2 SWAP1 POP JUMP JUMPDEST PUSH1 0x0 DUP2 SWAP1 POP SWAP2 SWAP1 POP JUMP JUMPDEST PUSH1 0x0 PUSH2 0x55D DUP3 PUSH2 0x548 JUMP JUMPDEST SWAP2 POP PUSH32 0xFFFFFFFFFFFFFFFFFFFFFFFFFFFFFFFFFFFFFFFFFFFFFFFFFFFFFFFFFFFFFFFF DUP3 EQ ISZERO PUSH2 0x590 JUMPI PUSH2 0x58F PUSH2 0x59B JUMP JUMPDEST JUMPDEST PUSH1 0x1 DUP3 ADD SWAP1 POP SWAP2 SWAP1 POP JUMP JUMPDEST PUSH32 0x4E487B7100000000000000000000000000000000000000000000000000000000 PUSH1 0x0 MSTORE PUSH1 0x11 PUSH1 0x4 MSTORE PUSH1 0x24 PUSH1 0x0 REVERT JUMPDEST PUSH32 0x4E487B7100000000000000000000000000000000000000000000000000000000 PUSH1 0x0 MSTORE PUSH1 0x31 PUSH1 0x4 MSTORE PUSH1 0x24 PUSH1 0x0 REVERT JUMPDEST PUSH32 0x4E487B7100000000000000000000000000000000000000000000000000000000 PUSH1 0x0 MSTORE PUSH1 0x32 PUSH1 0x4 MSTORE PUSH1 0x24 PUSH1 0x0 REVERT JUMPDEST PUSH1 0x0 DUP1 REVERT JUMPDEST PUSH2 0x636 DUP2 PUSH2 0x516 JUMP JUMPDEST DUP2 EQ PUSH2 0x641 JUMPI PUSH1 0x0 DUP1 REVERT JUMPDEST POP JUMP JUMPDEST PUSH2 0x64D DUP2 PUSH2 0x548 JUMP JUMPDEST DUP2 EQ PUSH2 0x658 JUMPI PUSH1 0x0 DUP1 REVERT JUMPDEST POP JUMP INVALID LOG2 PUSH5 0x6970667358 0x22 SLT KECCAK256 LOG1 PC 0xDF PUSH22 0x6536BB9348252B898AB61725A29B7EB8BC4DEBAF2CC9 MSIZE CODECOPY SMOD 0xE0 0x27 0xFC PUSH5 0x736F6C6343 STOP ADDMOD SMOD STOP CALLER "
				},
				"gasEstimates": {
					"creation": {
						"codeDepositCost": "336200",
						"executionCost": "infinite",
						"totalCost": "infinite"
					},
					"external": {
						"": "179",
						"endLottery()": "infinite",
						"getBalance()": "339",
						"manager()": "infinite",
						"players(uint256)": "5022",
						"transferEthToWinner(address,uint256)": "infinite"
					},
					"internal": {
						"deleteAllPlayers()": "infinite"
					}
				},
				"methodIdentifiers": {
					"endLottery()": "1593a8c7",
					"getBalance()": "12065fe0",
					"manager()": "481c6a75",
					"players(uint256)": "f71d96cb",
					"transferEthToWinner(address,uint256)": "10c5762e"
				}
			},
			"storageLayout": {
				"storage": [
					{
						"astId": 6,
						"contract": "contracts/lottery.sol:Lottery",
						"label": "players",
						"offset": 0,
						"slot": "0",
						"type": "t_array(t_address_payable)dyn_storage"
					}
				],
				"types": {
					"t_address_payable": {
						"encoding": "inplace",
						"label": "address payable",
						"numberOfBytes": "20"
					},
					"t_array(t_address_payable)dyn_storage": {
						"base": "t_address_payable",
						"encoding": "dynamic_array",
						"label": "address payable[]",
						"numberOfBytes": "32"
					}
				}
			},
			"userdoc": {
				"kind": "user",
				"methods": {},
				"version": 1
			}
		}
	}
}