{
	"contracts/lottery.sol": {
		"Lottery": {
			"abi": [
				{
					"inputs": [],
					"stateMutability": "nonpayable",
					"type": "constructor"
				},
				{
					"inputs": [],
					"name": "endLottery",
					"outputs": [],
					"stateMutability": "nonpayable",
					"type": "function"
				},
				{
					"inputs": [],
					"name": "manager",
					"outputs": [
						{
							"internalType": "address",
							"name": "",
							"type": "address"
						}
					],
					"stateMutability": "view",
					"type": "function"
				},
				{
					"inputs": [
						{
							"internalType": "address",
							"name": "",
							"type": "address"
						}
					],
					"name": "players",
					"outputs": [
						{
							"internalType": "uint256",
							"name": "",
							"type": "uint256"
						}
					],
					"stateMutability": "view",
					"type": "function"
				},
				{
					"inputs": [
						{
							"internalType": "address",
							"name": "addr",
							"type": "address"
						},
						{
							"internalType": "uint256",
							"name": "amount",
							"type": "uint256"
						}
					],
					"name": "transferEthToWinner",
					"outputs": [],
					"stateMutability": "nonpayable",
					"type": "function"
				},
				{
					"stateMutability": "payable",
					"type": "receive"
				}
			],
			"devdoc": {
				"kind": "dev",
				"methods": {},
				"version": 1
			},
			"evm": {
				"assembly": "    /* \"contracts/lottery.sol\":73:677  contract Lottery{\r... */\n  mstore(0x40, 0xa0)\n    /* \"contracts/lottery.sol\":186:238  constructor(){\r... */\n  callvalue\n  dup1\n  iszero\n  tag_1\n  jumpi\n  0x00\n  dup1\n  revert\ntag_1:\n  pop\n    /* \"contracts/lottery.sol\":220:230  msg.sender */\n  caller\n    /* \"contracts/lottery.sol\":210:230  manager = msg.sender */\n  0xffffffffffffffffffffffffffffffffffffffff\n  and\n  0x80\n  dup2\n  0xffffffffffffffffffffffffffffffffffffffff\n  and\n  0x60\n  shl\n  dup2\n  mstore\n  pop\n  pop\n    /* \"contracts/lottery.sol\":73:677  contract Lottery{\r... */\n  shr(0x60, mload(0x80))\n  codecopy(0x00, dataOffset(sub_0), dataSize(sub_0))\n  0x00\n  assignImmutable(\"0x2a80e1ef1d7842f27f2e6be0972bb708b9a135c38860dbe73c27c3486c34f4de\")\n  return(0x00, dataSize(sub_0))\nstop\n\nsub_0: assembly {\n        /* \"contracts/lottery.sol\":73:677  contract Lottery{\r... */\n      mstore(0x40, 0x80)\n      jumpi(tag_1, lt(calldatasize, 0x04))\n      shr(0xe0, calldataload(0x00))\n      dup1\n      0x10c5762e\n      eq\n      tag_3\n      jumpi\n      dup1\n      0x1593a8c7\n      eq\n      tag_4\n      jumpi\n      dup1\n      0x481c6a75\n      eq\n      tag_5\n      jumpi\n      dup1\n      0xe2eb41ff\n      eq\n      tag_6\n      jumpi\n      jump(tag_2)\n    tag_1:\n      jumpi(tag_2, calldatasize)\n      stop\n    tag_2:\n      0x00\n      dup1\n      revert\n        /* \"contracts/lottery.sol\":563:674  function transferEthToWinner(address addr, uint amount) public{\r... */\n    tag_3:\n      callvalue\n      dup1\n      iszero\n      tag_10\n      jumpi\n      0x00\n      dup1\n      revert\n    tag_10:\n      pop\n      tag_11\n      0x04\n      dup1\n      calldatasize\n      sub\n      dup2\n      add\n      swap1\n      tag_12\n      swap2\n      swap1\n      tag_13\n      jump\t// in\n    tag_12:\n      tag_14\n      jump\t// in\n    tag_11:\n      stop\n        /* \"contracts/lottery.sol\":347:555  function endLottery() public{\r... */\n    tag_4:\n      callvalue\n      dup1\n      iszero\n      tag_15\n      jumpi\n      0x00\n      dup1\n      revert\n    tag_15:\n      pop\n      tag_16\n      tag_17\n      jump\t// in\n    tag_16:\n      stop\n        /* \"contracts/lottery.sol\":98:130  address public immutable manager */\n    tag_5:\n      callvalue\n      dup1\n      iszero\n      tag_18\n      jumpi\n      0x00\n      dup1\n      revert\n    tag_18:\n      pop\n      tag_19\n      tag_20\n      jump\t// in\n    tag_19:\n      mload(0x40)\n      tag_21\n      swap2\n      swap1\n      tag_22\n      jump\t// in\n    tag_21:\n      mload(0x40)\n      dup1\n      swap2\n      sub\n      swap1\n      return\n        /* \"contracts/lottery.sol\":137:176  mapping(address => uint) public players */\n    tag_6:\n      callvalue\n      dup1\n      iszero\n      tag_23\n      jumpi\n      0x00\n      dup1\n      revert\n    tag_23:\n      pop\n      tag_24\n      0x04\n      dup1\n      calldatasize\n      sub\n      dup2\n      add\n      swap1\n      tag_25\n      swap2\n      swap1\n      tag_26\n      jump\t// in\n    tag_25:\n      tag_27\n      jump\t// in\n    tag_24:\n      mload(0x40)\n      tag_28\n      swap2\n      swap1\n      tag_29\n      jump\t// in\n    tag_28:\n      mload(0x40)\n      dup1\n      swap2\n      sub\n      swap1\n      return\n        /* \"contracts/lottery.sol\":563:674  function transferEthToWinner(address addr, uint amount) public{\r... */\n    tag_14:\n        /* \"contracts/lottery.sol\":655:665  msg.sender */\n      caller\n        /* \"contracts/lottery.sol\":644:665  manager == msg.sender */\n      0xffffffffffffffffffffffffffffffffffffffff\n      and\n        /* \"contracts/lottery.sol\":644:651  manager */\n      immutable(\"0x2a80e1ef1d7842f27f2e6be0972bb708b9a135c38860dbe73c27c3486c34f4de\")\n        /* \"contracts/lottery.sol\":644:665  manager == msg.sender */\n      0xffffffffffffffffffffffffffffffffffffffff\n      and\n      eq\n        /* \"contracts/lottery.sol\":636:666  require(manager == msg.sender) */\n      tag_31\n      jumpi\n      0x00\n      dup1\n      revert\n    tag_31:\n        /* \"contracts/lottery.sol\":563:674  function transferEthToWinner(address addr, uint amount) public{\r... */\n      pop\n      pop\n      jump\t// out\n        /* \"contracts/lottery.sol\":347:555  function endLottery() public{\r... */\n    tag_17:\n        /* \"contracts/lottery.sol\":405:415  msg.sender */\n      caller\n        /* \"contracts/lottery.sol\":394:415  manager == msg.sender */\n      0xffffffffffffffffffffffffffffffffffffffff\n      and\n        /* \"contracts/lottery.sol\":394:401  manager */\n      immutable(\"0x2a80e1ef1d7842f27f2e6be0972bb708b9a135c38860dbe73c27c3486c34f4de\")\n        /* \"contracts/lottery.sol\":394:415  manager == msg.sender */\n      0xffffffffffffffffffffffffffffffffffffffff\n      and\n      eq\n        /* \"contracts/lottery.sol\":386:416  require(manager == msg.sender) */\n      tag_33\n      jumpi\n      0x00\n      dup1\n      revert\n    tag_33:\n        /* \"contracts/lottery.sol\":427:439  uint balance */\n      0x00\n        /* \"contracts/lottery.sol\":442:463  address(this).balance */\n      selfbalance\n        /* \"contracts/lottery.sol\":427:463  uint balance = address(this).balance */\n      swap1\n      pop\n        /* \"contracts/lottery.sol\":474:486  address addr */\n      0x00\n        /* \"contracts/lottery.sol\":497:501  this */\n      address\n        /* \"contracts/lottery.sol\":474:502  address addr = address(this) */\n      swap1\n      pop\n        /* \"contracts/lottery.sol\":513:547  transferEthToWinner(addr, balance) */\n      tag_34\n        /* \"contracts/lottery.sol\":533:537  addr */\n      dup2\n        /* \"contracts/lottery.sol\":539:546  balance */\n      dup4\n        /* \"contracts/lottery.sol\":513:532  transferEthToWinner */\n      tag_14\n        /* \"contracts/lottery.sol\":513:547  transferEthToWinner(addr, balance) */\n      jump\t// in\n    tag_34:\n        /* \"contracts/lottery.sol\":375:555  {\r... */\n      pop\n      pop\n        /* \"contracts/lottery.sol\":347:555  function endLottery() public{\r... */\n      jump\t// out\n        /* \"contracts/lottery.sol\":98:130  address public immutable manager */\n    tag_20:\n      immutable(\"0x2a80e1ef1d7842f27f2e6be0972bb708b9a135c38860dbe73c27c3486c34f4de\")\n      dup2\n      jump\t// out\n        /* \"contracts/lottery.sol\":137:176  mapping(address => uint) public players */\n    tag_27:\n      mstore(0x20, 0x00)\n      dup1\n      0x00\n      mstore\n      keccak256(0x00, 0x40)\n      0x00\n      swap2\n      pop\n      swap1\n      pop\n      sload\n      dup2\n      jump\t// out\n        /* \"#utility.yul\":7:146   */\n    tag_36:\n        /* \"#utility.yul\":53:58   */\n      0x00\n        /* \"#utility.yul\":91:97   */\n      dup2\n        /* \"#utility.yul\":78:98   */\n      calldataload\n        /* \"#utility.yul\":69:98   */\n      swap1\n      pop\n        /* \"#utility.yul\":107:140   */\n      tag_38\n        /* \"#utility.yul\":134:139   */\n      dup2\n        /* \"#utility.yul\":107:140   */\n      tag_39\n      jump\t// in\n    tag_38:\n        /* \"#utility.yul\":7:146   */\n      swap3\n      swap2\n      pop\n      pop\n      jump\t// out\n        /* \"#utility.yul\":152:291   */\n    tag_40:\n        /* \"#utility.yul\":198:203   */\n      0x00\n        /* \"#utility.yul\":236:242   */\n      dup2\n        /* \"#utility.yul\":223:243   */\n      calldataload\n        /* \"#utility.yul\":214:243   */\n      swap1\n      pop\n        /* \"#utility.yul\":252:285   */\n      tag_42\n        /* \"#utility.yul\":279:284   */\n      dup2\n        /* \"#utility.yul\":252:285   */\n      tag_43\n      jump\t// in\n    tag_42:\n        /* \"#utility.yul\":152:291   */\n      swap3\n      swap2\n      pop\n      pop\n      jump\t// out\n        /* \"#utility.yul\":297:626   */\n    tag_26:\n        /* \"#utility.yul\":356:362   */\n      0x00\n        /* \"#utility.yul\":405:407   */\n      0x20\n        /* \"#utility.yul\":393:402   */\n      dup3\n        /* \"#utility.yul\":384:391   */\n      dup5\n        /* \"#utility.yul\":380:403   */\n      sub\n        /* \"#utility.yul\":376:408   */\n      slt\n        /* \"#utility.yul\":373:492   */\n      iszero\n      tag_45\n      jumpi\n        /* \"#utility.yul\":411:490   */\n      tag_46\n      tag_47\n      jump\t// in\n    tag_46:\n        /* \"#utility.yul\":373:492   */\n    tag_45:\n        /* \"#utility.yul\":531:532   */\n      0x00\n        /* \"#utility.yul\":556:609   */\n      tag_48\n        /* \"#utility.yul\":601:608   */\n      dup5\n        /* \"#utility.yul\":592:598   */\n      dup3\n        /* \"#utility.yul\":581:590   */\n      dup6\n        /* \"#utility.yul\":577:599   */\n      add\n        /* \"#utility.yul\":556:609   */\n      tag_36\n      jump\t// in\n    tag_48:\n        /* \"#utility.yul\":546:609   */\n      swap2\n      pop\n        /* \"#utility.yul\":502:619   */\n      pop\n        /* \"#utility.yul\":297:626   */\n      swap3\n      swap2\n      pop\n      pop\n      jump\t// out\n        /* \"#utility.yul\":632:1106   */\n    tag_13:\n        /* \"#utility.yul\":700:706   */\n      0x00\n        /* \"#utility.yul\":708:714   */\n      dup1\n        /* \"#utility.yul\":757:759   */\n      0x40\n        /* \"#utility.yul\":745:754   */\n      dup4\n        /* \"#utility.yul\":736:743   */\n      dup6\n        /* \"#utility.yul\":732:755   */\n      sub\n        /* \"#utility.yul\":728:760   */\n      slt\n        /* \"#utility.yul\":725:844   */\n      iszero\n      tag_50\n      jumpi\n        /* \"#utility.yul\":763:842   */\n      tag_51\n      tag_47\n      jump\t// in\n    tag_51:\n        /* \"#utility.yul\":725:844   */\n    tag_50:\n        /* \"#utility.yul\":883:884   */\n      0x00\n        /* \"#utility.yul\":908:961   */\n      tag_52\n        /* \"#utility.yul\":953:960   */\n      dup6\n        /* \"#utility.yul\":944:950   */\n      dup3\n        /* \"#utility.yul\":933:942   */\n      dup7\n        /* \"#utility.yul\":929:951   */\n      add\n        /* \"#utility.yul\":908:961   */\n      tag_36\n      jump\t// in\n    tag_52:\n        /* \"#utility.yul\":898:961   */\n      swap3\n      pop\n        /* \"#utility.yul\":854:971   */\n      pop\n        /* \"#utility.yul\":1010:1012   */\n      0x20\n        /* \"#utility.yul\":1036:1089   */\n      tag_53\n        /* \"#utility.yul\":1081:1088   */\n      dup6\n        /* \"#utility.yul\":1072:1078   */\n      dup3\n        /* \"#utility.yul\":1061:1070   */\n      dup7\n        /* \"#utility.yul\":1057:1079   */\n      add\n        /* \"#utility.yul\":1036:1089   */\n      tag_40\n      jump\t// in\n    tag_53:\n        /* \"#utility.yul\":1026:1089   */\n      swap2\n      pop\n        /* \"#utility.yul\":981:1099   */\n      pop\n        /* \"#utility.yul\":632:1106   */\n      swap3\n      pop\n      swap3\n      swap1\n      pop\n      jump\t// out\n        /* \"#utility.yul\":1112:1230   */\n    tag_54:\n        /* \"#utility.yul\":1199:1223   */\n      tag_56\n        /* \"#utility.yul\":1217:1222   */\n      dup2\n        /* \"#utility.yul\":1199:1223   */\n      tag_57\n      jump\t// in\n    tag_56:\n        /* \"#utility.yul\":1194:1197   */\n      dup3\n        /* \"#utility.yul\":1187:1224   */\n      mstore\n        /* \"#utility.yul\":1112:1230   */\n      pop\n      pop\n      jump\t// out\n        /* \"#utility.yul\":1236:1354   */\n    tag_58:\n        /* \"#utility.yul\":1323:1347   */\n      tag_60\n        /* \"#utility.yul\":1341:1346   */\n      dup2\n        /* \"#utility.yul\":1323:1347   */\n      tag_61\n      jump\t// in\n    tag_60:\n        /* \"#utility.yul\":1318:1321   */\n      dup3\n        /* \"#utility.yul\":1311:1348   */\n      mstore\n        /* \"#utility.yul\":1236:1354   */\n      pop\n      pop\n      jump\t// out\n        /* \"#utility.yul\":1360:1582   */\n    tag_22:\n        /* \"#utility.yul\":1453:1457   */\n      0x00\n        /* \"#utility.yul\":1491:1493   */\n      0x20\n        /* \"#utility.yul\":1480:1489   */\n      dup3\n        /* \"#utility.yul\":1476:1494   */\n      add\n        /* \"#utility.yul\":1468:1494   */\n      swap1\n      pop\n        /* \"#utility.yul\":1504:1575   */\n      tag_63\n        /* \"#utility.yul\":1572:1573   */\n      0x00\n        /* \"#utility.yul\":1561:1570   */\n      dup4\n        /* \"#utility.yul\":1557:1574   */\n      add\n        /* \"#utility.yul\":1548:1554   */\n      dup5\n        /* \"#utility.yul\":1504:1575   */\n      tag_54\n      jump\t// in\n    tag_63:\n        /* \"#utility.yul\":1360:1582   */\n      swap3\n      swap2\n      pop\n      pop\n      jump\t// out\n        /* \"#utility.yul\":1588:1810   */\n    tag_29:\n        /* \"#utility.yul\":1681:1685   */\n      0x00\n        /* \"#utility.yul\":1719:1721   */\n      0x20\n        /* \"#utility.yul\":1708:1717   */\n      dup3\n        /* \"#utility.yul\":1704:1722   */\n      add\n        /* \"#utility.yul\":1696:1722   */\n      swap1\n      pop\n        /* \"#utility.yul\":1732:1803   */\n      tag_65\n        /* \"#utility.yul\":1800:1801   */\n      0x00\n        /* \"#utility.yul\":1789:1798   */\n      dup4\n        /* \"#utility.yul\":1785:1802   */\n      add\n        /* \"#utility.yul\":1776:1782   */\n      dup5\n        /* \"#utility.yul\":1732:1803   */\n      tag_58\n      jump\t// in\n    tag_65:\n        /* \"#utility.yul\":1588:1810   */\n      swap3\n      swap2\n      pop\n      pop\n      jump\t// out\n        /* \"#utility.yul\":1897:1993   */\n    tag_57:\n        /* \"#utility.yul\":1934:1941   */\n      0x00\n        /* \"#utility.yul\":1963:1987   */\n      tag_69\n        /* \"#utility.yul\":1981:1986   */\n      dup3\n        /* \"#utility.yul\":1963:1987   */\n      tag_70\n      jump\t// in\n    tag_69:\n        /* \"#utility.yul\":1952:1987   */\n      swap1\n      pop\n        /* \"#utility.yul\":1897:1993   */\n      swap2\n      swap1\n      pop\n      jump\t// out\n        /* \"#utility.yul\":1999:2125   */\n    tag_70:\n        /* \"#utility.yul\":2036:2043   */\n      0x00\n        /* \"#utility.yul\":2076:2118   */\n      0xffffffffffffffffffffffffffffffffffffffff\n        /* \"#utility.yul\":2069:2074   */\n      dup3\n        /* \"#utility.yul\":2065:2119   */\n      and\n        /* \"#utility.yul\":2054:2119   */\n      swap1\n      pop\n        /* \"#utility.yul\":1999:2125   */\n      swap2\n      swap1\n      pop\n      jump\t// out\n        /* \"#utility.yul\":2131:2208   */\n    tag_61:\n        /* \"#utility.yul\":2168:2175   */\n      0x00\n        /* \"#utility.yul\":2197:2202   */\n      dup2\n        /* \"#utility.yul\":2186:2202   */\n      swap1\n      pop\n        /* \"#utility.yul\":2131:2208   */\n      swap2\n      swap1\n      pop\n      jump\t// out\n        /* \"#utility.yul\":2337:2454   */\n    tag_47:\n        /* \"#utility.yul\":2446:2447   */\n      0x00\n        /* \"#utility.yul\":2443:2444   */\n      dup1\n        /* \"#utility.yul\":2436:2448   */\n      revert\n        /* \"#utility.yul\":2460:2582   */\n    tag_39:\n        /* \"#utility.yul\":2533:2557   */\n      tag_77\n        /* \"#utility.yul\":2551:2556   */\n      dup2\n        /* \"#utility.yul\":2533:2557   */\n      tag_57\n      jump\t// in\n    tag_77:\n        /* \"#utility.yul\":2526:2531   */\n      dup2\n        /* \"#utility.yul\":2523:2558   */\n      eq\n        /* \"#utility.yul\":2513:2576   */\n      tag_78\n      jumpi\n        /* \"#utility.yul\":2572:2573   */\n      0x00\n        /* \"#utility.yul\":2569:2570   */\n      dup1\n        /* \"#utility.yul\":2562:2574   */\n      revert\n        /* \"#utility.yul\":2513:2576   */\n    tag_78:\n        /* \"#utility.yul\":2460:2582   */\n      pop\n      jump\t// out\n        /* \"#utility.yul\":2588:2710   */\n    tag_43:\n        /* \"#utility.yul\":2661:2685   */\n      tag_80\n        /* \"#utility.yul\":2679:2684   */\n      dup2\n        /* \"#utility.yul\":2661:2685   */\n      tag_61\n      jump\t// in\n    tag_80:\n        /* \"#utility.yul\":2654:2659   */\n      dup2\n        /* \"#utility.yul\":2651:2686   */\n      eq\n        /* \"#utility.yul\":2641:2704   */\n      tag_81\n      jumpi\n        /* \"#utility.yul\":2700:2701   */\n      0x00\n        /* \"#utility.yul\":2697:2698   */\n      dup1\n        /* \"#utility.yul\":2690:2702   */\n      revert\n        /* \"#utility.yul\":2641:2704   */\n    tag_81:\n        /* \"#utility.yul\":2588:2710   */\n      pop\n      jump\t// out\n\n    auxdata: 0xa26469706673582212200a2af0cfb0bbdbff29d6a2a9469303dba4365c541a4360f047890ae4c71ff97564736f6c63430008070033\n}\n",
				"bytecode": {
					"linkReferences": {},
					"object": "60a060405234801561001057600080fd5b503373ffffffffffffffffffffffffffffffffffffffff1660808173ffffffffffffffffffffffffffffffffffffffff1660601b8152505060805160601c61038f610074600039600081816101100152818161016c01526101c5015261038f6000f3fe6080604052600436106100435760003560e01c806310c5762e1461004f5780631593a8c714610078578063481c6a751461008f578063e2eb41ff146100ba5761004a565b3661004a57005b600080fd5b34801561005b57600080fd5b5061007660048036038101906100719190610256565b6100f7565b005b34801561008457600080fd5b5061008d610153565b005b34801561009b57600080fd5b506100a46101c3565b6040516100b191906102b4565b60405180910390f35b3480156100c657600080fd5b506100e160048036038101906100dc9190610229565b6101e7565b6040516100ee91906102cf565b60405180910390f35b3373ffffffffffffffffffffffffffffffffffffffff167f000000000000000000000000000000000000000000000000000000000000000073ffffffffffffffffffffffffffffffffffffffff161461014f57600080fd5b5050565b3373ffffffffffffffffffffffffffffffffffffffff167f000000000000000000000000000000000000000000000000000000000000000073ffffffffffffffffffffffffffffffffffffffff16146101ab57600080fd5b600047905060003090506101bf81836100f7565b5050565b7f000000000000000000000000000000000000000000000000000000000000000081565b60006020528060005260406000206000915090505481565b60008135905061020e8161032b565b92915050565b60008135905061022381610342565b92915050565b60006020828403121561023f5761023e610326565b5b600061024d848285016101ff565b91505092915050565b6000806040838503121561026d5761026c610326565b5b600061027b858286016101ff565b925050602061028c85828601610214565b9150509250929050565b61029f816102ea565b82525050565b6102ae8161031c565b82525050565b60006020820190506102c96000830184610296565b92915050565b60006020820190506102e460008301846102a5565b92915050565b60006102f5826102fc565b9050919050565b600073ffffffffffffffffffffffffffffffffffffffff82169050919050565b6000819050919050565b600080fd5b610334816102ea565b811461033f57600080fd5b50565b61034b8161031c565b811461035657600080fd5b5056fea26469706673582212200a2af0cfb0bbdbff29d6a2a9469303dba4365c541a4360f047890ae4c71ff97564736f6c63430008070033",
					"opcodes": "PUSH1 0xA0 PUSH1 0x40 MSTORE CALLVALUE DUP1 ISZERO PUSH2 0x10 JUMPI PUSH1 0x0 DUP1 REVERT JUMPDEST POP CALLER PUSH20 0xFFFFFFFFFFFFFFFFFFFFFFFFFFFFFFFFFFFFFFFF AND PUSH1 0x80 DUP2 PUSH20 0xFFFFFFFFFFFFFFFFFFFFFFFFFFFFFFFFFFFFFFFF AND PUSH1 0x60 SHL DUP2 MSTORE POP POP PUSH1 0x80 MLOAD PUSH1 0x60 SHR PUSH2 0x38F PUSH2 0x74 PUSH1 0x0 CODECOPY PUSH1 0x0 DUP2 DUP2 PUSH2 0x110 ADD MSTORE DUP2 DUP2 PUSH2 0x16C ADD MSTORE PUSH2 0x1C5 ADD MSTORE PUSH2 0x38F PUSH1 0x0 RETURN INVALID PUSH1 0x80 PUSH1 0x40 MSTORE PUSH1 0x4 CALLDATASIZE LT PUSH2 0x43 JUMPI PUSH1 0x0 CALLDATALOAD PUSH1 0xE0 SHR DUP1 PUSH4 0x10C5762E EQ PUSH2 0x4F JUMPI DUP1 PUSH4 0x1593A8C7 EQ PUSH2 0x78 JUMPI DUP1 PUSH4 0x481C6A75 EQ PUSH2 0x8F JUMPI DUP1 PUSH4 0xE2EB41FF EQ PUSH2 0xBA JUMPI PUSH2 0x4A JUMP JUMPDEST CALLDATASIZE PUSH2 0x4A JUMPI STOP JUMPDEST PUSH1 0x0 DUP1 REVERT JUMPDEST CALLVALUE DUP1 ISZERO PUSH2 0x5B JUMPI PUSH1 0x0 DUP1 REVERT JUMPDEST POP PUSH2 0x76 PUSH1 0x4 DUP1 CALLDATASIZE SUB DUP2 ADD SWAP1 PUSH2 0x71 SWAP2 SWAP1 PUSH2 0x256 JUMP JUMPDEST PUSH2 0xF7 JUMP JUMPDEST STOP JUMPDEST CALLVALUE DUP1 ISZERO PUSH2 0x84 JUMPI PUSH1 0x0 DUP1 REVERT JUMPDEST POP PUSH2 0x8D PUSH2 0x153 JUMP JUMPDEST STOP JUMPDEST CALLVALUE DUP1 ISZERO PUSH2 0x9B JUMPI PUSH1 0x0 DUP1 REVERT JUMPDEST POP PUSH2 0xA4 PUSH2 0x1C3 JUMP JUMPDEST PUSH1 0x40 MLOAD PUSH2 0xB1 SWAP2 SWAP1 PUSH2 0x2B4 JUMP JUMPDEST PUSH1 0x40 MLOAD DUP1 SWAP2 SUB SWAP1 RETURN JUMPDEST CALLVALUE DUP1 ISZERO PUSH2 0xC6 JUMPI PUSH1 0x0 DUP1 REVERT JUMPDEST POP PUSH2 0xE1 PUSH1 0x4 DUP1 CALLDATASIZE SUB DUP2 ADD SWAP1 PUSH2 0xDC SWAP2 SWAP1 PUSH2 0x229 JUMP JUMPDEST PUSH2 0x1E7 JUMP JUMPDEST PUSH1 0x40 MLOAD PUSH2 0xEE SWAP2 SWAP1 PUSH2 0x2CF JUMP JUMPDEST PUSH1 0x40 MLOAD DUP1 SWAP2 SUB SWAP1 RETURN JUMPDEST CALLER PUSH20 0xFFFFFFFFFFFFFFFFFFFFFFFFFFFFFFFFFFFFFFFF AND PUSH32 0x0 PUSH20 0xFFFFFFFFFFFFFFFFFFFFFFFFFFFFFFFFFFFFFFFF AND EQ PUSH2 0x14F JUMPI PUSH1 0x0 DUP1 REVERT JUMPDEST POP POP JUMP JUMPDEST CALLER PUSH20 0xFFFFFFFFFFFFFFFFFFFFFFFFFFFFFFFFFFFFFFFF AND PUSH32 0x0 PUSH20 0xFFFFFFFFFFFFFFFFFFFFFFFFFFFFFFFFFFFFFFFF AND EQ PUSH2 0x1AB JUMPI PUSH1 0x0 DUP1 REVERT JUMPDEST PUSH1 0x0 SELFBALANCE SWAP1 POP PUSH1 0x0 ADDRESS SWAP1 POP PUSH2 0x1BF DUP2 DUP4 PUSH2 0xF7 JUMP JUMPDEST POP POP JUMP JUMPDEST PUSH32 0x0 DUP2 JUMP JUMPDEST PUSH1 0x0 PUSH1 0x20 MSTORE DUP1 PUSH1 0x0 MSTORE PUSH1 0x40 PUSH1 0x0 KECCAK256 PUSH1 0x0 SWAP2 POP SWAP1 POP SLOAD DUP2 JUMP JUMPDEST PUSH1 0x0 DUP2 CALLDATALOAD SWAP1 POP PUSH2 0x20E DUP2 PUSH2 0x32B JUMP JUMPDEST SWAP3 SWAP2 POP POP JUMP JUMPDEST PUSH1 0x0 DUP2 CALLDATALOAD SWAP1 POP PUSH2 0x223 DUP2 PUSH2 0x342 JUMP JUMPDEST SWAP3 SWAP2 POP POP JUMP JUMPDEST PUSH1 0x0 PUSH1 0x20 DUP3 DUP5 SUB SLT ISZERO PUSH2 0x23F JUMPI PUSH2 0x23E PUSH2 0x326 JUMP JUMPDEST JUMPDEST PUSH1 0x0 PUSH2 0x24D DUP5 DUP3 DUP6 ADD PUSH2 0x1FF JUMP JUMPDEST SWAP2 POP POP SWAP3 SWAP2 POP POP JUMP JUMPDEST PUSH1 0x0 DUP1 PUSH1 0x40 DUP4 DUP6 SUB SLT ISZERO PUSH2 0x26D JUMPI PUSH2 0x26C PUSH2 0x326 JUMP JUMPDEST JUMPDEST PUSH1 0x0 PUSH2 0x27B DUP6 DUP3 DUP7 ADD PUSH2 0x1FF JUMP JUMPDEST SWAP3 POP POP PUSH1 0x20 PUSH2 0x28C DUP6 DUP3 DUP7 ADD PUSH2 0x214 JUMP JUMPDEST SWAP2 POP POP SWAP3 POP SWAP3 SWAP1 POP JUMP JUMPDEST PUSH2 0x29F DUP2 PUSH2 0x2EA JUMP JUMPDEST DUP3 MSTORE POP POP JUMP JUMPDEST PUSH2 0x2AE DUP2 PUSH2 0x31C JUMP JUMPDEST DUP3 MSTORE POP POP JUMP JUMPDEST PUSH1 0x0 PUSH1 0x20 DUP3 ADD SWAP1 POP PUSH2 0x2C9 PUSH1 0x0 DUP4 ADD DUP5 PUSH2 0x296 JUMP JUMPDEST SWAP3 SWAP2 POP POP JUMP JUMPDEST PUSH1 0x0 PUSH1 0x20 DUP3 ADD SWAP1 POP PUSH2 0x2E4 PUSH1 0x0 DUP4 ADD DUP5 PUSH2 0x2A5 JUMP JUMPDEST SWAP3 SWAP2 POP POP JUMP JUMPDEST PUSH1 0x0 PUSH2 0x2F5 DUP3 PUSH2 0x2FC JUMP JUMPDEST SWAP1 POP SWAP2 SWAP1 POP JUMP JUMPDEST PUSH1 0x0 PUSH20 0xFFFFFFFFFFFFFFFFFFFFFFFFFFFFFFFFFFFFFFFF DUP3 AND SWAP1 POP SWAP2 SWAP1 POP JUMP JUMPDEST PUSH1 0x0 DUP2 SWAP1 POP SWAP2 SWAP1 POP JUMP JUMPDEST PUSH1 0x0 DUP1 REVERT JUMPDEST PUSH2 0x334 DUP2 PUSH2 0x2EA JUMP JUMPDEST DUP2 EQ PUSH2 0x33F JUMPI PUSH1 0x0 DUP1 REVERT JUMPDEST POP JUMP JUMPDEST PUSH2 0x34B DUP2 PUSH2 0x31C JUMP JUMPDEST DUP2 EQ PUSH2 0x356 JUMPI PUSH1 0x0 DUP1 REVERT JUMPDEST POP JUMP INVALID LOG2 PUSH5 0x6970667358 0x22 SLT KECCAK256 EXP 0x2A CREATE 0xCF 0xB0 0xBB 0xDB SELFDESTRUCT 0x29 0xD6 LOG2 0xA9 CHAINID SWAP4 SUB 0xDB LOG4 CALLDATASIZE 0x5C SLOAD BYTE NUMBER PUSH1 0xF0 SELFBALANCE DUP10 EXP 0xE4 0xC7 0x1F 0xF9 PUSH22 0x64736F6C634300080700330000000000000000000000 "
				},
				"gasEstimates": {
					"creation": {
						"codeDepositCost": "182200",
						"executionCost": "infinite",
						"totalCost": "infinite"
					},
					"external": {
						"endLottery()": "infinite",
						"manager()": "infinite",
						"players(address)": "2858",
						"transferEthToWinner(address,uint256)": "infinite"
					}
				},
				"methodIdentifiers": {
					"endLottery()": "1593a8c7",
					"manager()": "481c6a75",
					"players(address)": "e2eb41ff",
					"transferEthToWinner(address,uint256)": "10c5762e"
				}
			},
			"storageLayout": {
				"storage": [
					{
						"astId": 7,
						"contract": "contracts/lottery.sol:Lottery",
						"label": "players",
						"offset": 0,
						"slot": "0",
						"type": "t_mapping(t_address,t_uint256)"
					}
				],
				"types": {
					"t_address": {
						"encoding": "inplace",
						"label": "address",
						"numberOfBytes": "20"
					},
					"t_mapping(t_address,t_uint256)": {
						"encoding": "mapping",
						"key": "t_address",
						"label": "mapping(address => uint256)",
						"numberOfBytes": "32",
						"value": "t_uint256"
					},
					"t_uint256": {
						"encoding": "inplace",
						"label": "uint256",
						"numberOfBytes": "32"
					}
				}
			},
			"userdoc": {
				"kind": "user",
				"methods": {},
				"version": 1
			}
		}
	}
}